{"project/contracts/JanusTimelock.sol":{"JanusTimelock":{"abi":[{"inputs":[{"internalType":"address[]","name":"proposers","type":"address[]"},{"internalType":"address[]","name":"executors","type":"address[]"},{"internalType":"address","name":"admin","type":"address"}],"stateMutability":"nonpayable","type":"constructor"},{"inputs":[],"name":"AccessControlBadConfirmation","type":"error"},{"inputs":[{"internalType":"address","name":"account","type":"address"},{"internalType":"bytes32","name":"neededRole","type":"bytes32"}],"name":"AccessControlUnauthorizedAccount","type":"error"},{"inputs":[],"name":"FailedInnerCall","type":"error"},{"inputs":[{"internalType":"uint256","name":"delay","type":"uint256"},{"internalType":"uint256","name":"minDelay","type":"uint256"}],"name":"TimelockInsufficientDelay","type":"error"},{"inputs":[{"internalType":"uint256","name":"targets","type":"uint256"},{"internalType":"uint256","name":"payloads","type":"uint256"},{"internalType":"uint256","name":"values","type":"uint256"}],"name":"TimelockInvalidOperationLength","type":"error"},{"inputs":[{"internalType":"address","name":"caller","type":"address"}],"name":"TimelockUnauthorizedCaller","type":"error"},{"inputs":[{"internalType":"bytes32","name":"predecessorId","type":"bytes32"}],"name":"TimelockUnexecutedPredecessor","type":"error"},{"inputs":[{"internalType":"bytes32","name":"operationId","type":"bytes32"},{"internalType":"bytes32","name":"expectedStates","type":"bytes32"}],"name":"TimelockUnexpectedOperationState","type":"error"},{"anonymous":false,"inputs":[{"indexed":true,"internalType":"bytes32","name":"id","type":"bytes32"},{"indexed":true,"internalType":"uint256","name":"index","type":"uint256"},{"indexed":false,"internalType":"address","name":"target","type":"address"},{"indexed":false,"internalType":"uint256","name":"value","type":"uint256"},{"indexed":false,"internalType":"bytes","name":"data","type":"bytes"}],"name":"CallExecuted","type":"event"},{"anonymous":false,"inputs":[{"indexed":true,"internalType":"bytes32","name":"id","type":"bytes32"},{"indexed":false,"internalType":"bytes32","name":"salt","type":"bytes32"}],"name":"CallSalt","type":"event"},{"anonymous":false,"inputs":[{"indexed":true,"internalType":"bytes32","name":"id","type":"bytes32"},{"indexed":true,"internalType":"uint256","name":"index","type":"uint256"},{"indexed":false,"internalType":"address","name":"target","type":"address"},{"indexed":false,"internalType":"uint256","name":"value","type":"uint256"},{"indexed":false,"internalType":"bytes","name":"data","type":"bytes"},{"indexed":false,"internalType":"bytes32","name":"predecessor","type":"bytes32"},{"indexed":false,"internalType":"uint256","name":"delay","type":"uint256"}],"name":"CallScheduled","type":"event"},{"anonymous":false,"inputs":[{"indexed":true,"internalType":"bytes32","name":"id","type":"bytes32"}],"name":"Cancelled","type":"event"},{"anonymous":false,"inputs":[{"indexed":false,"internalType":"uint256","name":"oldDuration","type":"uint256"},{"indexed":false,"internalType":"uint256","name":"newDuration","type":"uint256"}],"name":"MinDelayChange","type":"event"},{"anonymous":false,"inputs":[{"indexed":true,"internalType":"bytes32","name":"role","type":"bytes32"},{"indexed":true,"internalType":"bytes32","name":"previousAdminRole","type":"bytes32"},{"indexed":true,"internalType":"bytes32","name":"newAdminRole","type":"bytes32"}],"name":"RoleAdminChanged","type":"event"},{"anonymous":false,"inputs":[{"indexed":true,"internalType":"bytes32","name":"role","type":"bytes32"},{"indexed":true,"internalType":"address","name":"account","type":"address"},{"indexed":true,"internalType":"address","name":"sender","type":"address"}],"name":"RoleGranted","type":"event"},{"anonymous":false,"inputs":[{"indexed":true,"internalType":"bytes32","name":"role","type":"bytes32"},{"indexed":true,"internalType":"address","name":"account","type":"address"},{"indexed":true,"internalType":"address","name":"sender","type":"address"}],"name":"RoleRevoked","type":"event"},{"inputs":[],"name":"ADMIN_ROLE","outputs":[{"internalType":"bytes32","name":"","type":"bytes32"}],"stateMutability":"view","type":"function"},{"inputs":[],"name":"CANCELLER_ROLE","outputs":[{"internalType":"bytes32","name":"","type":"bytes32"}],"stateMutability":"view","type":"function"},{"inputs":[],"name":"DEFAULT_ADMIN_ROLE","outputs":[{"internalType":"bytes32","name":"","type":"bytes32"}],"stateMutability":"view","type":"function"},{"inputs":[],"name":"DELAY","outputs":[{"internalType":"uint256","name":"","type":"uint256"}],"stateMutability":"view","type":"function"},{"inputs":[],"name":"EXECUTOR_ROLE","outputs":[{"internalType":"bytes32","name":"","type":"bytes32"}],"stateMutability":"view","type":"function"},{"inputs":[],"name":"PROPOSER_ROLE","outputs":[{"internalType":"bytes32","name":"","type":"bytes32"}],"stateMutability":"view","type":"function"},{"inputs":[{"internalType":"bytes32","name":"id","type":"bytes32"}],"name":"cancel","outputs":[],"stateMutability":"nonpayable","type":"function"},{"inputs":[{"internalType":"address","name":"target","type":"address"},{"internalType":"uint256","name":"value","type":"uint256"},{"internalType":"bytes","name":"payload","type":"bytes"},{"internalType":"bytes32","name":"predecessor","type":"bytes32"},{"internalType":"bytes32","name":"salt","type":"bytes32"}],"name":"execute","outputs":[],"stateMutability":"payable","type":"function"},{"inputs":[{"internalType":"address[]","name":"targets","type":"address[]"},{"internalType":"uint256[]","name":"values","type":"uint256[]"},{"internalType":"bytes[]","name":"payloads","type":"bytes[]"},{"internalType":"bytes32","name":"predecessor","type":"bytes32"},{"internalType":"bytes32","name":"salt","type":"bytes32"}],"name":"executeBatch","outputs":[],"stateMutability":"payable","type":"function"},{"inputs":[],"name":"getMinDelay","outputs":[{"internalType":"uint256","name":"","type":"uint256"}],"stateMutability":"view","type":"function"},{"inputs":[{"internalType":"bytes32","name":"id","type":"bytes32"}],"name":"getOperationState","outputs":[{"internalType":"enum TimelockController.OperationState","name":"","type":"uint8"}],"stateMutability":"view","type":"function"},{"inputs":[{"internalType":"bytes32","name":"role","type":"bytes32"}],"name":"getRoleAdmin","outputs":[{"internalType":"bytes32","name":"","type":"bytes32"}],"stateMutability":"view","type":"function"},{"inputs":[{"internalType":"bytes32","name":"id","type":"bytes32"}],"name":"getTimestamp","outputs":[{"internalType":"uint256","name":"","type":"uint256"}],"stateMutability":"view","type":"function"},{"inputs":[{"internalType":"bytes32","name":"role","type":"bytes32"},{"internalType":"address","name":"account","type":"address"}],"name":"grantRole","outputs":[],"stateMutability":"nonpayable","type":"function"},{"inputs":[{"internalType":"bytes32","name":"role","type":"bytes32"},{"internalType":"address","name":"account","type":"address"}],"name":"hasRole","outputs":[{"internalType":"bool","name":"","type":"bool"}],"stateMutability":"view","type":"function"},{"inputs":[{"internalType":"address","name":"target","type":"address"},{"internalType":"uint256","name":"value","type":"uint256"},{"internalType":"bytes","name":"data","type":"bytes"},{"internalType":"bytes32","name":"predecessor","type":"bytes32"},{"internalType":"bytes32","name":"salt","type":"bytes32"}],"name":"hashOperation","outputs":[{"internalType":"bytes32","name":"","type":"bytes32"}],"stateMutability":"pure","type":"function"},{"inputs":[{"internalType":"address[]","name":"targets","type":"address[]"},{"internalType":"uint256[]","name":"values","type":"uint256[]"},{"internalType":"bytes[]","name":"payloads","type":"bytes[]"},{"internalType":"bytes32","name":"predecessor","type":"bytes32"},{"internalType":"bytes32","name":"salt","type":"bytes32"}],"name":"hashOperationBatch","outputs":[{"internalType":"bytes32","name":"","type":"bytes32"}],"stateMutability":"pure","type":"function"},{"inputs":[{"internalType":"bytes32","name":"id","type":"bytes32"}],"name":"isOperation","outputs":[{"internalType":"bool","name":"","type":"bool"}],"stateMutability":"view","type":"function"},{"inputs":[{"internalType":"bytes32","name":"id","type":"bytes32"}],"name":"isOperationDone","outputs":[{"internalType":"bool","name":"","type":"bool"}],"stateMutability":"view","type":"function"},{"inputs":[{"internalType":"bytes32","name":"id","type":"bytes32"}],"name":"isOperationPending","outputs":[{"internalType":"bool","name":"","type":"bool"}],"stateMutability":"view","type":"function"},{"inputs":[{"internalType":"bytes32","name":"id","type":"bytes32"}],"name":"isOperationReady","outputs":[{"internalType":"bool","name":"","type":"bool"}],"stateMutability":"view","type":"function"},{"inputs":[{"internalType":"address","name":"","type":"address"},{"internalType":"address","name":"","type":"address"},{"internalType":"uint256[]","name":"","type":"uint256[]"},{"internalType":"uint256[]","name":"","type":"uint256[]"},{"internalType":"bytes","name":"","type":"bytes"}],"name":"onERC1155BatchReceived","outputs":[{"internalType":"bytes4","name":"","type":"bytes4"}],"stateMutability":"nonpayable","type":"function"},{"inputs":[{"internalType":"address","name":"","type":"address"},{"internalType":"address","name":"","type":"address"},{"internalType":"uint256","name":"","type":"uint256"},{"internalType":"uint256","name":"","type":"uint256"},{"internalType":"bytes","name":"","type":"bytes"}],"name":"onERC1155Received","outputs":[{"internalType":"bytes4","name":"","type":"bytes4"}],"stateMutability":"nonpayable","type":"function"},{"inputs":[{"internalType":"address","name":"","type":"address"},{"internalType":"address","name":"","type":"address"},{"internalType":"uint256","name":"","type":"uint256"},{"internalType":"bytes","name":"","type":"bytes"}],"name":"onERC721Received","outputs":[{"internalType":"bytes4","name":"","type":"bytes4"}],"stateMutability":"nonpayable","type":"function"},{"inputs":[{"internalType":"bytes32","name":"role","type":"bytes32"},{"internalType":"address","name":"callerConfirmation","type":"address"}],"name":"renounceRole","outputs":[],"stateMutability":"nonpayable","type":"function"},{"inputs":[{"internalType":"bytes32","name":"role","type":"bytes32"},{"internalType":"address","name":"account","type":"address"}],"name":"revokeRole","outputs":[],"stateMutability":"nonpayable","type":"function"},{"inputs":[{"internalType":"address","name":"target","type":"address"},{"internalType":"uint256","name":"value","type":"uint256"},{"internalType":"bytes","name":"data","type":"bytes"},{"internalType":"bytes32","name":"predecessor","type":"bytes32"},{"internalType":"bytes32","name":"salt","type":"bytes32"},{"internalType":"uint256","name":"delay","type":"uint256"}],"name":"schedule","outputs":[],"stateMutability":"nonpayable","type":"function"},{"inputs":[{"internalType":"address[]","name":"targets","type":"address[]"},{"internalType":"uint256[]","name":"values","type":"uint256[]"},{"internalType":"bytes[]","name":"payloads","type":"bytes[]"},{"internalType":"bytes32","name":"predecessor","type":"bytes32"},{"internalType":"bytes32","name":"salt","type":"bytes32"},{"internalType":"uint256","name":"delay","type":"uint256"}],"name":"scheduleBatch","outputs":[],"stateMutability":"nonpayable","type":"function"},{"inputs":[{"internalType":"bytes4","name":"interfaceId","type":"bytes4"}],"name":"supportsInterface","outputs":[{"internalType":"bool","name":"","type":"bool"}],"stateMutability":"view","type":"function"},{"inputs":[{"internalType":"uint256","name":"newDelay","type":"uint256"}],"name":"updateDelay","outputs":[],"stateMutability":"nonpayable","type":"function"},{"stateMutability":"payable","type":"receive"}],"evm":{"bytecode":{"linkReferences":{},"object":"608060405234801562000010575f80fd5b506040516200316d3803806200316d833981810160405281019062000036919062000550565b62015180838383620000515f801b306200020d60201b60201c565b505f73ffffffffffffffffffffffffffffffffffffffff168173ffffffffffffffffffffffffffffffffffffffff16146200009c576200009a5f801b826200020d60201b60201c565b505b5f5b83518110156200015457620000f77fb09aa5aeb3702cfd50b6b62bc4532604938f21248a27a1d5ca736082b6819cc1858381518110620000e357620000e2620005e7565b5b60200260200101516200020d60201b60201c565b50620001477ffd643c72710c63c0180259aba6b2d05451e3591a24e58b62239378085726f783858381518110620001335762000132620005e7565b5b60200260200101516200020d60201b60201c565b508060010190506200009e565b505f5b8251811015620001bd57620001b07fd8aa0f3194971a2a116679f7c2090f6939c8d4e01a2a8d7e41d55e5351469e638483815181106200019c576200019b620005e7565b5b60200260200101516200020d60201b60201c565b5080600101905062000157565b50836002819055507f11c24f4ead16507c69ac467fbd5e4eed5fb5c699626d2cc6d66421df253886d55f85604051620001f892919062000678565b60405180910390a150505050505050620006a3565b5f6200022083836200030860201b60201c565b620002fe5760015f808581526020019081526020015f205f015f8473ffffffffffffffffffffffffffffffffffffffff1673ffffffffffffffffffffffffffffffffffffffff1681526020019081526020015f205f6101000a81548160ff0219169083151502179055506200029a6200036b60201b60201c565b73ffffffffffffffffffffffffffffffffffffffff168273ffffffffffffffffffffffffffffffffffffffff16847f2f8788117e7eff1d82e926ec794901d17c78024a50270940304540a733656f0d60405160405180910390a46001905062000302565b5f90505b92915050565b5f805f8481526020019081526020015f205f015f8373ffffffffffffffffffffffffffffffffffffffff1673ffffffffffffffffffffffffffffffffffffffff1681526020019081526020015f205f9054906101000a900460ff16905092915050565b5f33905090565b5f604051905090565b5f80fd5b5f80fd5b5f80fd5b5f601f19601f8301169050919050565b7f4e487b71000000000000000000000000000000000000000000000000000000005f52604160045260245ffd5b620003cf8262000387565b810181811067ffffffffffffffff82111715620003f157620003f062000397565b5b80604052505050565b5f6200040562000372565b9050620004138282620003c4565b919050565b5f67ffffffffffffffff82111562000435576200043462000397565b5b602082029050602081019050919050565b5f80fd5b5f73ffffffffffffffffffffffffffffffffffffffff82169050919050565b5f62000475826200044a565b9050919050565b620004878162000469565b811462000492575f80fd5b50565b5f81519050620004a5816200047c565b92915050565b5f620004c1620004bb8462000418565b620003fa565b90508083825260208201905060208402830185811115620004e757620004e662000446565b5b835b81811015620005145780620004ff888262000495565b845260208401935050602081019050620004e9565b5050509392505050565b5f82601f83011262000535576200053462000383565b5b815162000547848260208601620004ab565b91505092915050565b5f805f606084860312156200056a57620005696200037b565b5b5f84015167ffffffffffffffff8111156200058a57620005896200037f565b5b62000598868287016200051e565b935050602084015167ffffffffffffffff811115620005bc57620005bb6200037f565b5b620005ca868287016200051e565b9250506040620005dd8682870162000495565b9150509250925092565b7f4e487b71000000000000000000000000000000000000000000000000000000005f52603260045260245ffd5b5f819050919050565b5f819050919050565b5f819050919050565b5f6200064f62000649620006438462000614565b62000626565b6200061d565b9050919050565b62000661816200062f565b82525050565b62000672816200061d565b82525050565b5f6040820190506200068d5f83018562000656565b6200069c602083018462000667565b9392505050565b612abc80620006b15f395ff3fe6080604052600436106101d0575f3560e01c80637958004c116100f6578063b1c5f42711610094578063d547741f11610063578063d547741f146106ef578063e38335e514610717578063f23a6e6114610733578063f27a0c921461076f576101d7565b8063b1c5f42714610613578063bc197c811461064f578063c4d252f51461068b578063d45c4435146106b3576101d7565b80638f61f4f5116100d05780638f61f4f51461055957806391d1485414610583578063a217fddf146105bf578063b08e51c0146105e9576101d7565b80637958004c146104b95780638065657f146104f55780638f2a0bb014610531576101d7565b80632ab0f5291161016e578063584b153e1161013d578063584b153e1461040157806364d623531461043d57806369b411701461046557806375b238fc1461048f576101d7565b80632ab0f529146103395780632f2ff15d1461037557806331d507501461039d57806336568abe146103d9576101d7565b8063134008d3116101aa578063134008d31461026957806313bc9f2014610285578063150b7a02146102c1578063248a9ca3146102fd576101d7565b806301d5062a146101db57806301ffc9a71461020357806307bd02651461023f576101d7565b366101d757005b5f80fd5b3480156101e6575f80fd5b5061020160048036038101906101fc9190611a02565b610799565b005b34801561020e575f80fd5b5061022960048036038101906102249190611b01565b61086e565b6040516102369190611b46565b60405180910390f35b34801561024a575f80fd5b5061025361087f565b6040516102609190611b6e565b60405180910390f35b610283600480360381019061027e9190611b87565b6108a3565b005b348015610290575f80fd5b506102ab60048036038101906102a69190611c1d565b61095d565b6040516102b89190611b46565b60405180910390f35b3480156102cc575f80fd5b506102e760048036038101906102e29190611d80565b610995565b6040516102f49190611e0f565b60405180910390f35b348015610308575f80fd5b50610323600480360381019061031e9190611c1d565b6109a8565b6040516103309190611b6e565b60405180910390f35b348015610344575f80fd5b5061035f600480360381019061035a9190611c1d565b6109c4565b60405161036c9190611b46565b60405180910390f35b348015610380575f80fd5b5061039b60048036038101906103969190611e28565b6109fb565b005b3480156103a8575f80fd5b506103c360048036038101906103be9190611c1d565b610a1d565b6040516103d09190611b46565b60405180910390f35b3480156103e4575f80fd5b506103ff60048036038101906103fa9190611e28565b610a55565b005b34801561040c575f80fd5b5061042760048036038101906104229190611c1d565b610ad0565b6040516104349190611b46565b60405180910390f35b348015610448575f80fd5b50610463600480360381019061045e9190611e66565b610b3c565b005b348015610470575f80fd5b50610479610bfd565b6040516104869190611ea0565b60405180910390f35b34801561049a575f80fd5b506104a3610c04565b6040516104b09190611b6e565b60405180910390f35b3480156104c4575f80fd5b506104df60048036038101906104da9190611c1d565b610c0a565b6040516104ec9190611f2c565b60405180910390f35b348015610500575f80fd5b5061051b60048036038101906105169190611b87565b610c56565b6040516105289190611b6e565b60405180910390f35b34801561053c575f80fd5b5061055760048036038101906105529190612044565b610c94565b005b348015610564575f80fd5b5061056d610e53565b60405161057a9190611b6e565b60405180910390f35b34801561058e575f80fd5b506105a960048036038101906105a49190611e28565b610e77565b6040516105b69190611b46565b60405180910390f35b3480156105ca575f80fd5b506105d3610eda565b6040516105e09190611b6e565b60405180910390f35b3480156105f4575f80fd5b506105fd610ee0565b60405161060a9190611b6e565b60405180910390f35b34801561061e575f80fd5b506106396004803603810190610634919061212d565b610f04565b6040516106469190611b6e565b60405180910390f35b34801561065a575f80fd5b50610675600480360381019061067091906122c4565b610f48565b6040516106829190611e0f565b60405180910390f35b348015610696575f80fd5b506106b160048036038101906106ac9190611c1d565b610f5c565b005b3480156106be575f80fd5b506106d960048036038101906106d49190611c1d565b61102b565b6040516106e69190611ea0565b60405180910390f35b3480156106fa575f80fd5b5061071560048036038101906107109190611e28565b611045565b005b610731600480360381019061072c919061212d565b611067565b005b34801561073e575f80fd5b506107596004803603810190610754919061238f565b61121f565b6040516107669190611e0f565b60405180910390f35b34801561077a575f80fd5b50610783611233565b6040516107909190611ea0565b60405180910390f35b7fb09aa5aeb3702cfd50b6b62bc4532604938f21248a27a1d5ca736082b6819cc16107c38161123c565b5f6107d2898989898989610c56565b90506107de8184611250565b5f817f4cf4410cc57040e44862ef0f45f3dd5a5e02db8eb8add648d4b0e236f1d07dca8b8b8b8b8b8a6040516108199695949392919061246d565b60405180910390a35f801b841461086357807f20fda5fd27a1ea7bf5b9567f143ac5470bb059374a27e8f67cb44f946f6d03878560405161085a9190611b6e565b60405180910390a25b505050505050505050565b5f6108788261131d565b9050919050565b7fd8aa0f3194971a2a116679f7c2090f6939c8d4e01a2a8d7e41d55e5351469e6381565b7fd8aa0f3194971a2a116679f7c2090f6939c8d4e01a2a8d7e41d55e5351469e636108ce815f610e77565b6108e4576108e3816108de611396565b61139d565b5b5f6108f3888888888888610c56565b90506108ff81856113ee565b61090b888888886114a1565b5f817fc2617efa69bab66782fa219543714338489c4e9e178271560a91b82c3f612b588a8a8a8a60405161094294939291906124c7565b60405180910390a361095381611522565b5050505050505050565b5f6002600381111561097257610971611eb9565b5b61097b83610c0a565b600381111561098d5761098c611eb9565b5b149050919050565b5f63150b7a0260e01b9050949350505050565b5f805f8381526020019081526020015f20600101549050919050565b5f6003808111156109d8576109d7611eb9565b5b6109e183610c0a565b60038111156109f3576109f2611eb9565b5b149050919050565b610a04826109a8565b610a0d8161123c565b610a178383611590565b50505050565b5f806003811115610a3157610a30611eb9565b5b610a3a83610c0a565b6003811115610a4c57610a4b611eb9565b5b14159050919050565b610a5d611396565b73ffffffffffffffffffffffffffffffffffffffff168173ffffffffffffffffffffffffffffffffffffffff1614610ac1576040517f6697b23200000000000000000000000000000000000000000000000000000000815260040160405180910390fd5b610acb8282611679565b505050565b5f80610adb83610c0a565b905060016003811115610af157610af0611eb9565b5b816003811115610b0457610b03611eb9565b5b1480610b34575060026003811115610b1f57610b1e611eb9565b5b816003811115610b3257610b31611eb9565b5b145b915050919050565b5f610b45611396565b90503073ffffffffffffffffffffffffffffffffffffffff168173ffffffffffffffffffffffffffffffffffffffff1614610bb757806040517fe2850c59000000000000000000000000000000000000000000000000000000008152600401610bae9190612505565b60405180910390fd5b7f11c24f4ead16507c69ac467fbd5e4eed5fb5c699626d2cc6d66421df253886d560025483604051610bea92919061251e565b60405180910390a1816002819055505050565b6201518081565b5f801b81565b5f80610c158361102b565b90505f8103610c27575f915050610c51565b60018103610c39576003915050610c51565b42811115610c4b576001915050610c51565b60029150505b919050565b5f868686868686604051602001610c7296959493929190612545565b6040516020818303038152906040528051906020012090509695505050505050565b7fb09aa5aeb3702cfd50b6b62bc4532604938f21248a27a1d5ca736082b6819cc1610cbe8161123c565b878790508a8a9050141580610cd95750858590508a8a905014155b15610d28578989905086869050898990506040517fffb03211000000000000000000000000000000000000000000000000000000008152600401610d1f9392919061259f565b60405180910390fd5b5f610d398b8b8b8b8b8b8b8b610f04565b9050610d458184611250565b5f5b8b8b9050811015610e035780827f4cf4410cc57040e44862ef0f45f3dd5a5e02db8eb8add648d4b0e236f1d07dca8e8e85818110610d8857610d876125d4565b5b9050602002016020810190610d9d9190612601565b8d8d86818110610db057610daf6125d4565b5b905060200201358c8c87818110610dca57610dc96125d4565b5b9050602002810190610ddc9190612638565b8c8b604051610df09695949392919061246d565b60405180910390a3806001019050610d47565b505f801b8414610e4657807f20fda5fd27a1ea7bf5b9567f143ac5470bb059374a27e8f67cb44f946f6d038785604051610e3d9190611b6e565b60405180910390a25b5050505050505050505050565b7fb09aa5aeb3702cfd50b6b62bc4532604938f21248a27a1d5ca736082b6819cc181565b5f805f8481526020019081526020015f205f015f8373ffffffffffffffffffffffffffffffffffffffff1673ffffffffffffffffffffffffffffffffffffffff1681526020019081526020015f205f9054906101000a900460ff16905092915050565b5f801b81565b7ffd643c72710c63c0180259aba6b2d05451e3591a24e58b62239378085726f78381565b5f8888888888888888604051602001610f24989796959493929190612926565b60405160208183030381529060405280519060200120905098975050505050505050565b5f63bc197c8160e01b905095945050505050565b7ffd643c72710c63c0180259aba6b2d05451e3591a24e58b62239378085726f783610f868161123c565b610f8f82610ad0565b610fe65781610f9e6002611762565b610fa86001611762565b176040517f5ead8eb5000000000000000000000000000000000000000000000000000000008152600401610fdd929190612992565b60405180910390fd5b60015f8381526020019081526020015f205f9055817fbaa1eb22f2a492ba1a5fea61b8df4d27c6c8b5f3971e63bb58fa14ff72eedb7060405160405180910390a25050565b5f60015f8381526020019081526020015f20549050919050565b61104e826109a8565b6110578161123c565b6110618383611679565b50505050565b7fd8aa0f3194971a2a116679f7c2090f6939c8d4e01a2a8d7e41d55e5351469e63611092815f610e77565b6110a8576110a7816110a2611396565b61139d565b5b86869050898990501415806110c35750848490508989905014155b15611112578888905085859050888890506040517fffb032110000000000000000000000000000000000000000000000000000000081526004016111099392919061259f565b60405180910390fd5b5f6111238a8a8a8a8a8a8a8a610f04565b905061112f81856113ee565b5f5b8a8a9050811015611209575f8b8b838181106111505761114f6125d4565b5b90506020020160208101906111659190612601565b90505f8a8a8481811061117b5761117a6125d4565b5b905060200201359050365f8a8a86818110611199576111986125d4565b5b90506020028101906111ab9190612638565b915091506111bb848484846114a1565b84867fc2617efa69bab66782fa219543714338489c4e9e178271560a91b82c3f612b58868686866040516111f294939291906124c7565b60405180910390a350505050806001019050611131565b5061121381611522565b50505050505050505050565b5f63f23a6e6160e01b905095945050505050565b5f600254905090565b61124d81611248611396565b61139d565b50565b61125982610a1d565b156112a557816112685f611762565b6040517f5ead8eb500000000000000000000000000000000000000000000000000000000815260040161129c929190612992565b60405180910390fd5b5f6112ae611233565b9050808210156112f75781816040517f543366090000000000000000000000000000000000000000000000000000000081526004016112ee92919061251e565b60405180910390fd5b814261130391906129e6565b60015f8581526020019081526020015f2081905550505050565b5f7f4e2312e0000000000000000000000000000000000000000000000000000000007bffffffffffffffffffffffffffffffffffffffffffffffffffffffff1916827bffffffffffffffffffffffffffffffffffffffffffffffffffffffff1916148061138f575061138e82611786565b5b9050919050565b5f33905090565b6113a78282610e77565b6113ea5780826040517fe2517d3f0000000000000000000000000000000000000000000000000000000081526004016113e1929190612a19565b60405180910390fd5b5050565b6113f78261095d565b61144357816114066002611762565b6040517f5ead8eb500000000000000000000000000000000000000000000000000000000815260040161143a929190612992565b60405180910390fd5b5f801b811415801561145b5750611459816109c4565b155b1561149d57806040517f90a9a6180000000000000000000000000000000000000000000000000000000081526004016114949190611b6e565b60405180910390fd5b5050565b5f808573ffffffffffffffffffffffffffffffffffffffff168585856040516114cb929190612a6e565b5f6040518083038185875af1925050503d805f8114611505576040519150601f19603f3d011682016040523d82523d5f602084013e61150a565b606091505b509150915061151982826117ff565b50505050505050565b61152b8161095d565b611577578061153a6002611762565b6040517f5ead8eb500000000000000000000000000000000000000000000000000000000815260040161156e929190612992565b60405180910390fd5b6001805f8381526020019081526020015f208190555050565b5f61159b8383610e77565b61166f5760015f808581526020019081526020015f205f015f8473ffffffffffffffffffffffffffffffffffffffff1673ffffffffffffffffffffffffffffffffffffffff1681526020019081526020015f205f6101000a81548160ff02191690831515021790555061160c611396565b73ffffffffffffffffffffffffffffffffffffffff168273ffffffffffffffffffffffffffffffffffffffff16847f2f8788117e7eff1d82e926ec794901d17c78024a50270940304540a733656f0d60405160405180910390a460019050611673565b5f90505b92915050565b5f6116848383610e77565b15611758575f805f8581526020019081526020015f205f015f8473ffffffffffffffffffffffffffffffffffffffff1673ffffffffffffffffffffffffffffffffffffffff1681526020019081526020015f205f6101000a81548160ff0219169083151502179055506116f5611396565b73ffffffffffffffffffffffffffffffffffffffff168273ffffffffffffffffffffffffffffffffffffffff16847ff6391f5c32d9c69d2a47ea670b442974b53935d1edc7fd64eb21e047a839171b60405160405180910390a46001905061175c565b5f90505b92915050565b5f81600381111561177657611775611eb9565b5b60ff166001901b5f1b9050919050565b5f7f7965db0b000000000000000000000000000000000000000000000000000000007bffffffffffffffffffffffffffffffffffffffffffffffffffffffff1916827bffffffffffffffffffffffffffffffffffffffffffffffffffffffff191614806117f857506117f782611823565b5b9050919050565b6060826118145761180f8261188c565b61181c565b81905061181d565b5b92915050565b5f7f01ffc9a7000000000000000000000000000000000000000000000000000000007bffffffffffffffffffffffffffffffffffffffffffffffffffffffff1916827bffffffffffffffffffffffffffffffffffffffffffffffffffffffff1916149050919050565b5f8151111561189e5780518082602001fd5b6040517f1425ea4200000000000000000000000000000000000000000000000000000000815260040160405180910390fd5b5f604051905090565b5f80fd5b5f80fd5b5f73ffffffffffffffffffffffffffffffffffffffff82169050919050565b5f61190a826118e1565b9050919050565b61191a81611900565b8114611924575f80fd5b50565b5f8135905061193581611911565b92915050565b5f819050919050565b61194d8161193b565b8114611957575f80fd5b50565b5f8135905061196881611944565b92915050565b5f80fd5b5f80fd5b5f80fd5b5f8083601f84011261198f5761198e61196e565b5b8235905067ffffffffffffffff8111156119ac576119ab611972565b5b6020830191508360018202830111156119c8576119c7611976565b5b9250929050565b5f819050919050565b6119e1816119cf565b81146119eb575f80fd5b50565b5f813590506119fc816119d8565b92915050565b5f805f805f805f60c0888a031215611a1d57611a1c6118d9565b5b5f611a2a8a828b01611927565b9750506020611a3b8a828b0161195a565b965050604088013567ffffffffffffffff811115611a5c57611a5b6118dd565b5b611a688a828b0161197a565b95509550506060611a7b8a828b016119ee565b9350506080611a8c8a828b016119ee565b92505060a0611a9d8a828b0161195a565b91505092959891949750929550565b5f7fffffffff0000000000000000000000000000000000000000000000000000000082169050919050565b611ae081611aac565b8114611aea575f80fd5b50565b5f81359050611afb81611ad7565b92915050565b5f60208284031215611b1657611b156118d9565b5b5f611b2384828501611aed565b91505092915050565b5f8115159050919050565b611b4081611b2c565b82525050565b5f602082019050611b595f830184611b37565b92915050565b611b68816119cf565b82525050565b5f602082019050611b815f830184611b5f565b92915050565b5f805f805f8060a08789031215611ba157611ba06118d9565b5b5f611bae89828a01611927565b9650506020611bbf89828a0161195a565b955050604087013567ffffffffffffffff811115611be057611bdf6118dd565b5b611bec89828a0161197a565b94509450506060611bff89828a016119ee565b9250506080611c1089828a016119ee565b9150509295509295509295565b5f60208284031215611c3257611c316118d9565b5b5f611c3f848285016119ee565b91505092915050565b5f80fd5b5f601f19601f8301169050919050565b7f4e487b71000000000000000000000000000000000000000000000000000000005f52604160045260245ffd5b611c9282611c4c565b810181811067ffffffffffffffff82111715611cb157611cb0611c5c565b5b80604052505050565b5f611cc36118d0565b9050611ccf8282611c89565b919050565b5f67ffffffffffffffff821115611cee57611ced611c5c565b5b611cf782611c4c565b9050602081019050919050565b828183375f83830152505050565b5f611d24611d1f84611cd4565b611cba565b905082815260208101848484011115611d4057611d3f611c48565b5b611d4b848285611d04565b509392505050565b5f82601f830112611d6757611d6661196e565b5b8135611d77848260208601611d12565b91505092915050565b5f805f8060808587031215611d9857611d976118d9565b5b5f611da587828801611927565b9450506020611db687828801611927565b9350506040611dc78782880161195a565b925050606085013567ffffffffffffffff811115611de857611de76118dd565b5b611df487828801611d53565b91505092959194509250565b611e0981611aac565b82525050565b5f602082019050611e225f830184611e00565b92915050565b5f8060408385031215611e3e57611e3d6118d9565b5b5f611e4b858286016119ee565b9250506020611e5c85828601611927565b9150509250929050565b5f60208284031215611e7b57611e7a6118d9565b5b5f611e888482850161195a565b91505092915050565b611e9a8161193b565b82525050565b5f602082019050611eb35f830184611e91565b92915050565b7f4e487b71000000000000000000000000000000000000000000000000000000005f52602160045260245ffd5b60048110611ef757611ef6611eb9565b5b50565b5f819050611f0782611ee6565b919050565b5f611f1682611efa565b9050919050565b611f2681611f0c565b82525050565b5f602082019050611f3f5f830184611f1d565b92915050565b5f8083601f840112611f5a57611f5961196e565b5b8235905067ffffffffffffffff811115611f7757611f76611972565b5b602083019150836020820283011115611f9357611f92611976565b5b9250929050565b5f8083601f840112611faf57611fae61196e565b5b8235905067ffffffffffffffff811115611fcc57611fcb611972565b5b602083019150836020820283011115611fe857611fe7611976565b5b9250929050565b5f8083601f8401126120045761200361196e565b5b8235905067ffffffffffffffff81111561202157612020611972565b5b60208301915083602082028301111561203d5761203c611976565b5b9250929050565b5f805f805f805f805f60c08a8c031215612061576120606118d9565b5b5f8a013567ffffffffffffffff81111561207e5761207d6118dd565b5b61208a8c828d01611f45565b995099505060208a013567ffffffffffffffff8111156120ad576120ac6118dd565b5b6120b98c828d01611f9a565b975097505060408a013567ffffffffffffffff8111156120dc576120db6118dd565b5b6120e88c828d01611fef565b955095505060606120fb8c828d016119ee565b935050608061210c8c828d016119ee565b92505060a061211d8c828d0161195a565b9150509295985092959850929598565b5f805f805f805f8060a0898b031215612149576121486118d9565b5b5f89013567ffffffffffffffff811115612166576121656118dd565b5b6121728b828c01611f45565b9850985050602089013567ffffffffffffffff811115612195576121946118dd565b5b6121a18b828c01611f9a565b9650965050604089013567ffffffffffffffff8111156121c4576121c36118dd565b5b6121d08b828c01611fef565b945094505060606121e38b828c016119ee565b92505060806121f48b828c016119ee565b9150509295985092959890939650565b5f67ffffffffffffffff82111561221e5761221d611c5c565b5b602082029050602081019050919050565b5f61224161223c84612204565b611cba565b9050808382526020820190506020840283018581111561226457612263611976565b5b835b8181101561228d5780612279888261195a565b845260208401935050602081019050612266565b5050509392505050565b5f82601f8301126122ab576122aa61196e565b5b81356122bb84826020860161222f565b91505092915050565b5f805f805f60a086880312156122dd576122dc6118d9565b5b5f6122ea88828901611927565b95505060206122fb88828901611927565b945050604086013567ffffffffffffffff81111561231c5761231b6118dd565b5b61232888828901612297565b935050606086013567ffffffffffffffff811115612349576123486118dd565b5b61235588828901612297565b925050608086013567ffffffffffffffff811115612376576123756118dd565b5b61238288828901611d53565b9150509295509295909350565b5f805f805f60a086880312156123a8576123a76118d9565b5b5f6123b588828901611927565b95505060206123c688828901611927565b94505060406123d78882890161195a565b93505060606123e88882890161195a565b925050608086013567ffffffffffffffff811115612409576124086118dd565b5b61241588828901611d53565b9150509295509295909350565b61242b81611900565b82525050565b5f82825260208201905092915050565b5f61244c8385612431565b9350612459838584611d04565b61246283611c4c565b840190509392505050565b5f60a0820190506124805f830189612422565b61248d6020830188611e91565b81810360408301526124a0818688612441565b90506124af6060830185611b5f565b6124bc6080830184611e91565b979650505050505050565b5f6060820190506124da5f830187612422565b6124e76020830186611e91565b81810360408301526124fa818486612441565b905095945050505050565b5f6020820190506125185f830184612422565b92915050565b5f6040820190506125315f830185611e91565b61253e6020830184611e91565b9392505050565b5f60a0820190506125585f830189612422565b6125656020830188611e91565b8181036040830152612578818688612441565b90506125876060830185611b5f565b6125946080830184611b5f565b979650505050505050565b5f6060820190506125b25f830186611e91565b6125bf6020830185611e91565b6125cc6040830184611e91565b949350505050565b7f4e487b71000000000000000000000000000000000000000000000000000000005f52603260045260245ffd5b5f60208284031215612616576126156118d9565b5b5f61262384828501611927565b91505092915050565b5f80fd5b5f80fd5b5f80fd5b5f80833560016020038436030381126126545761265361262c565b5b80840192508235915067ffffffffffffffff82111561267657612675612630565b5b60208301925060018202360383131561269257612691612634565b5b509250929050565b5f82825260208201905092915050565b5f819050919050565b6126bc81611900565b82525050565b5f6126cd83836126b3565b60208301905092915050565b5f6126e76020840184611927565b905092915050565b5f602082019050919050565b5f612706838561269a565b9350612711826126aa565b805f5b858110156127495761272682846126d9565b61273088826126c2565b975061273b836126ef565b925050600181019050612714565b5085925050509392505050565b5f82825260208201905092915050565b5f80fd5b82818337505050565b5f61277e8385612756565b93507f07ffffffffffffffffffffffffffffffffffffffffffffffffffffffffffffff8311156127b1576127b0612766565b5b6020830292506127c283858461276a565b82840190509392505050565b5f82825260208201905092915050565b5f819050919050565b5f82825260208201905092915050565b5f61280283856127e7565b935061280f838584611d04565b61281883611c4c565b840190509392505050565b5f61282f8484846127f7565b90509392505050565b5f80fd5b5f80fd5b5f80fd5b5f80833560016020038436030381126128605761285f612840565b5b83810192508235915060208301925067ffffffffffffffff82111561288857612887612838565b5b60018202360383131561289e5761289d61283c565b5b509250929050565b5f602082019050919050565b5f6128bd83856127ce565b9350836020840285016128cf846127de565b805f5b878110156129145784840389526128e98284612844565b6128f4868284612823565b95506128ff846128a6565b935060208b019a5050506001810190506128d2565b50829750879450505050509392505050565b5f60a0820190508181035f83015261293f818a8c6126fb565b9050818103602083015261295481888a612773565b905081810360408301526129698186886128b2565b90506129786060830185611b5f565b6129856080830184611b5f565b9998505050505050505050565b5f6040820190506129a55f830185611b5f565b6129b26020830184611b5f565b9392505050565b7f4e487b71000000000000000000000000000000000000000000000000000000005f52601160045260245ffd5b5f6129f08261193b565b91506129fb8361193b565b9250828201905080821115612a1357612a126129b9565b5b92915050565b5f604082019050612a2c5f830185612422565b612a396020830184611b5f565b9392505050565b5f81905092915050565b5f612a558385612a40565b9350612a62838584611d04565b82840190509392505050565b5f612a7a828486612a4a565b9150819050939250505056fea2646970667358221220cd883232cd678badcaf7ba870f0d5b8614c97a58b7202151e7a4b6518989687464736f6c63430008180033","opcodes":"PUSH1 0x80 PUSH1 0x40 MSTORE CALLVALUE DUP1 ISZERO PUSH3 0x10 JUMPI PUSH0 DUP1 REVERT JUMPDEST POP PUSH1 0x40 MLOAD PUSH3 0x316D CODESIZE SUB DUP1 PUSH3 0x316D DUP4 CODECOPY DUP2 DUP2 ADD PUSH1 0x40 MSTORE DUP2 ADD SWAP1 PUSH3 0x36 SWAP2 SWAP1 PUSH3 0x550 JUMP JUMPDEST PUSH3 0x15180 DUP4 DUP4 DUP4 PUSH3 0x51 PUSH0 DUP1 SHL ADDRESS PUSH3 0x20D PUSH1 0x20 SHL PUSH1 0x20 SHR JUMP JUMPDEST POP PUSH0 PUSH20 0xFFFFFFFFFFFFFFFFFFFFFFFFFFFFFFFFFFFFFFFF AND DUP2 PUSH20 0xFFFFFFFFFFFFFFFFFFFFFFFFFFFFFFFFFFFFFFFF AND EQ PUSH3 0x9C JUMPI PUSH3 0x9A PUSH0 DUP1 SHL DUP3 PUSH3 0x20D PUSH1 0x20 SHL PUSH1 0x20 SHR JUMP JUMPDEST POP JUMPDEST PUSH0 JUMPDEST DUP4 MLOAD DUP2 LT ISZERO PUSH3 0x154 JUMPI PUSH3 0xF7 PUSH32 0xB09AA5AEB3702CFD50B6B62BC4532604938F21248A27A1D5CA736082B6819CC1 DUP6 DUP4 DUP2 MLOAD DUP2 LT PUSH3 0xE3 JUMPI PUSH3 0xE2 PUSH3 0x5E7 JUMP JUMPDEST JUMPDEST PUSH1 0x20 MUL PUSH1 0x20 ADD ADD MLOAD PUSH3 0x20D PUSH1 0x20 SHL PUSH1 0x20 SHR JUMP JUMPDEST POP PUSH3 0x147 PUSH32 0xFD643C72710C63C0180259ABA6B2D05451E3591A24E58B62239378085726F783 DUP6 DUP4 DUP2 MLOAD DUP2 LT PUSH3 0x133 JUMPI PUSH3 0x132 PUSH3 0x5E7 JUMP JUMPDEST JUMPDEST PUSH1 0x20 MUL PUSH1 0x20 ADD ADD MLOAD PUSH3 0x20D PUSH1 0x20 SHL PUSH1 0x20 SHR JUMP JUMPDEST POP DUP1 PUSH1 0x1 ADD SWAP1 POP PUSH3 0x9E JUMP JUMPDEST POP PUSH0 JUMPDEST DUP3 MLOAD DUP2 LT ISZERO PUSH3 0x1BD JUMPI PUSH3 0x1B0 PUSH32 0xD8AA0F3194971A2A116679F7C2090F6939C8D4E01A2A8D7E41D55E5351469E63 DUP5 DUP4 DUP2 MLOAD DUP2 LT PUSH3 0x19C JUMPI PUSH3 0x19B PUSH3 0x5E7 JUMP JUMPDEST JUMPDEST PUSH1 0x20 MUL PUSH1 0x20 ADD ADD MLOAD PUSH3 0x20D PUSH1 0x20 SHL PUSH1 0x20 SHR JUMP JUMPDEST POP DUP1 PUSH1 0x1 ADD SWAP1 POP PUSH3 0x157 JUMP JUMPDEST POP DUP4 PUSH1 0x2 DUP2 SWAP1 SSTORE POP PUSH32 0x11C24F4EAD16507C69AC467FBD5E4EED5FB5C699626D2CC6D66421DF253886D5 PUSH0 DUP6 PUSH1 0x40 MLOAD PUSH3 0x1F8 SWAP3 SWAP2 SWAP1 PUSH3 0x678 JUMP JUMPDEST PUSH1 0x40 MLOAD DUP1 SWAP2 SUB SWAP1 LOG1 POP POP POP POP POP POP POP PUSH3 0x6A3 JUMP JUMPDEST PUSH0 PUSH3 0x220 DUP4 DUP4 PUSH3 0x308 PUSH1 0x20 SHL PUSH1 0x20 SHR JUMP JUMPDEST PUSH3 0x2FE JUMPI PUSH1 0x1 PUSH0 DUP1 DUP6 DUP2 MSTORE PUSH1 0x20 ADD SWAP1 DUP2 MSTORE PUSH1 0x20 ADD PUSH0 KECCAK256 PUSH0 ADD PUSH0 DUP5 PUSH20 0xFFFFFFFFFFFFFFFFFFFFFFFFFFFFFFFFFFFFFFFF AND PUSH20 0xFFFFFFFFFFFFFFFFFFFFFFFFFFFFFFFFFFFFFFFF AND DUP2 MSTORE PUSH1 0x20 ADD SWAP1 DUP2 MSTORE PUSH1 0x20 ADD PUSH0 KECCAK256 PUSH0 PUSH2 0x100 EXP DUP2 SLOAD DUP2 PUSH1 0xFF MUL NOT AND SWAP1 DUP4 ISZERO ISZERO MUL OR SWAP1 SSTORE POP PUSH3 0x29A PUSH3 0x36B PUSH1 0x20 SHL PUSH1 0x20 SHR JUMP JUMPDEST PUSH20 0xFFFFFFFFFFFFFFFFFFFFFFFFFFFFFFFFFFFFFFFF AND DUP3 PUSH20 0xFFFFFFFFFFFFFFFFFFFFFFFFFFFFFFFFFFFFFFFF AND DUP5 PUSH32 0x2F8788117E7EFF1D82E926EC794901D17C78024A50270940304540A733656F0D PUSH1 0x40 MLOAD PUSH1 0x40 MLOAD DUP1 SWAP2 SUB SWAP1 LOG4 PUSH1 0x1 SWAP1 POP PUSH3 0x302 JUMP JUMPDEST PUSH0 SWAP1 POP JUMPDEST SWAP3 SWAP2 POP POP JUMP JUMPDEST PUSH0 DUP1 PUSH0 DUP5 DUP2 MSTORE PUSH1 0x20 ADD SWAP1 DUP2 MSTORE PUSH1 0x20 ADD PUSH0 KECCAK256 PUSH0 ADD PUSH0 DUP4 PUSH20 0xFFFFFFFFFFFFFFFFFFFFFFFFFFFFFFFFFFFFFFFF AND PUSH20 0xFFFFFFFFFFFFFFFFFFFFFFFFFFFFFFFFFFFFFFFF AND DUP2 MSTORE PUSH1 0x20 ADD SWAP1 DUP2 MSTORE PUSH1 0x20 ADD PUSH0 KECCAK256 PUSH0 SWAP1 SLOAD SWAP1 PUSH2 0x100 EXP SWAP1 DIV PUSH1 0xFF AND SWAP1 POP SWAP3 SWAP2 POP POP JUMP JUMPDEST PUSH0 CALLER SWAP1 POP SWAP1 JUMP JUMPDEST PUSH0 PUSH1 0x40 MLOAD SWAP1 POP SWAP1 JUMP JUMPDEST PUSH0 DUP1 REVERT JUMPDEST PUSH0 DUP1 REVERT JUMPDEST PUSH0 DUP1 REVERT JUMPDEST PUSH0 PUSH1 0x1F NOT PUSH1 0x1F DUP4 ADD AND SWAP1 POP SWAP2 SWAP1 POP JUMP JUMPDEST PUSH32 0x4E487B7100000000000000000000000000000000000000000000000000000000 PUSH0 MSTORE PUSH1 0x41 PUSH1 0x4 MSTORE PUSH1 0x24 PUSH0 REVERT JUMPDEST PUSH3 0x3CF DUP3 PUSH3 0x387 JUMP JUMPDEST DUP2 ADD DUP2 DUP2 LT PUSH8 0xFFFFFFFFFFFFFFFF DUP3 GT OR ISZERO PUSH3 0x3F1 JUMPI PUSH3 0x3F0 PUSH3 0x397 JUMP JUMPDEST JUMPDEST DUP1 PUSH1 0x40 MSTORE POP POP POP JUMP JUMPDEST PUSH0 PUSH3 0x405 PUSH3 0x372 JUMP JUMPDEST SWAP1 POP PUSH3 0x413 DUP3 DUP3 PUSH3 0x3C4 JUMP JUMPDEST SWAP2 SWAP1 POP JUMP JUMPDEST PUSH0 PUSH8 0xFFFFFFFFFFFFFFFF DUP3 GT ISZERO PUSH3 0x435 JUMPI PUSH3 0x434 PUSH3 0x397 JUMP JUMPDEST JUMPDEST PUSH1 0x20 DUP3 MUL SWAP1 POP PUSH1 0x20 DUP2 ADD SWAP1 POP SWAP2 SWAP1 POP JUMP JUMPDEST PUSH0 DUP1 REVERT JUMPDEST PUSH0 PUSH20 0xFFFFFFFFFFFFFFFFFFFFFFFFFFFFFFFFFFFFFFFF DUP3 AND SWAP1 POP SWAP2 SWAP1 POP JUMP JUMPDEST PUSH0 PUSH3 0x475 DUP3 PUSH3 0x44A JUMP JUMPDEST SWAP1 POP SWAP2 SWAP1 POP JUMP JUMPDEST PUSH3 0x487 DUP2 PUSH3 0x469 JUMP JUMPDEST DUP2 EQ PUSH3 0x492 JUMPI PUSH0 DUP1 REVERT JUMPDEST POP JUMP JUMPDEST PUSH0 DUP2 MLOAD SWAP1 POP PUSH3 0x4A5 DUP2 PUSH3 0x47C JUMP JUMPDEST SWAP3 SWAP2 POP POP JUMP JUMPDEST PUSH0 PUSH3 0x4C1 PUSH3 0x4BB DUP5 PUSH3 0x418 JUMP JUMPDEST PUSH3 0x3FA JUMP JUMPDEST SWAP1 POP DUP1 DUP4 DUP3 MSTORE PUSH1 0x20 DUP3 ADD SWAP1 POP PUSH1 0x20 DUP5 MUL DUP4 ADD DUP6 DUP2 GT ISZERO PUSH3 0x4E7 JUMPI PUSH3 0x4E6 PUSH3 0x446 JUMP JUMPDEST JUMPDEST DUP4 JUMPDEST DUP2 DUP2 LT ISZERO PUSH3 0x514 JUMPI DUP1 PUSH3 0x4FF DUP9 DUP3 PUSH3 0x495 JUMP JUMPDEST DUP5 MSTORE PUSH1 0x20 DUP5 ADD SWAP4 POP POP PUSH1 0x20 DUP2 ADD SWAP1 POP PUSH3 0x4E9 JUMP JUMPDEST POP POP POP SWAP4 SWAP3 POP POP POP JUMP JUMPDEST PUSH0 DUP3 PUSH1 0x1F DUP4 ADD SLT PUSH3 0x535 JUMPI PUSH3 0x534 PUSH3 0x383 JUMP JUMPDEST JUMPDEST DUP2 MLOAD PUSH3 0x547 DUP5 DUP3 PUSH1 0x20 DUP7 ADD PUSH3 0x4AB JUMP JUMPDEST SWAP2 POP POP SWAP3 SWAP2 POP POP JUMP JUMPDEST PUSH0 DUP1 PUSH0 PUSH1 0x60 DUP5 DUP7 SUB SLT ISZERO PUSH3 0x56A JUMPI PUSH3 0x569 PUSH3 0x37B JUMP JUMPDEST JUMPDEST PUSH0 DUP5 ADD MLOAD PUSH8 0xFFFFFFFFFFFFFFFF DUP2 GT ISZERO PUSH3 0x58A JUMPI PUSH3 0x589 PUSH3 0x37F JUMP JUMPDEST JUMPDEST PUSH3 0x598 DUP7 DUP3 DUP8 ADD PUSH3 0x51E JUMP JUMPDEST SWAP4 POP POP PUSH1 0x20 DUP5 ADD MLOAD PUSH8 0xFFFFFFFFFFFFFFFF DUP2 GT ISZERO PUSH3 0x5BC JUMPI PUSH3 0x5BB PUSH3 0x37F JUMP JUMPDEST JUMPDEST PUSH3 0x5CA DUP7 DUP3 DUP8 ADD PUSH3 0x51E JUMP JUMPDEST SWAP3 POP POP PUSH1 0x40 PUSH3 0x5DD DUP7 DUP3 DUP8 ADD PUSH3 0x495 JUMP JUMPDEST SWAP2 POP POP SWAP3 POP SWAP3 POP SWAP3 JUMP JUMPDEST PUSH32 0x4E487B7100000000000000000000000000000000000000000000000000000000 PUSH0 MSTORE PUSH1 0x32 PUSH1 0x4 MSTORE PUSH1 0x24 PUSH0 REVERT JUMPDEST PUSH0 DUP2 SWAP1 POP SWAP2 SWAP1 POP JUMP JUMPDEST PUSH0 DUP2 SWAP1 POP SWAP2 SWAP1 POP JUMP JUMPDEST PUSH0 DUP2 SWAP1 POP SWAP2 SWAP1 POP JUMP JUMPDEST PUSH0 PUSH3 0x64F PUSH3 0x649 PUSH3 0x643 DUP5 PUSH3 0x614 JUMP JUMPDEST PUSH3 0x626 JUMP JUMPDEST PUSH3 0x61D JUMP JUMPDEST SWAP1 POP SWAP2 SWAP1 POP JUMP JUMPDEST PUSH3 0x661 DUP2 PUSH3 0x62F JUMP JUMPDEST DUP3 MSTORE POP POP JUMP JUMPDEST PUSH3 0x672 DUP2 PUSH3 0x61D JUMP JUMPDEST DUP3 MSTORE POP POP JUMP JUMPDEST PUSH0 PUSH1 0x40 DUP3 ADD SWAP1 POP PUSH3 0x68D PUSH0 DUP4 ADD DUP6 PUSH3 0x656 JUMP JUMPDEST PUSH3 0x69C PUSH1 0x20 DUP4 ADD DUP5 PUSH3 0x667 JUMP JUMPDEST SWAP4 SWAP3 POP POP POP JUMP JUMPDEST PUSH2 0x2ABC DUP1 PUSH3 0x6B1 PUSH0 CODECOPY PUSH0 RETURN INVALID PUSH1 0x80 PUSH1 0x40 MSTORE PUSH1 0x4 CALLDATASIZE LT PUSH2 0x1D0 JUMPI PUSH0 CALLDATALOAD PUSH1 0xE0 SHR DUP1 PUSH4 0x7958004C GT PUSH2 0xF6 JUMPI DUP1 PUSH4 0xB1C5F427 GT PUSH2 0x94 JUMPI DUP1 PUSH4 0xD547741F GT PUSH2 0x63 JUMPI DUP1 PUSH4 0xD547741F EQ PUSH2 0x6EF JUMPI DUP1 PUSH4 0xE38335E5 EQ PUSH2 0x717 JUMPI DUP1 PUSH4 0xF23A6E61 EQ PUSH2 0x733 JUMPI DUP1 PUSH4 0xF27A0C92 EQ PUSH2 0x76F JUMPI PUSH2 0x1D7 JUMP JUMPDEST DUP1 PUSH4 0xB1C5F427 EQ PUSH2 0x613 JUMPI DUP1 PUSH4 0xBC197C81 EQ PUSH2 0x64F JUMPI DUP1 PUSH4 0xC4D252F5 EQ PUSH2 0x68B JUMPI DUP1 PUSH4 0xD45C4435 EQ PUSH2 0x6B3 JUMPI PUSH2 0x1D7 JUMP JUMPDEST DUP1 PUSH4 0x8F61F4F5 GT PUSH2 0xD0 JUMPI DUP1 PUSH4 0x8F61F4F5 EQ PUSH2 0x559 JUMPI DUP1 PUSH4 0x91D14854 EQ PUSH2 0x583 JUMPI DUP1 PUSH4 0xA217FDDF EQ PUSH2 0x5BF JUMPI DUP1 PUSH4 0xB08E51C0 EQ PUSH2 0x5E9 JUMPI PUSH2 0x1D7 JUMP JUMPDEST DUP1 PUSH4 0x7958004C EQ PUSH2 0x4B9 JUMPI DUP1 PUSH4 0x8065657F EQ PUSH2 0x4F5 JUMPI DUP1 PUSH4 0x8F2A0BB0 EQ PUSH2 0x531 JUMPI PUSH2 0x1D7 JUMP JUMPDEST DUP1 PUSH4 0x2AB0F529 GT PUSH2 0x16E JUMPI DUP1 PUSH4 0x584B153E GT PUSH2 0x13D JUMPI DUP1 PUSH4 0x584B153E EQ PUSH2 0x401 JUMPI DUP1 PUSH4 0x64D62353 EQ PUSH2 0x43D JUMPI DUP1 PUSH4 0x69B41170 EQ PUSH2 0x465 JUMPI DUP1 PUSH4 0x75B238FC EQ PUSH2 0x48F JUMPI PUSH2 0x1D7 JUMP JUMPDEST DUP1 PUSH4 0x2AB0F529 EQ PUSH2 0x339 JUMPI DUP1 PUSH4 0x2F2FF15D EQ PUSH2 0x375 JUMPI DUP1 PUSH4 0x31D50750 EQ PUSH2 0x39D JUMPI DUP1 PUSH4 0x36568ABE EQ PUSH2 0x3D9 JUMPI PUSH2 0x1D7 JUMP JUMPDEST DUP1 PUSH4 0x134008D3 GT PUSH2 0x1AA JUMPI DUP1 PUSH4 0x134008D3 EQ PUSH2 0x269 JUMPI DUP1 PUSH4 0x13BC9F20 EQ PUSH2 0x285 JUMPI DUP1 PUSH4 0x150B7A02 EQ PUSH2 0x2C1 JUMPI DUP1 PUSH4 0x248A9CA3 EQ PUSH2 0x2FD JUMPI PUSH2 0x1D7 JUMP JUMPDEST DUP1 PUSH4 0x1D5062A EQ PUSH2 0x1DB JUMPI DUP1 PUSH4 0x1FFC9A7 EQ PUSH2 0x203 JUMPI DUP1 PUSH4 0x7BD0265 EQ PUSH2 0x23F JUMPI PUSH2 0x1D7 JUMP JUMPDEST CALLDATASIZE PUSH2 0x1D7 JUMPI STOP JUMPDEST PUSH0 DUP1 REVERT JUMPDEST CALLVALUE DUP1 ISZERO PUSH2 0x1E6 JUMPI PUSH0 DUP1 REVERT JUMPDEST POP PUSH2 0x201 PUSH1 0x4 DUP1 CALLDATASIZE SUB DUP2 ADD SWAP1 PUSH2 0x1FC SWAP2 SWAP1 PUSH2 0x1A02 JUMP JUMPDEST PUSH2 0x799 JUMP JUMPDEST STOP JUMPDEST CALLVALUE DUP1 ISZERO PUSH2 0x20E JUMPI PUSH0 DUP1 REVERT JUMPDEST POP PUSH2 0x229 PUSH1 0x4 DUP1 CALLDATASIZE SUB DUP2 ADD SWAP1 PUSH2 0x224 SWAP2 SWAP1 PUSH2 0x1B01 JUMP JUMPDEST PUSH2 0x86E JUMP JUMPDEST PUSH1 0x40 MLOAD PUSH2 0x236 SWAP2 SWAP1 PUSH2 0x1B46 JUMP JUMPDEST PUSH1 0x40 MLOAD DUP1 SWAP2 SUB SWAP1 RETURN JUMPDEST CALLVALUE DUP1 ISZERO PUSH2 0x24A JUMPI PUSH0 DUP1 REVERT JUMPDEST POP PUSH2 0x253 PUSH2 0x87F JUMP JUMPDEST PUSH1 0x40 MLOAD PUSH2 0x260 SWAP2 SWAP1 PUSH2 0x1B6E JUMP JUMPDEST PUSH1 0x40 MLOAD DUP1 SWAP2 SUB SWAP1 RETURN JUMPDEST PUSH2 0x283 PUSH1 0x4 DUP1 CALLDATASIZE SUB DUP2 ADD SWAP1 PUSH2 0x27E SWAP2 SWAP1 PUSH2 0x1B87 JUMP JUMPDEST PUSH2 0x8A3 JUMP JUMPDEST STOP JUMPDEST CALLVALUE DUP1 ISZERO PUSH2 0x290 JUMPI PUSH0 DUP1 REVERT JUMPDEST POP PUSH2 0x2AB PUSH1 0x4 DUP1 CALLDATASIZE SUB DUP2 ADD SWAP1 PUSH2 0x2A6 SWAP2 SWAP1 PUSH2 0x1C1D JUMP JUMPDEST PUSH2 0x95D JUMP JUMPDEST PUSH1 0x40 MLOAD PUSH2 0x2B8 SWAP2 SWAP1 PUSH2 0x1B46 JUMP JUMPDEST PUSH1 0x40 MLOAD DUP1 SWAP2 SUB SWAP1 RETURN JUMPDEST CALLVALUE DUP1 ISZERO PUSH2 0x2CC JUMPI PUSH0 DUP1 REVERT JUMPDEST POP PUSH2 0x2E7 PUSH1 0x4 DUP1 CALLDATASIZE SUB DUP2 ADD SWAP1 PUSH2 0x2E2 SWAP2 SWAP1 PUSH2 0x1D80 JUMP JUMPDEST PUSH2 0x995 JUMP JUMPDEST PUSH1 0x40 MLOAD PUSH2 0x2F4 SWAP2 SWAP1 PUSH2 0x1E0F JUMP JUMPDEST PUSH1 0x40 MLOAD DUP1 SWAP2 SUB SWAP1 RETURN JUMPDEST CALLVALUE DUP1 ISZERO PUSH2 0x308 JUMPI PUSH0 DUP1 REVERT JUMPDEST POP PUSH2 0x323 PUSH1 0x4 DUP1 CALLDATASIZE SUB DUP2 ADD SWAP1 PUSH2 0x31E SWAP2 SWAP1 PUSH2 0x1C1D JUMP JUMPDEST PUSH2 0x9A8 JUMP JUMPDEST PUSH1 0x40 MLOAD PUSH2 0x330 SWAP2 SWAP1 PUSH2 0x1B6E JUMP JUMPDEST PUSH1 0x40 MLOAD DUP1 SWAP2 SUB SWAP1 RETURN JUMPDEST CALLVALUE DUP1 ISZERO PUSH2 0x344 JUMPI PUSH0 DUP1 REVERT JUMPDEST POP PUSH2 0x35F PUSH1 0x4 DUP1 CALLDATASIZE SUB DUP2 ADD SWAP1 PUSH2 0x35A SWAP2 SWAP1 PUSH2 0x1C1D JUMP JUMPDEST PUSH2 0x9C4 JUMP JUMPDEST PUSH1 0x40 MLOAD PUSH2 0x36C SWAP2 SWAP1 PUSH2 0x1B46 JUMP JUMPDEST PUSH1 0x40 MLOAD DUP1 SWAP2 SUB SWAP1 RETURN JUMPDEST CALLVALUE DUP1 ISZERO PUSH2 0x380 JUMPI PUSH0 DUP1 REVERT JUMPDEST POP PUSH2 0x39B PUSH1 0x4 DUP1 CALLDATASIZE SUB DUP2 ADD SWAP1 PUSH2 0x396 SWAP2 SWAP1 PUSH2 0x1E28 JUMP JUMPDEST PUSH2 0x9FB JUMP JUMPDEST STOP JUMPDEST CALLVALUE DUP1 ISZERO PUSH2 0x3A8 JUMPI PUSH0 DUP1 REVERT JUMPDEST POP PUSH2 0x3C3 PUSH1 0x4 DUP1 CALLDATASIZE SUB DUP2 ADD SWAP1 PUSH2 0x3BE SWAP2 SWAP1 PUSH2 0x1C1D JUMP JUMPDEST PUSH2 0xA1D JUMP JUMPDEST PUSH1 0x40 MLOAD PUSH2 0x3D0 SWAP2 SWAP1 PUSH2 0x1B46 JUMP JUMPDEST PUSH1 0x40 MLOAD DUP1 SWAP2 SUB SWAP1 RETURN JUMPDEST CALLVALUE DUP1 ISZERO PUSH2 0x3E4 JUMPI PUSH0 DUP1 REVERT JUMPDEST POP PUSH2 0x3FF PUSH1 0x4 DUP1 CALLDATASIZE SUB DUP2 ADD SWAP1 PUSH2 0x3FA SWAP2 SWAP1 PUSH2 0x1E28 JUMP JUMPDEST PUSH2 0xA55 JUMP JUMPDEST STOP JUMPDEST CALLVALUE DUP1 ISZERO PUSH2 0x40C JUMPI PUSH0 DUP1 REVERT JUMPDEST POP PUSH2 0x427 PUSH1 0x4 DUP1 CALLDATASIZE SUB DUP2 ADD SWAP1 PUSH2 0x422 SWAP2 SWAP1 PUSH2 0x1C1D JUMP JUMPDEST PUSH2 0xAD0 JUMP JUMPDEST PUSH1 0x40 MLOAD PUSH2 0x434 SWAP2 SWAP1 PUSH2 0x1B46 JUMP JUMPDEST PUSH1 0x40 MLOAD DUP1 SWAP2 SUB SWAP1 RETURN JUMPDEST CALLVALUE DUP1 ISZERO PUSH2 0x448 JUMPI PUSH0 DUP1 REVERT JUMPDEST POP PUSH2 0x463 PUSH1 0x4 DUP1 CALLDATASIZE SUB DUP2 ADD SWAP1 PUSH2 0x45E SWAP2 SWAP1 PUSH2 0x1E66 JUMP JUMPDEST PUSH2 0xB3C JUMP JUMPDEST STOP JUMPDEST CALLVALUE DUP1 ISZERO PUSH2 0x470 JUMPI PUSH0 DUP1 REVERT JUMPDEST POP PUSH2 0x479 PUSH2 0xBFD JUMP JUMPDEST PUSH1 0x40 MLOAD PUSH2 0x486 SWAP2 SWAP1 PUSH2 0x1EA0 JUMP JUMPDEST PUSH1 0x40 MLOAD DUP1 SWAP2 SUB SWAP1 RETURN JUMPDEST CALLVALUE DUP1 ISZERO PUSH2 0x49A JUMPI PUSH0 DUP1 REVERT JUMPDEST POP PUSH2 0x4A3 PUSH2 0xC04 JUMP JUMPDEST PUSH1 0x40 MLOAD PUSH2 0x4B0 SWAP2 SWAP1 PUSH2 0x1B6E JUMP JUMPDEST PUSH1 0x40 MLOAD DUP1 SWAP2 SUB SWAP1 RETURN JUMPDEST CALLVALUE DUP1 ISZERO PUSH2 0x4C4 JUMPI PUSH0 DUP1 REVERT JUMPDEST POP PUSH2 0x4DF PUSH1 0x4 DUP1 CALLDATASIZE SUB DUP2 ADD SWAP1 PUSH2 0x4DA SWAP2 SWAP1 PUSH2 0x1C1D JUMP JUMPDEST PUSH2 0xC0A JUMP JUMPDEST PUSH1 0x40 MLOAD PUSH2 0x4EC SWAP2 SWAP1 PUSH2 0x1F2C JUMP JUMPDEST PUSH1 0x40 MLOAD DUP1 SWAP2 SUB SWAP1 RETURN JUMPDEST CALLVALUE DUP1 ISZERO PUSH2 0x500 JUMPI PUSH0 DUP1 REVERT JUMPDEST POP PUSH2 0x51B PUSH1 0x4 DUP1 CALLDATASIZE SUB DUP2 ADD SWAP1 PUSH2 0x516 SWAP2 SWAP1 PUSH2 0x1B87 JUMP JUMPDEST PUSH2 0xC56 JUMP JUMPDEST PUSH1 0x40 MLOAD PUSH2 0x528 SWAP2 SWAP1 PUSH2 0x1B6E JUMP JUMPDEST PUSH1 0x40 MLOAD DUP1 SWAP2 SUB SWAP1 RETURN JUMPDEST CALLVALUE DUP1 ISZERO PUSH2 0x53C JUMPI PUSH0 DUP1 REVERT JUMPDEST POP PUSH2 0x557 PUSH1 0x4 DUP1 CALLDATASIZE SUB DUP2 ADD SWAP1 PUSH2 0x552 SWAP2 SWAP1 PUSH2 0x2044 JUMP JUMPDEST PUSH2 0xC94 JUMP JUMPDEST STOP JUMPDEST CALLVALUE DUP1 ISZERO PUSH2 0x564 JUMPI PUSH0 DUP1 REVERT JUMPDEST POP PUSH2 0x56D PUSH2 0xE53 JUMP JUMPDEST PUSH1 0x40 MLOAD PUSH2 0x57A SWAP2 SWAP1 PUSH2 0x1B6E JUMP JUMPDEST PUSH1 0x40 MLOAD DUP1 SWAP2 SUB SWAP1 RETURN JUMPDEST CALLVALUE DUP1 ISZERO PUSH2 0x58E JUMPI PUSH0 DUP1 REVERT JUMPDEST POP PUSH2 0x5A9 PUSH1 0x4 DUP1 CALLDATASIZE SUB DUP2 ADD SWAP1 PUSH2 0x5A4 SWAP2 SWAP1 PUSH2 0x1E28 JUMP JUMPDEST PUSH2 0xE77 JUMP JUMPDEST PUSH1 0x40 MLOAD PUSH2 0x5B6 SWAP2 SWAP1 PUSH2 0x1B46 JUMP JUMPDEST PUSH1 0x40 MLOAD DUP1 SWAP2 SUB SWAP1 RETURN JUMPDEST CALLVALUE DUP1 ISZERO PUSH2 0x5CA JUMPI PUSH0 DUP1 REVERT JUMPDEST POP PUSH2 0x5D3 PUSH2 0xEDA JUMP JUMPDEST PUSH1 0x40 MLOAD PUSH2 0x5E0 SWAP2 SWAP1 PUSH2 0x1B6E JUMP JUMPDEST PUSH1 0x40 MLOAD DUP1 SWAP2 SUB SWAP1 RETURN JUMPDEST CALLVALUE DUP1 ISZERO PUSH2 0x5F4 JUMPI PUSH0 DUP1 REVERT JUMPDEST POP PUSH2 0x5FD PUSH2 0xEE0 JUMP JUMPDEST PUSH1 0x40 MLOAD PUSH2 0x60A SWAP2 SWAP1 PUSH2 0x1B6E JUMP JUMPDEST PUSH1 0x40 MLOAD DUP1 SWAP2 SUB SWAP1 RETURN JUMPDEST CALLVALUE DUP1 ISZERO PUSH2 0x61E JUMPI PUSH0 DUP1 REVERT JUMPDEST POP PUSH2 0x639 PUSH1 0x4 DUP1 CALLDATASIZE SUB DUP2 ADD SWAP1 PUSH2 0x634 SWAP2 SWAP1 PUSH2 0x212D JUMP JUMPDEST PUSH2 0xF04 JUMP JUMPDEST PUSH1 0x40 MLOAD PUSH2 0x646 SWAP2 SWAP1 PUSH2 0x1B6E JUMP JUMPDEST PUSH1 0x40 MLOAD DUP1 SWAP2 SUB SWAP1 RETURN JUMPDEST CALLVALUE DUP1 ISZERO PUSH2 0x65A JUMPI PUSH0 DUP1 REVERT JUMPDEST POP PUSH2 0x675 PUSH1 0x4 DUP1 CALLDATASIZE SUB DUP2 ADD SWAP1 PUSH2 0x670 SWAP2 SWAP1 PUSH2 0x22C4 JUMP JUMPDEST PUSH2 0xF48 JUMP JUMPDEST PUSH1 0x40 MLOAD PUSH2 0x682 SWAP2 SWAP1 PUSH2 0x1E0F JUMP JUMPDEST PUSH1 0x40 MLOAD DUP1 SWAP2 SUB SWAP1 RETURN JUMPDEST CALLVALUE DUP1 ISZERO PUSH2 0x696 JUMPI PUSH0 DUP1 REVERT JUMPDEST POP PUSH2 0x6B1 PUSH1 0x4 DUP1 CALLDATASIZE SUB DUP2 ADD SWAP1 PUSH2 0x6AC SWAP2 SWAP1 PUSH2 0x1C1D JUMP JUMPDEST PUSH2 0xF5C JUMP JUMPDEST STOP JUMPDEST CALLVALUE DUP1 ISZERO PUSH2 0x6BE JUMPI PUSH0 DUP1 REVERT JUMPDEST POP PUSH2 0x6D9 PUSH1 0x4 DUP1 CALLDATASIZE SUB DUP2 ADD SWAP1 PUSH2 0x6D4 SWAP2 SWAP1 PUSH2 0x1C1D JUMP JUMPDEST PUSH2 0x102B JUMP JUMPDEST PUSH1 0x40 MLOAD PUSH2 0x6E6 SWAP2 SWAP1 PUSH2 0x1EA0 JUMP JUMPDEST PUSH1 0x40 MLOAD DUP1 SWAP2 SUB SWAP1 RETURN JUMPDEST CALLVALUE DUP1 ISZERO PUSH2 0x6FA JUMPI PUSH0 DUP1 REVERT JUMPDEST POP PUSH2 0x715 PUSH1 0x4 DUP1 CALLDATASIZE SUB DUP2 ADD SWAP1 PUSH2 0x710 SWAP2 SWAP1 PUSH2 0x1E28 JUMP JUMPDEST PUSH2 0x1045 JUMP JUMPDEST STOP JUMPDEST PUSH2 0x731 PUSH1 0x4 DUP1 CALLDATASIZE SUB DUP2 ADD SWAP1 PUSH2 0x72C SWAP2 SWAP1 PUSH2 0x212D JUMP JUMPDEST PUSH2 0x1067 JUMP JUMPDEST STOP JUMPDEST CALLVALUE DUP1 ISZERO PUSH2 0x73E JUMPI PUSH0 DUP1 REVERT JUMPDEST POP PUSH2 0x759 PUSH1 0x4 DUP1 CALLDATASIZE SUB DUP2 ADD SWAP1 PUSH2 0x754 SWAP2 SWAP1 PUSH2 0x238F JUMP JUMPDEST PUSH2 0x121F JUMP JUMPDEST PUSH1 0x40 MLOAD PUSH2 0x766 SWAP2 SWAP1 PUSH2 0x1E0F JUMP JUMPDEST PUSH1 0x40 MLOAD DUP1 SWAP2 SUB SWAP1 RETURN JUMPDEST CALLVALUE DUP1 ISZERO PUSH2 0x77A JUMPI PUSH0 DUP1 REVERT JUMPDEST POP PUSH2 0x783 PUSH2 0x1233 JUMP JUMPDEST PUSH1 0x40 MLOAD PUSH2 0x790 SWAP2 SWAP1 PUSH2 0x1EA0 JUMP JUMPDEST PUSH1 0x40 MLOAD DUP1 SWAP2 SUB SWAP1 RETURN JUMPDEST PUSH32 0xB09AA5AEB3702CFD50B6B62BC4532604938F21248A27A1D5CA736082B6819CC1 PUSH2 0x7C3 DUP2 PUSH2 0x123C JUMP JUMPDEST PUSH0 PUSH2 0x7D2 DUP10 DUP10 DUP10 DUP10 DUP10 DUP10 PUSH2 0xC56 JUMP JUMPDEST SWAP1 POP PUSH2 0x7DE DUP2 DUP5 PUSH2 0x1250 JUMP JUMPDEST PUSH0 DUP2 PUSH32 0x4CF4410CC57040E44862EF0F45F3DD5A5E02DB8EB8ADD648D4B0E236F1D07DCA DUP12 DUP12 DUP12 DUP12 DUP12 DUP11 PUSH1 0x40 MLOAD PUSH2 0x819 SWAP7 SWAP6 SWAP5 SWAP4 SWAP3 SWAP2 SWAP1 PUSH2 0x246D JUMP JUMPDEST PUSH1 0x40 MLOAD DUP1 SWAP2 SUB SWAP1 LOG3 PUSH0 DUP1 SHL DUP5 EQ PUSH2 0x863 JUMPI DUP1 PUSH32 0x20FDA5FD27A1EA7BF5B9567F143AC5470BB059374A27E8F67CB44F946F6D0387 DUP6 PUSH1 0x40 MLOAD PUSH2 0x85A SWAP2 SWAP1 PUSH2 0x1B6E JUMP JUMPDEST PUSH1 0x40 MLOAD DUP1 SWAP2 SUB SWAP1 LOG2 JUMPDEST POP POP POP POP POP POP POP POP POP JUMP JUMPDEST PUSH0 PUSH2 0x878 DUP3 PUSH2 0x131D JUMP JUMPDEST SWAP1 POP SWAP2 SWAP1 POP JUMP JUMPDEST PUSH32 0xD8AA0F3194971A2A116679F7C2090F6939C8D4E01A2A8D7E41D55E5351469E63 DUP2 JUMP JUMPDEST PUSH32 0xD8AA0F3194971A2A116679F7C2090F6939C8D4E01A2A8D7E41D55E5351469E63 PUSH2 0x8CE DUP2 PUSH0 PUSH2 0xE77 JUMP JUMPDEST PUSH2 0x8E4 JUMPI PUSH2 0x8E3 DUP2 PUSH2 0x8DE PUSH2 0x1396 JUMP JUMPDEST PUSH2 0x139D JUMP JUMPDEST JUMPDEST PUSH0 PUSH2 0x8F3 DUP9 DUP9 DUP9 DUP9 DUP9 DUP9 PUSH2 0xC56 JUMP JUMPDEST SWAP1 POP PUSH2 0x8FF DUP2 DUP6 PUSH2 0x13EE JUMP JUMPDEST PUSH2 0x90B DUP9 DUP9 DUP9 DUP9 PUSH2 0x14A1 JUMP JUMPDEST PUSH0 DUP2 PUSH32 0xC2617EFA69BAB66782FA219543714338489C4E9E178271560A91B82C3F612B58 DUP11 DUP11 DUP11 DUP11 PUSH1 0x40 MLOAD PUSH2 0x942 SWAP5 SWAP4 SWAP3 SWAP2 SWAP1 PUSH2 0x24C7 JUMP JUMPDEST PUSH1 0x40 MLOAD DUP1 SWAP2 SUB SWAP1 LOG3 PUSH2 0x953 DUP2 PUSH2 0x1522 JUMP JUMPDEST POP POP POP POP POP POP POP POP JUMP JUMPDEST PUSH0 PUSH1 0x2 PUSH1 0x3 DUP2 GT ISZERO PUSH2 0x972 JUMPI PUSH2 0x971 PUSH2 0x1EB9 JUMP JUMPDEST JUMPDEST PUSH2 0x97B DUP4 PUSH2 0xC0A JUMP JUMPDEST PUSH1 0x3 DUP2 GT ISZERO PUSH2 0x98D JUMPI PUSH2 0x98C PUSH2 0x1EB9 JUMP JUMPDEST JUMPDEST EQ SWAP1 POP SWAP2 SWAP1 POP JUMP JUMPDEST PUSH0 PUSH4 0x150B7A02 PUSH1 0xE0 SHL SWAP1 POP SWAP5 SWAP4 POP POP POP POP JUMP JUMPDEST PUSH0 DUP1 PUSH0 DUP4 DUP2 MSTORE PUSH1 0x20 ADD SWAP1 DUP2 MSTORE PUSH1 0x20 ADD PUSH0 KECCAK256 PUSH1 0x1 ADD SLOAD SWAP1 POP SWAP2 SWAP1 POP JUMP JUMPDEST PUSH0 PUSH1 0x3 DUP1 DUP2 GT ISZERO PUSH2 0x9D8 JUMPI PUSH2 0x9D7 PUSH2 0x1EB9 JUMP JUMPDEST JUMPDEST PUSH2 0x9E1 DUP4 PUSH2 0xC0A JUMP JUMPDEST PUSH1 0x3 DUP2 GT ISZERO PUSH2 0x9F3 JUMPI PUSH2 0x9F2 PUSH2 0x1EB9 JUMP JUMPDEST JUMPDEST EQ SWAP1 POP SWAP2 SWAP1 POP JUMP JUMPDEST PUSH2 0xA04 DUP3 PUSH2 0x9A8 JUMP JUMPDEST PUSH2 0xA0D DUP2 PUSH2 0x123C JUMP JUMPDEST PUSH2 0xA17 DUP4 DUP4 PUSH2 0x1590 JUMP JUMPDEST POP POP POP POP JUMP JUMPDEST PUSH0 DUP1 PUSH1 0x3 DUP2 GT ISZERO PUSH2 0xA31 JUMPI PUSH2 0xA30 PUSH2 0x1EB9 JUMP JUMPDEST JUMPDEST PUSH2 0xA3A DUP4 PUSH2 0xC0A JUMP JUMPDEST PUSH1 0x3 DUP2 GT ISZERO PUSH2 0xA4C JUMPI PUSH2 0xA4B PUSH2 0x1EB9 JUMP JUMPDEST JUMPDEST EQ ISZERO SWAP1 POP SWAP2 SWAP1 POP JUMP JUMPDEST PUSH2 0xA5D PUSH2 0x1396 JUMP JUMPDEST PUSH20 0xFFFFFFFFFFFFFFFFFFFFFFFFFFFFFFFFFFFFFFFF AND DUP2 PUSH20 0xFFFFFFFFFFFFFFFFFFFFFFFFFFFFFFFFFFFFFFFF AND EQ PUSH2 0xAC1 JUMPI PUSH1 0x40 MLOAD PUSH32 0x6697B23200000000000000000000000000000000000000000000000000000000 DUP2 MSTORE PUSH1 0x4 ADD PUSH1 0x40 MLOAD DUP1 SWAP2 SUB SWAP1 REVERT JUMPDEST PUSH2 0xACB DUP3 DUP3 PUSH2 0x1679 JUMP JUMPDEST POP POP POP JUMP JUMPDEST PUSH0 DUP1 PUSH2 0xADB DUP4 PUSH2 0xC0A JUMP JUMPDEST SWAP1 POP PUSH1 0x1 PUSH1 0x3 DUP2 GT ISZERO PUSH2 0xAF1 JUMPI PUSH2 0xAF0 PUSH2 0x1EB9 JUMP JUMPDEST JUMPDEST DUP2 PUSH1 0x3 DUP2 GT ISZERO PUSH2 0xB04 JUMPI PUSH2 0xB03 PUSH2 0x1EB9 JUMP JUMPDEST JUMPDEST EQ DUP1 PUSH2 0xB34 JUMPI POP PUSH1 0x2 PUSH1 0x3 DUP2 GT ISZERO PUSH2 0xB1F JUMPI PUSH2 0xB1E PUSH2 0x1EB9 JUMP JUMPDEST JUMPDEST DUP2 PUSH1 0x3 DUP2 GT ISZERO PUSH2 0xB32 JUMPI PUSH2 0xB31 PUSH2 0x1EB9 JUMP JUMPDEST JUMPDEST EQ JUMPDEST SWAP2 POP POP SWAP2 SWAP1 POP JUMP JUMPDEST PUSH0 PUSH2 0xB45 PUSH2 0x1396 JUMP JUMPDEST SWAP1 POP ADDRESS PUSH20 0xFFFFFFFFFFFFFFFFFFFFFFFFFFFFFFFFFFFFFFFF AND DUP2 PUSH20 0xFFFFFFFFFFFFFFFFFFFFFFFFFFFFFFFFFFFFFFFF AND EQ PUSH2 0xBB7 JUMPI DUP1 PUSH1 0x40 MLOAD PUSH32 0xE2850C5900000000000000000000000000000000000000000000000000000000 DUP2 MSTORE PUSH1 0x4 ADD PUSH2 0xBAE SWAP2 SWAP1 PUSH2 0x2505 JUMP JUMPDEST PUSH1 0x40 MLOAD DUP1 SWAP2 SUB SWAP1 REVERT JUMPDEST PUSH32 0x11C24F4EAD16507C69AC467FBD5E4EED5FB5C699626D2CC6D66421DF253886D5 PUSH1 0x2 SLOAD DUP4 PUSH1 0x40 MLOAD PUSH2 0xBEA SWAP3 SWAP2 SWAP1 PUSH2 0x251E JUMP JUMPDEST PUSH1 0x40 MLOAD DUP1 SWAP2 SUB SWAP1 LOG1 DUP2 PUSH1 0x2 DUP2 SWAP1 SSTORE POP POP POP JUMP JUMPDEST PUSH3 0x15180 DUP2 JUMP JUMPDEST PUSH0 DUP1 SHL DUP2 JUMP JUMPDEST PUSH0 DUP1 PUSH2 0xC15 DUP4 PUSH2 0x102B JUMP JUMPDEST SWAP1 POP PUSH0 DUP2 SUB PUSH2 0xC27 JUMPI PUSH0 SWAP2 POP POP PUSH2 0xC51 JUMP JUMPDEST PUSH1 0x1 DUP2 SUB PUSH2 0xC39 JUMPI PUSH1 0x3 SWAP2 POP POP PUSH2 0xC51 JUMP JUMPDEST TIMESTAMP DUP2 GT ISZERO PUSH2 0xC4B JUMPI PUSH1 0x1 SWAP2 POP POP PUSH2 0xC51 JUMP JUMPDEST PUSH1 0x2 SWAP2 POP POP JUMPDEST SWAP2 SWAP1 POP JUMP JUMPDEST PUSH0 DUP7 DUP7 DUP7 DUP7 DUP7 DUP7 PUSH1 0x40 MLOAD PUSH1 0x20 ADD PUSH2 0xC72 SWAP7 SWAP6 SWAP5 SWAP4 SWAP3 SWAP2 SWAP1 PUSH2 0x2545 JUMP JUMPDEST PUSH1 0x40 MLOAD PUSH1 0x20 DUP2 DUP4 SUB SUB DUP2 MSTORE SWAP1 PUSH1 0x40 MSTORE DUP1 MLOAD SWAP1 PUSH1 0x20 ADD KECCAK256 SWAP1 POP SWAP7 SWAP6 POP POP POP POP POP POP JUMP JUMPDEST PUSH32 0xB09AA5AEB3702CFD50B6B62BC4532604938F21248A27A1D5CA736082B6819CC1 PUSH2 0xCBE DUP2 PUSH2 0x123C JUMP JUMPDEST DUP8 DUP8 SWAP1 POP DUP11 DUP11 SWAP1 POP EQ ISZERO DUP1 PUSH2 0xCD9 JUMPI POP DUP6 DUP6 SWAP1 POP DUP11 DUP11 SWAP1 POP EQ ISZERO JUMPDEST ISZERO PUSH2 0xD28 JUMPI DUP10 DUP10 SWAP1 POP DUP7 DUP7 SWAP1 POP DUP10 DUP10 SWAP1 POP PUSH1 0x40 MLOAD PUSH32 0xFFB0321100000000000000000000000000000000000000000000000000000000 DUP2 MSTORE PUSH1 0x4 ADD PUSH2 0xD1F SWAP4 SWAP3 SWAP2 SWAP1 PUSH2 0x259F JUMP JUMPDEST PUSH1 0x40 MLOAD DUP1 SWAP2 SUB SWAP1 REVERT JUMPDEST PUSH0 PUSH2 0xD39 DUP12 DUP12 DUP12 DUP12 DUP12 DUP12 DUP12 DUP12 PUSH2 0xF04 JUMP JUMPDEST SWAP1 POP PUSH2 0xD45 DUP2 DUP5 PUSH2 0x1250 JUMP JUMPDEST PUSH0 JUMPDEST DUP12 DUP12 SWAP1 POP DUP2 LT ISZERO PUSH2 0xE03 JUMPI DUP1 DUP3 PUSH32 0x4CF4410CC57040E44862EF0F45F3DD5A5E02DB8EB8ADD648D4B0E236F1D07DCA DUP15 DUP15 DUP6 DUP2 DUP2 LT PUSH2 0xD88 JUMPI PUSH2 0xD87 PUSH2 0x25D4 JUMP JUMPDEST JUMPDEST SWAP1 POP PUSH1 0x20 MUL ADD PUSH1 0x20 DUP2 ADD SWAP1 PUSH2 0xD9D SWAP2 SWAP1 PUSH2 0x2601 JUMP JUMPDEST DUP14 DUP14 DUP7 DUP2 DUP2 LT PUSH2 0xDB0 JUMPI PUSH2 0xDAF PUSH2 0x25D4 JUMP JUMPDEST JUMPDEST SWAP1 POP PUSH1 0x20 MUL ADD CALLDATALOAD DUP13 DUP13 DUP8 DUP2 DUP2 LT PUSH2 0xDCA JUMPI PUSH2 0xDC9 PUSH2 0x25D4 JUMP JUMPDEST JUMPDEST SWAP1 POP PUSH1 0x20 MUL DUP2 ADD SWAP1 PUSH2 0xDDC SWAP2 SWAP1 PUSH2 0x2638 JUMP JUMPDEST DUP13 DUP12 PUSH1 0x40 MLOAD PUSH2 0xDF0 SWAP7 SWAP6 SWAP5 SWAP4 SWAP3 SWAP2 SWAP1 PUSH2 0x246D JUMP JUMPDEST PUSH1 0x40 MLOAD DUP1 SWAP2 SUB SWAP1 LOG3 DUP1 PUSH1 0x1 ADD SWAP1 POP PUSH2 0xD47 JUMP JUMPDEST POP PUSH0 DUP1 SHL DUP5 EQ PUSH2 0xE46 JUMPI DUP1 PUSH32 0x20FDA5FD27A1EA7BF5B9567F143AC5470BB059374A27E8F67CB44F946F6D0387 DUP6 PUSH1 0x40 MLOAD PUSH2 0xE3D SWAP2 SWAP1 PUSH2 0x1B6E JUMP JUMPDEST PUSH1 0x40 MLOAD DUP1 SWAP2 SUB SWAP1 LOG2 JUMPDEST POP POP POP POP POP POP POP POP POP POP POP JUMP JUMPDEST PUSH32 0xB09AA5AEB3702CFD50B6B62BC4532604938F21248A27A1D5CA736082B6819CC1 DUP2 JUMP JUMPDEST PUSH0 DUP1 PUSH0 DUP5 DUP2 MSTORE PUSH1 0x20 ADD SWAP1 DUP2 MSTORE PUSH1 0x20 ADD PUSH0 KECCAK256 PUSH0 ADD PUSH0 DUP4 PUSH20 0xFFFFFFFFFFFFFFFFFFFFFFFFFFFFFFFFFFFFFFFF AND PUSH20 0xFFFFFFFFFFFFFFFFFFFFFFFFFFFFFFFFFFFFFFFF AND DUP2 MSTORE PUSH1 0x20 ADD SWAP1 DUP2 MSTORE PUSH1 0x20 ADD PUSH0 KECCAK256 PUSH0 SWAP1 SLOAD SWAP1 PUSH2 0x100 EXP SWAP1 DIV PUSH1 0xFF AND SWAP1 POP SWAP3 SWAP2 POP POP JUMP JUMPDEST PUSH0 DUP1 SHL DUP2 JUMP JUMPDEST PUSH32 0xFD643C72710C63C0180259ABA6B2D05451E3591A24E58B62239378085726F783 DUP2 JUMP JUMPDEST PUSH0 DUP9 DUP9 DUP9 DUP9 DUP9 DUP9 DUP9 DUP9 PUSH1 0x40 MLOAD PUSH1 0x20 ADD PUSH2 0xF24 SWAP9 SWAP8 SWAP7 SWAP6 SWAP5 SWAP4 SWAP3 SWAP2 SWAP1 PUSH2 0x2926 JUMP JUMPDEST PUSH1 0x40 MLOAD PUSH1 0x20 DUP2 DUP4 SUB SUB DUP2 MSTORE SWAP1 PUSH1 0x40 MSTORE DUP1 MLOAD SWAP1 PUSH1 0x20 ADD KECCAK256 SWAP1 POP SWAP9 SWAP8 POP POP POP POP POP POP POP POP JUMP JUMPDEST PUSH0 PUSH4 0xBC197C81 PUSH1 0xE0 SHL SWAP1 POP SWAP6 SWAP5 POP POP POP POP POP JUMP JUMPDEST PUSH32 0xFD643C72710C63C0180259ABA6B2D05451E3591A24E58B62239378085726F783 PUSH2 0xF86 DUP2 PUSH2 0x123C JUMP JUMPDEST PUSH2 0xF8F DUP3 PUSH2 0xAD0 JUMP JUMPDEST PUSH2 0xFE6 JUMPI DUP2 PUSH2 0xF9E PUSH1 0x2 PUSH2 0x1762 JUMP JUMPDEST PUSH2 0xFA8 PUSH1 0x1 PUSH2 0x1762 JUMP JUMPDEST OR PUSH1 0x40 MLOAD PUSH32 0x5EAD8EB500000000000000000000000000000000000000000000000000000000 DUP2 MSTORE PUSH1 0x4 ADD PUSH2 0xFDD SWAP3 SWAP2 SWAP1 PUSH2 0x2992 JUMP JUMPDEST PUSH1 0x40 MLOAD DUP1 SWAP2 SUB SWAP1 REVERT JUMPDEST PUSH1 0x1 PUSH0 DUP4 DUP2 MSTORE PUSH1 0x20 ADD SWAP1 DUP2 MSTORE PUSH1 0x20 ADD PUSH0 KECCAK256 PUSH0 SWAP1 SSTORE DUP2 PUSH32 0xBAA1EB22F2A492BA1A5FEA61B8DF4D27C6C8B5F3971E63BB58FA14FF72EEDB70 PUSH1 0x40 MLOAD PUSH1 0x40 MLOAD DUP1 SWAP2 SUB SWAP1 LOG2 POP POP JUMP JUMPDEST PUSH0 PUSH1 0x1 PUSH0 DUP4 DUP2 MSTORE PUSH1 0x20 ADD SWAP1 DUP2 MSTORE PUSH1 0x20 ADD PUSH0 KECCAK256 SLOAD SWAP1 POP SWAP2 SWAP1 POP JUMP JUMPDEST PUSH2 0x104E DUP3 PUSH2 0x9A8 JUMP JUMPDEST PUSH2 0x1057 DUP2 PUSH2 0x123C JUMP JUMPDEST PUSH2 0x1061 DUP4 DUP4 PUSH2 0x1679 JUMP JUMPDEST POP POP POP POP JUMP JUMPDEST PUSH32 0xD8AA0F3194971A2A116679F7C2090F6939C8D4E01A2A8D7E41D55E5351469E63 PUSH2 0x1092 DUP2 PUSH0 PUSH2 0xE77 JUMP JUMPDEST PUSH2 0x10A8 JUMPI PUSH2 0x10A7 DUP2 PUSH2 0x10A2 PUSH2 0x1396 JUMP JUMPDEST PUSH2 0x139D JUMP JUMPDEST JUMPDEST DUP7 DUP7 SWAP1 POP DUP10 DUP10 SWAP1 POP EQ ISZERO DUP1 PUSH2 0x10C3 JUMPI POP DUP5 DUP5 SWAP1 POP DUP10 DUP10 SWAP1 POP EQ ISZERO JUMPDEST ISZERO PUSH2 0x1112 JUMPI DUP9 DUP9 SWAP1 POP DUP6 DUP6 SWAP1 POP DUP9 DUP9 SWAP1 POP PUSH1 0x40 MLOAD PUSH32 0xFFB0321100000000000000000000000000000000000000000000000000000000 DUP2 MSTORE PUSH1 0x4 ADD PUSH2 0x1109 SWAP4 SWAP3 SWAP2 SWAP1 PUSH2 0x259F JUMP JUMPDEST PUSH1 0x40 MLOAD DUP1 SWAP2 SUB SWAP1 REVERT JUMPDEST PUSH0 PUSH2 0x1123 DUP11 DUP11 DUP11 DUP11 DUP11 DUP11 DUP11 DUP11 PUSH2 0xF04 JUMP JUMPDEST SWAP1 POP PUSH2 0x112F DUP2 DUP6 PUSH2 0x13EE JUMP JUMPDEST PUSH0 JUMPDEST DUP11 DUP11 SWAP1 POP DUP2 LT ISZERO PUSH2 0x1209 JUMPI PUSH0 DUP12 DUP12 DUP4 DUP2 DUP2 LT PUSH2 0x1150 JUMPI PUSH2 0x114F PUSH2 0x25D4 JUMP JUMPDEST JUMPDEST SWAP1 POP PUSH1 0x20 MUL ADD PUSH1 0x20 DUP2 ADD SWAP1 PUSH2 0x1165 SWAP2 SWAP1 PUSH2 0x2601 JUMP JUMPDEST SWAP1 POP PUSH0 DUP11 DUP11 DUP5 DUP2 DUP2 LT PUSH2 0x117B JUMPI PUSH2 0x117A PUSH2 0x25D4 JUMP JUMPDEST JUMPDEST SWAP1 POP PUSH1 0x20 MUL ADD CALLDATALOAD SWAP1 POP CALLDATASIZE PUSH0 DUP11 DUP11 DUP7 DUP2 DUP2 LT PUSH2 0x1199 JUMPI PUSH2 0x1198 PUSH2 0x25D4 JUMP JUMPDEST JUMPDEST SWAP1 POP PUSH1 0x20 MUL DUP2 ADD SWAP1 PUSH2 0x11AB SWAP2 SWAP1 PUSH2 0x2638 JUMP JUMPDEST SWAP2 POP SWAP2 POP PUSH2 0x11BB DUP5 DUP5 DUP5 DUP5 PUSH2 0x14A1 JUMP JUMPDEST DUP5 DUP7 PUSH32 0xC2617EFA69BAB66782FA219543714338489C4E9E178271560A91B82C3F612B58 DUP7 DUP7 DUP7 DUP7 PUSH1 0x40 MLOAD PUSH2 0x11F2 SWAP5 SWAP4 SWAP3 SWAP2 SWAP1 PUSH2 0x24C7 JUMP JUMPDEST PUSH1 0x40 MLOAD DUP1 SWAP2 SUB SWAP1 LOG3 POP POP POP POP DUP1 PUSH1 0x1 ADD SWAP1 POP PUSH2 0x1131 JUMP JUMPDEST POP PUSH2 0x1213 DUP2 PUSH2 0x1522 JUMP JUMPDEST POP POP POP POP POP POP POP POP POP POP JUMP JUMPDEST PUSH0 PUSH4 0xF23A6E61 PUSH1 0xE0 SHL SWAP1 POP SWAP6 SWAP5 POP POP POP POP POP JUMP JUMPDEST PUSH0 PUSH1 0x2 SLOAD SWAP1 POP SWAP1 JUMP JUMPDEST PUSH2 0x124D DUP2 PUSH2 0x1248 PUSH2 0x1396 JUMP JUMPDEST PUSH2 0x139D JUMP JUMPDEST POP JUMP JUMPDEST PUSH2 0x1259 DUP3 PUSH2 0xA1D JUMP JUMPDEST ISZERO PUSH2 0x12A5 JUMPI DUP2 PUSH2 0x1268 PUSH0 PUSH2 0x1762 JUMP JUMPDEST PUSH1 0x40 MLOAD PUSH32 0x5EAD8EB500000000000000000000000000000000000000000000000000000000 DUP2 MSTORE PUSH1 0x4 ADD PUSH2 0x129C SWAP3 SWAP2 SWAP1 PUSH2 0x2992 JUMP JUMPDEST PUSH1 0x40 MLOAD DUP1 SWAP2 SUB SWAP1 REVERT JUMPDEST PUSH0 PUSH2 0x12AE PUSH2 0x1233 JUMP JUMPDEST SWAP1 POP DUP1 DUP3 LT ISZERO PUSH2 0x12F7 JUMPI DUP2 DUP2 PUSH1 0x40 MLOAD PUSH32 0x5433660900000000000000000000000000000000000000000000000000000000 DUP2 MSTORE PUSH1 0x4 ADD PUSH2 0x12EE SWAP3 SWAP2 SWAP1 PUSH2 0x251E JUMP JUMPDEST PUSH1 0x40 MLOAD DUP1 SWAP2 SUB SWAP1 REVERT JUMPDEST DUP2 TIMESTAMP PUSH2 0x1303 SWAP2 SWAP1 PUSH2 0x29E6 JUMP JUMPDEST PUSH1 0x1 PUSH0 DUP6 DUP2 MSTORE PUSH1 0x20 ADD SWAP1 DUP2 MSTORE PUSH1 0x20 ADD PUSH0 KECCAK256 DUP2 SWAP1 SSTORE POP POP POP POP JUMP JUMPDEST PUSH0 PUSH32 0x4E2312E000000000000000000000000000000000000000000000000000000000 PUSH28 0xFFFFFFFFFFFFFFFFFFFFFFFFFFFFFFFFFFFFFFFFFFFFFFFFFFFFFFFF NOT AND DUP3 PUSH28 0xFFFFFFFFFFFFFFFFFFFFFFFFFFFFFFFFFFFFFFFFFFFFFFFFFFFFFFFF NOT AND EQ DUP1 PUSH2 0x138F JUMPI POP PUSH2 0x138E DUP3 PUSH2 0x1786 JUMP JUMPDEST JUMPDEST SWAP1 POP SWAP2 SWAP1 POP JUMP JUMPDEST PUSH0 CALLER SWAP1 POP SWAP1 JUMP JUMPDEST PUSH2 0x13A7 DUP3 DUP3 PUSH2 0xE77 JUMP JUMPDEST PUSH2 0x13EA JUMPI DUP1 DUP3 PUSH1 0x40 MLOAD PUSH32 0xE2517D3F00000000000000000000000000000000000000000000000000000000 DUP2 MSTORE PUSH1 0x4 ADD PUSH2 0x13E1 SWAP3 SWAP2 SWAP1 PUSH2 0x2A19 JUMP JUMPDEST PUSH1 0x40 MLOAD DUP1 SWAP2 SUB SWAP1 REVERT JUMPDEST POP POP JUMP JUMPDEST PUSH2 0x13F7 DUP3 PUSH2 0x95D JUMP JUMPDEST PUSH2 0x1443 JUMPI DUP2 PUSH2 0x1406 PUSH1 0x2 PUSH2 0x1762 JUMP JUMPDEST PUSH1 0x40 MLOAD PUSH32 0x5EAD8EB500000000000000000000000000000000000000000000000000000000 DUP2 MSTORE PUSH1 0x4 ADD PUSH2 0x143A SWAP3 SWAP2 SWAP1 PUSH2 0x2992 JUMP JUMPDEST PUSH1 0x40 MLOAD DUP1 SWAP2 SUB SWAP1 REVERT JUMPDEST PUSH0 DUP1 SHL DUP2 EQ ISZERO DUP1 ISZERO PUSH2 0x145B JUMPI POP PUSH2 0x1459 DUP2 PUSH2 0x9C4 JUMP JUMPDEST ISZERO JUMPDEST ISZERO PUSH2 0x149D JUMPI DUP1 PUSH1 0x40 MLOAD PUSH32 0x90A9A61800000000000000000000000000000000000000000000000000000000 DUP2 MSTORE PUSH1 0x4 ADD PUSH2 0x1494 SWAP2 SWAP1 PUSH2 0x1B6E JUMP JUMPDEST PUSH1 0x40 MLOAD DUP1 SWAP2 SUB SWAP1 REVERT JUMPDEST POP POP JUMP JUMPDEST PUSH0 DUP1 DUP6 PUSH20 0xFFFFFFFFFFFFFFFFFFFFFFFFFFFFFFFFFFFFFFFF AND DUP6 DUP6 DUP6 PUSH1 0x40 MLOAD PUSH2 0x14CB SWAP3 SWAP2 SWAP1 PUSH2 0x2A6E JUMP JUMPDEST PUSH0 PUSH1 0x40 MLOAD DUP1 DUP4 SUB DUP2 DUP6 DUP8 GAS CALL SWAP3 POP POP POP RETURNDATASIZE DUP1 PUSH0 DUP2 EQ PUSH2 0x1505 JUMPI PUSH1 0x40 MLOAD SWAP2 POP PUSH1 0x1F NOT PUSH1 0x3F RETURNDATASIZE ADD AND DUP3 ADD PUSH1 0x40 MSTORE RETURNDATASIZE DUP3 MSTORE RETURNDATASIZE PUSH0 PUSH1 0x20 DUP5 ADD RETURNDATACOPY PUSH2 0x150A JUMP JUMPDEST PUSH1 0x60 SWAP2 POP JUMPDEST POP SWAP2 POP SWAP2 POP PUSH2 0x1519 DUP3 DUP3 PUSH2 0x17FF JUMP JUMPDEST POP POP POP POP POP POP POP JUMP JUMPDEST PUSH2 0x152B DUP2 PUSH2 0x95D JUMP JUMPDEST PUSH2 0x1577 JUMPI DUP1 PUSH2 0x153A PUSH1 0x2 PUSH2 0x1762 JUMP JUMPDEST PUSH1 0x40 MLOAD PUSH32 0x5EAD8EB500000000000000000000000000000000000000000000000000000000 DUP2 MSTORE PUSH1 0x4 ADD PUSH2 0x156E SWAP3 SWAP2 SWAP1 PUSH2 0x2992 JUMP JUMPDEST PUSH1 0x40 MLOAD DUP1 SWAP2 SUB SWAP1 REVERT JUMPDEST PUSH1 0x1 DUP1 PUSH0 DUP4 DUP2 MSTORE PUSH1 0x20 ADD SWAP1 DUP2 MSTORE PUSH1 0x20 ADD PUSH0 KECCAK256 DUP2 SWAP1 SSTORE POP POP JUMP JUMPDEST PUSH0 PUSH2 0x159B DUP4 DUP4 PUSH2 0xE77 JUMP JUMPDEST PUSH2 0x166F JUMPI PUSH1 0x1 PUSH0 DUP1 DUP6 DUP2 MSTORE PUSH1 0x20 ADD SWAP1 DUP2 MSTORE PUSH1 0x20 ADD PUSH0 KECCAK256 PUSH0 ADD PUSH0 DUP5 PUSH20 0xFFFFFFFFFFFFFFFFFFFFFFFFFFFFFFFFFFFFFFFF AND PUSH20 0xFFFFFFFFFFFFFFFFFFFFFFFFFFFFFFFFFFFFFFFF AND DUP2 MSTORE PUSH1 0x20 ADD SWAP1 DUP2 MSTORE PUSH1 0x20 ADD PUSH0 KECCAK256 PUSH0 PUSH2 0x100 EXP DUP2 SLOAD DUP2 PUSH1 0xFF MUL NOT AND SWAP1 DUP4 ISZERO ISZERO MUL OR SWAP1 SSTORE POP PUSH2 0x160C PUSH2 0x1396 JUMP JUMPDEST PUSH20 0xFFFFFFFFFFFFFFFFFFFFFFFFFFFFFFFFFFFFFFFF AND DUP3 PUSH20 0xFFFFFFFFFFFFFFFFFFFFFFFFFFFFFFFFFFFFFFFF AND DUP5 PUSH32 0x2F8788117E7EFF1D82E926EC794901D17C78024A50270940304540A733656F0D PUSH1 0x40 MLOAD PUSH1 0x40 MLOAD DUP1 SWAP2 SUB SWAP1 LOG4 PUSH1 0x1 SWAP1 POP PUSH2 0x1673 JUMP JUMPDEST PUSH0 SWAP1 POP JUMPDEST SWAP3 SWAP2 POP POP JUMP JUMPDEST PUSH0 PUSH2 0x1684 DUP4 DUP4 PUSH2 0xE77 JUMP JUMPDEST ISZERO PUSH2 0x1758 JUMPI PUSH0 DUP1 PUSH0 DUP6 DUP2 MSTORE PUSH1 0x20 ADD SWAP1 DUP2 MSTORE PUSH1 0x20 ADD PUSH0 KECCAK256 PUSH0 ADD PUSH0 DUP5 PUSH20 0xFFFFFFFFFFFFFFFFFFFFFFFFFFFFFFFFFFFFFFFF AND PUSH20 0xFFFFFFFFFFFFFFFFFFFFFFFFFFFFFFFFFFFFFFFF AND DUP2 MSTORE PUSH1 0x20 ADD SWAP1 DUP2 MSTORE PUSH1 0x20 ADD PUSH0 KECCAK256 PUSH0 PUSH2 0x100 EXP DUP2 SLOAD DUP2 PUSH1 0xFF MUL NOT AND SWAP1 DUP4 ISZERO ISZERO MUL OR SWAP1 SSTORE POP PUSH2 0x16F5 PUSH2 0x1396 JUMP JUMPDEST PUSH20 0xFFFFFFFFFFFFFFFFFFFFFFFFFFFFFFFFFFFFFFFF AND DUP3 PUSH20 0xFFFFFFFFFFFFFFFFFFFFFFFFFFFFFFFFFFFFFFFF AND DUP5 PUSH32 0xF6391F5C32D9C69D2A47EA670B442974B53935D1EDC7FD64EB21E047A839171B PUSH1 0x40 MLOAD PUSH1 0x40 MLOAD DUP1 SWAP2 SUB SWAP1 LOG4 PUSH1 0x1 SWAP1 POP PUSH2 0x175C JUMP JUMPDEST PUSH0 SWAP1 POP JUMPDEST SWAP3 SWAP2 POP POP JUMP JUMPDEST PUSH0 DUP2 PUSH1 0x3 DUP2 GT ISZERO PUSH2 0x1776 JUMPI PUSH2 0x1775 PUSH2 0x1EB9 JUMP JUMPDEST JUMPDEST PUSH1 0xFF AND PUSH1 0x1 SWAP1 SHL PUSH0 SHL SWAP1 POP SWAP2 SWAP1 POP JUMP JUMPDEST PUSH0 PUSH32 0x7965DB0B00000000000000000000000000000000000000000000000000000000 PUSH28 0xFFFFFFFFFFFFFFFFFFFFFFFFFFFFFFFFFFFFFFFFFFFFFFFFFFFFFFFF NOT AND DUP3 PUSH28 0xFFFFFFFFFFFFFFFFFFFFFFFFFFFFFFFFFFFFFFFFFFFFFFFFFFFFFFFF NOT AND EQ DUP1 PUSH2 0x17F8 JUMPI POP PUSH2 0x17F7 DUP3 PUSH2 0x1823 JUMP JUMPDEST JUMPDEST SWAP1 POP SWAP2 SWAP1 POP JUMP JUMPDEST PUSH1 0x60 DUP3 PUSH2 0x1814 JUMPI PUSH2 0x180F DUP3 PUSH2 0x188C JUMP JUMPDEST PUSH2 0x181C JUMP JUMPDEST DUP2 SWAP1 POP PUSH2 0x181D JUMP JUMPDEST JUMPDEST SWAP3 SWAP2 POP POP JUMP JUMPDEST PUSH0 PUSH32 0x1FFC9A700000000000000000000000000000000000000000000000000000000 PUSH28 0xFFFFFFFFFFFFFFFFFFFFFFFFFFFFFFFFFFFFFFFFFFFFFFFFFFFFFFFF NOT AND DUP3 PUSH28 0xFFFFFFFFFFFFFFFFFFFFFFFFFFFFFFFFFFFFFFFFFFFFFFFFFFFFFFFF NOT AND EQ SWAP1 POP SWAP2 SWAP1 POP JUMP JUMPDEST PUSH0 DUP2 MLOAD GT ISZERO PUSH2 0x189E JUMPI DUP1 MLOAD DUP1 DUP3 PUSH1 0x20 ADD REVERT JUMPDEST PUSH1 0x40 MLOAD PUSH32 0x1425EA4200000000000000000000000000000000000000000000000000000000 DUP2 MSTORE PUSH1 0x4 ADD PUSH1 0x40 MLOAD DUP1 SWAP2 SUB SWAP1 REVERT JUMPDEST PUSH0 PUSH1 0x40 MLOAD SWAP1 POP SWAP1 JUMP JUMPDEST PUSH0 DUP1 REVERT JUMPDEST PUSH0 DUP1 REVERT JUMPDEST PUSH0 PUSH20 0xFFFFFFFFFFFFFFFFFFFFFFFFFFFFFFFFFFFFFFFF DUP3 AND SWAP1 POP SWAP2 SWAP1 POP JUMP JUMPDEST PUSH0 PUSH2 0x190A DUP3 PUSH2 0x18E1 JUMP JUMPDEST SWAP1 POP SWAP2 SWAP1 POP JUMP JUMPDEST PUSH2 0x191A DUP2 PUSH2 0x1900 JUMP JUMPDEST DUP2 EQ PUSH2 0x1924 JUMPI PUSH0 DUP1 REVERT JUMPDEST POP JUMP JUMPDEST PUSH0 DUP2 CALLDATALOAD SWAP1 POP PUSH2 0x1935 DUP2 PUSH2 0x1911 JUMP JUMPDEST SWAP3 SWAP2 POP POP JUMP JUMPDEST PUSH0 DUP2 SWAP1 POP SWAP2 SWAP1 POP JUMP JUMPDEST PUSH2 0x194D DUP2 PUSH2 0x193B JUMP JUMPDEST DUP2 EQ PUSH2 0x1957 JUMPI PUSH0 DUP1 REVERT JUMPDEST POP JUMP JUMPDEST PUSH0 DUP2 CALLDATALOAD SWAP1 POP PUSH2 0x1968 DUP2 PUSH2 0x1944 JUMP JUMPDEST SWAP3 SWAP2 POP POP JUMP JUMPDEST PUSH0 DUP1 REVERT JUMPDEST PUSH0 DUP1 REVERT JUMPDEST PUSH0 DUP1 REVERT JUMPDEST PUSH0 DUP1 DUP4 PUSH1 0x1F DUP5 ADD SLT PUSH2 0x198F JUMPI PUSH2 0x198E PUSH2 0x196E JUMP JUMPDEST JUMPDEST DUP3 CALLDATALOAD SWAP1 POP PUSH8 0xFFFFFFFFFFFFFFFF DUP2 GT ISZERO PUSH2 0x19AC JUMPI PUSH2 0x19AB PUSH2 0x1972 JUMP JUMPDEST JUMPDEST PUSH1 0x20 DUP4 ADD SWAP2 POP DUP4 PUSH1 0x1 DUP3 MUL DUP4 ADD GT ISZERO PUSH2 0x19C8 JUMPI PUSH2 0x19C7 PUSH2 0x1976 JUMP JUMPDEST JUMPDEST SWAP3 POP SWAP3 SWAP1 POP JUMP JUMPDEST PUSH0 DUP2 SWAP1 POP SWAP2 SWAP1 POP JUMP JUMPDEST PUSH2 0x19E1 DUP2 PUSH2 0x19CF JUMP JUMPDEST DUP2 EQ PUSH2 0x19EB JUMPI PUSH0 DUP1 REVERT JUMPDEST POP JUMP JUMPDEST PUSH0 DUP2 CALLDATALOAD SWAP1 POP PUSH2 0x19FC DUP2 PUSH2 0x19D8 JUMP JUMPDEST SWAP3 SWAP2 POP POP JUMP JUMPDEST PUSH0 DUP1 PUSH0 DUP1 PUSH0 DUP1 PUSH0 PUSH1 0xC0 DUP9 DUP11 SUB SLT ISZERO PUSH2 0x1A1D JUMPI PUSH2 0x1A1C PUSH2 0x18D9 JUMP JUMPDEST JUMPDEST PUSH0 PUSH2 0x1A2A DUP11 DUP3 DUP12 ADD PUSH2 0x1927 JUMP JUMPDEST SWAP8 POP POP PUSH1 0x20 PUSH2 0x1A3B DUP11 DUP3 DUP12 ADD PUSH2 0x195A JUMP JUMPDEST SWAP7 POP POP PUSH1 0x40 DUP9 ADD CALLDATALOAD PUSH8 0xFFFFFFFFFFFFFFFF DUP2 GT ISZERO PUSH2 0x1A5C JUMPI PUSH2 0x1A5B PUSH2 0x18DD JUMP JUMPDEST JUMPDEST PUSH2 0x1A68 DUP11 DUP3 DUP12 ADD PUSH2 0x197A JUMP JUMPDEST SWAP6 POP SWAP6 POP POP PUSH1 0x60 PUSH2 0x1A7B DUP11 DUP3 DUP12 ADD PUSH2 0x19EE JUMP JUMPDEST SWAP4 POP POP PUSH1 0x80 PUSH2 0x1A8C DUP11 DUP3 DUP12 ADD PUSH2 0x19EE JUMP JUMPDEST SWAP3 POP POP PUSH1 0xA0 PUSH2 0x1A9D DUP11 DUP3 DUP12 ADD PUSH2 0x195A JUMP JUMPDEST SWAP2 POP POP SWAP3 SWAP6 SWAP9 SWAP2 SWAP5 SWAP8 POP SWAP3 SWAP6 POP JUMP JUMPDEST PUSH0 PUSH32 0xFFFFFFFF00000000000000000000000000000000000000000000000000000000 DUP3 AND SWAP1 POP SWAP2 SWAP1 POP JUMP JUMPDEST PUSH2 0x1AE0 DUP2 PUSH2 0x1AAC JUMP JUMPDEST DUP2 EQ PUSH2 0x1AEA JUMPI PUSH0 DUP1 REVERT JUMPDEST POP JUMP JUMPDEST PUSH0 DUP2 CALLDATALOAD SWAP1 POP PUSH2 0x1AFB DUP2 PUSH2 0x1AD7 JUMP JUMPDEST SWAP3 SWAP2 POP POP JUMP JUMPDEST PUSH0 PUSH1 0x20 DUP3 DUP5 SUB SLT ISZERO PUSH2 0x1B16 JUMPI PUSH2 0x1B15 PUSH2 0x18D9 JUMP JUMPDEST JUMPDEST PUSH0 PUSH2 0x1B23 DUP5 DUP3 DUP6 ADD PUSH2 0x1AED JUMP JUMPDEST SWAP2 POP POP SWAP3 SWAP2 POP POP JUMP JUMPDEST PUSH0 DUP2 ISZERO ISZERO SWAP1 POP SWAP2 SWAP1 POP JUMP JUMPDEST PUSH2 0x1B40 DUP2 PUSH2 0x1B2C JUMP JUMPDEST DUP3 MSTORE POP POP JUMP JUMPDEST PUSH0 PUSH1 0x20 DUP3 ADD SWAP1 POP PUSH2 0x1B59 PUSH0 DUP4 ADD DUP5 PUSH2 0x1B37 JUMP JUMPDEST SWAP3 SWAP2 POP POP JUMP JUMPDEST PUSH2 0x1B68 DUP2 PUSH2 0x19CF JUMP JUMPDEST DUP3 MSTORE POP POP JUMP JUMPDEST PUSH0 PUSH1 0x20 DUP3 ADD SWAP1 POP PUSH2 0x1B81 PUSH0 DUP4 ADD DUP5 PUSH2 0x1B5F JUMP JUMPDEST SWAP3 SWAP2 POP POP JUMP JUMPDEST PUSH0 DUP1 PUSH0 DUP1 PUSH0 DUP1 PUSH1 0xA0 DUP8 DUP10 SUB SLT ISZERO PUSH2 0x1BA1 JUMPI PUSH2 0x1BA0 PUSH2 0x18D9 JUMP JUMPDEST JUMPDEST PUSH0 PUSH2 0x1BAE DUP10 DUP3 DUP11 ADD PUSH2 0x1927 JUMP JUMPDEST SWAP7 POP POP PUSH1 0x20 PUSH2 0x1BBF DUP10 DUP3 DUP11 ADD PUSH2 0x195A JUMP JUMPDEST SWAP6 POP POP PUSH1 0x40 DUP8 ADD CALLDATALOAD PUSH8 0xFFFFFFFFFFFFFFFF DUP2 GT ISZERO PUSH2 0x1BE0 JUMPI PUSH2 0x1BDF PUSH2 0x18DD JUMP JUMPDEST JUMPDEST PUSH2 0x1BEC DUP10 DUP3 DUP11 ADD PUSH2 0x197A JUMP JUMPDEST SWAP5 POP SWAP5 POP POP PUSH1 0x60 PUSH2 0x1BFF DUP10 DUP3 DUP11 ADD PUSH2 0x19EE JUMP JUMPDEST SWAP3 POP POP PUSH1 0x80 PUSH2 0x1C10 DUP10 DUP3 DUP11 ADD PUSH2 0x19EE JUMP JUMPDEST SWAP2 POP POP SWAP3 SWAP6 POP SWAP3 SWAP6 POP SWAP3 SWAP6 JUMP JUMPDEST PUSH0 PUSH1 0x20 DUP3 DUP5 SUB SLT ISZERO PUSH2 0x1C32 JUMPI PUSH2 0x1C31 PUSH2 0x18D9 JUMP JUMPDEST JUMPDEST PUSH0 PUSH2 0x1C3F DUP5 DUP3 DUP6 ADD PUSH2 0x19EE JUMP JUMPDEST SWAP2 POP POP SWAP3 SWAP2 POP POP JUMP JUMPDEST PUSH0 DUP1 REVERT JUMPDEST PUSH0 PUSH1 0x1F NOT PUSH1 0x1F DUP4 ADD AND SWAP1 POP SWAP2 SWAP1 POP JUMP JUMPDEST PUSH32 0x4E487B7100000000000000000000000000000000000000000000000000000000 PUSH0 MSTORE PUSH1 0x41 PUSH1 0x4 MSTORE PUSH1 0x24 PUSH0 REVERT JUMPDEST PUSH2 0x1C92 DUP3 PUSH2 0x1C4C JUMP JUMPDEST DUP2 ADD DUP2 DUP2 LT PUSH8 0xFFFFFFFFFFFFFFFF DUP3 GT OR ISZERO PUSH2 0x1CB1 JUMPI PUSH2 0x1CB0 PUSH2 0x1C5C JUMP JUMPDEST JUMPDEST DUP1 PUSH1 0x40 MSTORE POP POP POP JUMP JUMPDEST PUSH0 PUSH2 0x1CC3 PUSH2 0x18D0 JUMP JUMPDEST SWAP1 POP PUSH2 0x1CCF DUP3 DUP3 PUSH2 0x1C89 JUMP JUMPDEST SWAP2 SWAP1 POP JUMP JUMPDEST PUSH0 PUSH8 0xFFFFFFFFFFFFFFFF DUP3 GT ISZERO PUSH2 0x1CEE JUMPI PUSH2 0x1CED PUSH2 0x1C5C JUMP JUMPDEST JUMPDEST PUSH2 0x1CF7 DUP3 PUSH2 0x1C4C JUMP JUMPDEST SWAP1 POP PUSH1 0x20 DUP2 ADD SWAP1 POP SWAP2 SWAP1 POP JUMP JUMPDEST DUP3 DUP2 DUP4 CALLDATACOPY PUSH0 DUP4 DUP4 ADD MSTORE POP POP POP JUMP JUMPDEST PUSH0 PUSH2 0x1D24 PUSH2 0x1D1F DUP5 PUSH2 0x1CD4 JUMP JUMPDEST PUSH2 0x1CBA JUMP JUMPDEST SWAP1 POP DUP3 DUP2 MSTORE PUSH1 0x20 DUP2 ADD DUP5 DUP5 DUP5 ADD GT ISZERO PUSH2 0x1D40 JUMPI PUSH2 0x1D3F PUSH2 0x1C48 JUMP JUMPDEST JUMPDEST PUSH2 0x1D4B DUP5 DUP3 DUP6 PUSH2 0x1D04 JUMP JUMPDEST POP SWAP4 SWAP3 POP POP POP JUMP JUMPDEST PUSH0 DUP3 PUSH1 0x1F DUP4 ADD SLT PUSH2 0x1D67 JUMPI PUSH2 0x1D66 PUSH2 0x196E JUMP JUMPDEST JUMPDEST DUP2 CALLDATALOAD PUSH2 0x1D77 DUP5 DUP3 PUSH1 0x20 DUP7 ADD PUSH2 0x1D12 JUMP JUMPDEST SWAP2 POP POP SWAP3 SWAP2 POP POP JUMP JUMPDEST PUSH0 DUP1 PUSH0 DUP1 PUSH1 0x80 DUP6 DUP8 SUB SLT ISZERO PUSH2 0x1D98 JUMPI PUSH2 0x1D97 PUSH2 0x18D9 JUMP JUMPDEST JUMPDEST PUSH0 PUSH2 0x1DA5 DUP8 DUP3 DUP9 ADD PUSH2 0x1927 JUMP JUMPDEST SWAP5 POP POP PUSH1 0x20 PUSH2 0x1DB6 DUP8 DUP3 DUP9 ADD PUSH2 0x1927 JUMP JUMPDEST SWAP4 POP POP PUSH1 0x40 PUSH2 0x1DC7 DUP8 DUP3 DUP9 ADD PUSH2 0x195A JUMP JUMPDEST SWAP3 POP POP PUSH1 0x60 DUP6 ADD CALLDATALOAD PUSH8 0xFFFFFFFFFFFFFFFF DUP2 GT ISZERO PUSH2 0x1DE8 JUMPI PUSH2 0x1DE7 PUSH2 0x18DD JUMP JUMPDEST JUMPDEST PUSH2 0x1DF4 DUP8 DUP3 DUP9 ADD PUSH2 0x1D53 JUMP JUMPDEST SWAP2 POP POP SWAP3 SWAP6 SWAP2 SWAP5 POP SWAP3 POP JUMP JUMPDEST PUSH2 0x1E09 DUP2 PUSH2 0x1AAC JUMP JUMPDEST DUP3 MSTORE POP POP JUMP JUMPDEST PUSH0 PUSH1 0x20 DUP3 ADD SWAP1 POP PUSH2 0x1E22 PUSH0 DUP4 ADD DUP5 PUSH2 0x1E00 JUMP JUMPDEST SWAP3 SWAP2 POP POP JUMP JUMPDEST PUSH0 DUP1 PUSH1 0x40 DUP4 DUP6 SUB SLT ISZERO PUSH2 0x1E3E JUMPI PUSH2 0x1E3D PUSH2 0x18D9 JUMP JUMPDEST JUMPDEST PUSH0 PUSH2 0x1E4B DUP6 DUP3 DUP7 ADD PUSH2 0x19EE JUMP JUMPDEST SWAP3 POP POP PUSH1 0x20 PUSH2 0x1E5C DUP6 DUP3 DUP7 ADD PUSH2 0x1927 JUMP JUMPDEST SWAP2 POP POP SWAP3 POP SWAP3 SWAP1 POP JUMP JUMPDEST PUSH0 PUSH1 0x20 DUP3 DUP5 SUB SLT ISZERO PUSH2 0x1E7B JUMPI PUSH2 0x1E7A PUSH2 0x18D9 JUMP JUMPDEST JUMPDEST PUSH0 PUSH2 0x1E88 DUP5 DUP3 DUP6 ADD PUSH2 0x195A JUMP JUMPDEST SWAP2 POP POP SWAP3 SWAP2 POP POP JUMP JUMPDEST PUSH2 0x1E9A DUP2 PUSH2 0x193B JUMP JUMPDEST DUP3 MSTORE POP POP JUMP JUMPDEST PUSH0 PUSH1 0x20 DUP3 ADD SWAP1 POP PUSH2 0x1EB3 PUSH0 DUP4 ADD DUP5 PUSH2 0x1E91 JUMP JUMPDEST SWAP3 SWAP2 POP POP JUMP JUMPDEST PUSH32 0x4E487B7100000000000000000000000000000000000000000000000000000000 PUSH0 MSTORE PUSH1 0x21 PUSH1 0x4 MSTORE PUSH1 0x24 PUSH0 REVERT JUMPDEST PUSH1 0x4 DUP2 LT PUSH2 0x1EF7 JUMPI PUSH2 0x1EF6 PUSH2 0x1EB9 JUMP JUMPDEST JUMPDEST POP JUMP JUMPDEST PUSH0 DUP2 SWAP1 POP PUSH2 0x1F07 DUP3 PUSH2 0x1EE6 JUMP JUMPDEST SWAP2 SWAP1 POP JUMP JUMPDEST PUSH0 PUSH2 0x1F16 DUP3 PUSH2 0x1EFA JUMP JUMPDEST SWAP1 POP SWAP2 SWAP1 POP JUMP JUMPDEST PUSH2 0x1F26 DUP2 PUSH2 0x1F0C JUMP JUMPDEST DUP3 MSTORE POP POP JUMP JUMPDEST PUSH0 PUSH1 0x20 DUP3 ADD SWAP1 POP PUSH2 0x1F3F PUSH0 DUP4 ADD DUP5 PUSH2 0x1F1D JUMP JUMPDEST SWAP3 SWAP2 POP POP JUMP JUMPDEST PUSH0 DUP1 DUP4 PUSH1 0x1F DUP5 ADD SLT PUSH2 0x1F5A JUMPI PUSH2 0x1F59 PUSH2 0x196E JUMP JUMPDEST JUMPDEST DUP3 CALLDATALOAD SWAP1 POP PUSH8 0xFFFFFFFFFFFFFFFF DUP2 GT ISZERO PUSH2 0x1F77 JUMPI PUSH2 0x1F76 PUSH2 0x1972 JUMP JUMPDEST JUMPDEST PUSH1 0x20 DUP4 ADD SWAP2 POP DUP4 PUSH1 0x20 DUP3 MUL DUP4 ADD GT ISZERO PUSH2 0x1F93 JUMPI PUSH2 0x1F92 PUSH2 0x1976 JUMP JUMPDEST JUMPDEST SWAP3 POP SWAP3 SWAP1 POP JUMP JUMPDEST PUSH0 DUP1 DUP4 PUSH1 0x1F DUP5 ADD SLT PUSH2 0x1FAF JUMPI PUSH2 0x1FAE PUSH2 0x196E JUMP JUMPDEST JUMPDEST DUP3 CALLDATALOAD SWAP1 POP PUSH8 0xFFFFFFFFFFFFFFFF DUP2 GT ISZERO PUSH2 0x1FCC JUMPI PUSH2 0x1FCB PUSH2 0x1972 JUMP JUMPDEST JUMPDEST PUSH1 0x20 DUP4 ADD SWAP2 POP DUP4 PUSH1 0x20 DUP3 MUL DUP4 ADD GT ISZERO PUSH2 0x1FE8 JUMPI PUSH2 0x1FE7 PUSH2 0x1976 JUMP JUMPDEST JUMPDEST SWAP3 POP SWAP3 SWAP1 POP JUMP JUMPDEST PUSH0 DUP1 DUP4 PUSH1 0x1F DUP5 ADD SLT PUSH2 0x2004 JUMPI PUSH2 0x2003 PUSH2 0x196E JUMP JUMPDEST JUMPDEST DUP3 CALLDATALOAD SWAP1 POP PUSH8 0xFFFFFFFFFFFFFFFF DUP2 GT ISZERO PUSH2 0x2021 JUMPI PUSH2 0x2020 PUSH2 0x1972 JUMP JUMPDEST JUMPDEST PUSH1 0x20 DUP4 ADD SWAP2 POP DUP4 PUSH1 0x20 DUP3 MUL DUP4 ADD GT ISZERO PUSH2 0x203D JUMPI PUSH2 0x203C PUSH2 0x1976 JUMP JUMPDEST JUMPDEST SWAP3 POP SWAP3 SWAP1 POP JUMP JUMPDEST PUSH0 DUP1 PUSH0 DUP1 PUSH0 DUP1 PUSH0 DUP1 PUSH0 PUSH1 0xC0 DUP11 DUP13 SUB SLT ISZERO PUSH2 0x2061 JUMPI PUSH2 0x2060 PUSH2 0x18D9 JUMP JUMPDEST JUMPDEST PUSH0 DUP11 ADD CALLDATALOAD PUSH8 0xFFFFFFFFFFFFFFFF DUP2 GT ISZERO PUSH2 0x207E JUMPI PUSH2 0x207D PUSH2 0x18DD JUMP JUMPDEST JUMPDEST PUSH2 0x208A DUP13 DUP3 DUP14 ADD PUSH2 0x1F45 JUMP JUMPDEST SWAP10 POP SWAP10 POP POP PUSH1 0x20 DUP11 ADD CALLDATALOAD PUSH8 0xFFFFFFFFFFFFFFFF DUP2 GT ISZERO PUSH2 0x20AD JUMPI PUSH2 0x20AC PUSH2 0x18DD JUMP JUMPDEST JUMPDEST PUSH2 0x20B9 DUP13 DUP3 DUP14 ADD PUSH2 0x1F9A JUMP JUMPDEST SWAP8 POP SWAP8 POP POP PUSH1 0x40 DUP11 ADD CALLDATALOAD PUSH8 0xFFFFFFFFFFFFFFFF DUP2 GT ISZERO PUSH2 0x20DC JUMPI PUSH2 0x20DB PUSH2 0x18DD JUMP JUMPDEST JUMPDEST PUSH2 0x20E8 DUP13 DUP3 DUP14 ADD PUSH2 0x1FEF JUMP JUMPDEST SWAP6 POP SWAP6 POP POP PUSH1 0x60 PUSH2 0x20FB DUP13 DUP3 DUP14 ADD PUSH2 0x19EE JUMP JUMPDEST SWAP4 POP POP PUSH1 0x80 PUSH2 0x210C DUP13 DUP3 DUP14 ADD PUSH2 0x19EE JUMP JUMPDEST SWAP3 POP POP PUSH1 0xA0 PUSH2 0x211D DUP13 DUP3 DUP14 ADD PUSH2 0x195A JUMP JUMPDEST SWAP2 POP POP SWAP3 SWAP6 SWAP9 POP SWAP3 SWAP6 SWAP9 POP SWAP3 SWAP6 SWAP9 JUMP JUMPDEST PUSH0 DUP1 PUSH0 DUP1 PUSH0 DUP1 PUSH0 DUP1 PUSH1 0xA0 DUP10 DUP12 SUB SLT ISZERO PUSH2 0x2149 JUMPI PUSH2 0x2148 PUSH2 0x18D9 JUMP JUMPDEST JUMPDEST PUSH0 DUP10 ADD CALLDATALOAD PUSH8 0xFFFFFFFFFFFFFFFF DUP2 GT ISZERO PUSH2 0x2166 JUMPI PUSH2 0x2165 PUSH2 0x18DD JUMP JUMPDEST JUMPDEST PUSH2 0x2172 DUP12 DUP3 DUP13 ADD PUSH2 0x1F45 JUMP JUMPDEST SWAP9 POP SWAP9 POP POP PUSH1 0x20 DUP10 ADD CALLDATALOAD PUSH8 0xFFFFFFFFFFFFFFFF DUP2 GT ISZERO PUSH2 0x2195 JUMPI PUSH2 0x2194 PUSH2 0x18DD JUMP JUMPDEST JUMPDEST PUSH2 0x21A1 DUP12 DUP3 DUP13 ADD PUSH2 0x1F9A JUMP JUMPDEST SWAP7 POP SWAP7 POP POP PUSH1 0x40 DUP10 ADD CALLDATALOAD PUSH8 0xFFFFFFFFFFFFFFFF DUP2 GT ISZERO PUSH2 0x21C4 JUMPI PUSH2 0x21C3 PUSH2 0x18DD JUMP JUMPDEST JUMPDEST PUSH2 0x21D0 DUP12 DUP3 DUP13 ADD PUSH2 0x1FEF JUMP JUMPDEST SWAP5 POP SWAP5 POP POP PUSH1 0x60 PUSH2 0x21E3 DUP12 DUP3 DUP13 ADD PUSH2 0x19EE JUMP JUMPDEST SWAP3 POP POP PUSH1 0x80 PUSH2 0x21F4 DUP12 DUP3 DUP13 ADD PUSH2 0x19EE JUMP JUMPDEST SWAP2 POP POP SWAP3 SWAP6 SWAP9 POP SWAP3 SWAP6 SWAP9 SWAP1 SWAP4 SWAP7 POP JUMP JUMPDEST PUSH0 PUSH8 0xFFFFFFFFFFFFFFFF DUP3 GT ISZERO PUSH2 0x221E JUMPI PUSH2 0x221D PUSH2 0x1C5C JUMP JUMPDEST JUMPDEST PUSH1 0x20 DUP3 MUL SWAP1 POP PUSH1 0x20 DUP2 ADD SWAP1 POP SWAP2 SWAP1 POP JUMP JUMPDEST PUSH0 PUSH2 0x2241 PUSH2 0x223C DUP5 PUSH2 0x2204 JUMP JUMPDEST PUSH2 0x1CBA JUMP JUMPDEST SWAP1 POP DUP1 DUP4 DUP3 MSTORE PUSH1 0x20 DUP3 ADD SWAP1 POP PUSH1 0x20 DUP5 MUL DUP4 ADD DUP6 DUP2 GT ISZERO PUSH2 0x2264 JUMPI PUSH2 0x2263 PUSH2 0x1976 JUMP JUMPDEST JUMPDEST DUP4 JUMPDEST DUP2 DUP2 LT ISZERO PUSH2 0x228D JUMPI DUP1 PUSH2 0x2279 DUP9 DUP3 PUSH2 0x195A JUMP JUMPDEST DUP5 MSTORE PUSH1 0x20 DUP5 ADD SWAP4 POP POP PUSH1 0x20 DUP2 ADD SWAP1 POP PUSH2 0x2266 JUMP JUMPDEST POP POP POP SWAP4 SWAP3 POP POP POP JUMP JUMPDEST PUSH0 DUP3 PUSH1 0x1F DUP4 ADD SLT PUSH2 0x22AB JUMPI PUSH2 0x22AA PUSH2 0x196E JUMP JUMPDEST JUMPDEST DUP2 CALLDATALOAD PUSH2 0x22BB DUP5 DUP3 PUSH1 0x20 DUP7 ADD PUSH2 0x222F JUMP JUMPDEST SWAP2 POP POP SWAP3 SWAP2 POP POP JUMP JUMPDEST PUSH0 DUP1 PUSH0 DUP1 PUSH0 PUSH1 0xA0 DUP7 DUP9 SUB SLT ISZERO PUSH2 0x22DD JUMPI PUSH2 0x22DC PUSH2 0x18D9 JUMP JUMPDEST JUMPDEST PUSH0 PUSH2 0x22EA DUP9 DUP3 DUP10 ADD PUSH2 0x1927 JUMP JUMPDEST SWAP6 POP POP PUSH1 0x20 PUSH2 0x22FB DUP9 DUP3 DUP10 ADD PUSH2 0x1927 JUMP JUMPDEST SWAP5 POP POP PUSH1 0x40 DUP7 ADD CALLDATALOAD PUSH8 0xFFFFFFFFFFFFFFFF DUP2 GT ISZERO PUSH2 0x231C JUMPI PUSH2 0x231B PUSH2 0x18DD JUMP JUMPDEST JUMPDEST PUSH2 0x2328 DUP9 DUP3 DUP10 ADD PUSH2 0x2297 JUMP JUMPDEST SWAP4 POP POP PUSH1 0x60 DUP7 ADD CALLDATALOAD PUSH8 0xFFFFFFFFFFFFFFFF DUP2 GT ISZERO PUSH2 0x2349 JUMPI PUSH2 0x2348 PUSH2 0x18DD JUMP JUMPDEST JUMPDEST PUSH2 0x2355 DUP9 DUP3 DUP10 ADD PUSH2 0x2297 JUMP JUMPDEST SWAP3 POP POP PUSH1 0x80 DUP7 ADD CALLDATALOAD PUSH8 0xFFFFFFFFFFFFFFFF DUP2 GT ISZERO PUSH2 0x2376 JUMPI PUSH2 0x2375 PUSH2 0x18DD JUMP JUMPDEST JUMPDEST PUSH2 0x2382 DUP9 DUP3 DUP10 ADD PUSH2 0x1D53 JUMP JUMPDEST SWAP2 POP POP SWAP3 SWAP6 POP SWAP3 SWAP6 SWAP1 SWAP4 POP JUMP JUMPDEST PUSH0 DUP1 PUSH0 DUP1 PUSH0 PUSH1 0xA0 DUP7 DUP9 SUB SLT ISZERO PUSH2 0x23A8 JUMPI PUSH2 0x23A7 PUSH2 0x18D9 JUMP JUMPDEST JUMPDEST PUSH0 PUSH2 0x23B5 DUP9 DUP3 DUP10 ADD PUSH2 0x1927 JUMP JUMPDEST SWAP6 POP POP PUSH1 0x20 PUSH2 0x23C6 DUP9 DUP3 DUP10 ADD PUSH2 0x1927 JUMP JUMPDEST SWAP5 POP POP PUSH1 0x40 PUSH2 0x23D7 DUP9 DUP3 DUP10 ADD PUSH2 0x195A JUMP JUMPDEST SWAP4 POP POP PUSH1 0x60 PUSH2 0x23E8 DUP9 DUP3 DUP10 ADD PUSH2 0x195A JUMP JUMPDEST SWAP3 POP POP PUSH1 0x80 DUP7 ADD CALLDATALOAD PUSH8 0xFFFFFFFFFFFFFFFF DUP2 GT ISZERO PUSH2 0x2409 JUMPI PUSH2 0x2408 PUSH2 0x18DD JUMP JUMPDEST JUMPDEST PUSH2 0x2415 DUP9 DUP3 DUP10 ADD PUSH2 0x1D53 JUMP JUMPDEST SWAP2 POP POP SWAP3 SWAP6 POP SWAP3 SWAP6 SWAP1 SWAP4 POP JUMP JUMPDEST PUSH2 0x242B DUP2 PUSH2 0x1900 JUMP JUMPDEST DUP3 MSTORE POP POP JUMP JUMPDEST PUSH0 DUP3 DUP3 MSTORE PUSH1 0x20 DUP3 ADD SWAP1 POP SWAP3 SWAP2 POP POP JUMP JUMPDEST PUSH0 PUSH2 0x244C DUP4 DUP6 PUSH2 0x2431 JUMP JUMPDEST SWAP4 POP PUSH2 0x2459 DUP4 DUP6 DUP5 PUSH2 0x1D04 JUMP JUMPDEST PUSH2 0x2462 DUP4 PUSH2 0x1C4C JUMP JUMPDEST DUP5 ADD SWAP1 POP SWAP4 SWAP3 POP POP POP JUMP JUMPDEST PUSH0 PUSH1 0xA0 DUP3 ADD SWAP1 POP PUSH2 0x2480 PUSH0 DUP4 ADD DUP10 PUSH2 0x2422 JUMP JUMPDEST PUSH2 0x248D PUSH1 0x20 DUP4 ADD DUP9 PUSH2 0x1E91 JUMP JUMPDEST DUP2 DUP2 SUB PUSH1 0x40 DUP4 ADD MSTORE PUSH2 0x24A0 DUP2 DUP7 DUP9 PUSH2 0x2441 JUMP JUMPDEST SWAP1 POP PUSH2 0x24AF PUSH1 0x60 DUP4 ADD DUP6 PUSH2 0x1B5F JUMP JUMPDEST PUSH2 0x24BC PUSH1 0x80 DUP4 ADD DUP5 PUSH2 0x1E91 JUMP JUMPDEST SWAP8 SWAP7 POP POP POP POP POP POP POP JUMP JUMPDEST PUSH0 PUSH1 0x60 DUP3 ADD SWAP1 POP PUSH2 0x24DA PUSH0 DUP4 ADD DUP8 PUSH2 0x2422 JUMP JUMPDEST PUSH2 0x24E7 PUSH1 0x20 DUP4 ADD DUP7 PUSH2 0x1E91 JUMP JUMPDEST DUP2 DUP2 SUB PUSH1 0x40 DUP4 ADD MSTORE PUSH2 0x24FA DUP2 DUP5 DUP7 PUSH2 0x2441 JUMP JUMPDEST SWAP1 POP SWAP6 SWAP5 POP POP POP POP POP JUMP JUMPDEST PUSH0 PUSH1 0x20 DUP3 ADD SWAP1 POP PUSH2 0x2518 PUSH0 DUP4 ADD DUP5 PUSH2 0x2422 JUMP JUMPDEST SWAP3 SWAP2 POP POP JUMP JUMPDEST PUSH0 PUSH1 0x40 DUP3 ADD SWAP1 POP PUSH2 0x2531 PUSH0 DUP4 ADD DUP6 PUSH2 0x1E91 JUMP JUMPDEST PUSH2 0x253E PUSH1 0x20 DUP4 ADD DUP5 PUSH2 0x1E91 JUMP JUMPDEST SWAP4 SWAP3 POP POP POP JUMP JUMPDEST PUSH0 PUSH1 0xA0 DUP3 ADD SWAP1 POP PUSH2 0x2558 PUSH0 DUP4 ADD DUP10 PUSH2 0x2422 JUMP JUMPDEST PUSH2 0x2565 PUSH1 0x20 DUP4 ADD DUP9 PUSH2 0x1E91 JUMP JUMPDEST DUP2 DUP2 SUB PUSH1 0x40 DUP4 ADD MSTORE PUSH2 0x2578 DUP2 DUP7 DUP9 PUSH2 0x2441 JUMP JUMPDEST SWAP1 POP PUSH2 0x2587 PUSH1 0x60 DUP4 ADD DUP6 PUSH2 0x1B5F JUMP JUMPDEST PUSH2 0x2594 PUSH1 0x80 DUP4 ADD DUP5 PUSH2 0x1B5F JUMP JUMPDEST SWAP8 SWAP7 POP POP POP POP POP POP POP JUMP JUMPDEST PUSH0 PUSH1 0x60 DUP3 ADD SWAP1 POP PUSH2 0x25B2 PUSH0 DUP4 ADD DUP7 PUSH2 0x1E91 JUMP JUMPDEST PUSH2 0x25BF PUSH1 0x20 DUP4 ADD DUP6 PUSH2 0x1E91 JUMP JUMPDEST PUSH2 0x25CC PUSH1 0x40 DUP4 ADD DUP5 PUSH2 0x1E91 JUMP JUMPDEST SWAP5 SWAP4 POP POP POP POP JUMP JUMPDEST PUSH32 0x4E487B7100000000000000000000000000000000000000000000000000000000 PUSH0 MSTORE PUSH1 0x32 PUSH1 0x4 MSTORE PUSH1 0x24 PUSH0 REVERT JUMPDEST PUSH0 PUSH1 0x20 DUP3 DUP5 SUB SLT ISZERO PUSH2 0x2616 JUMPI PUSH2 0x2615 PUSH2 0x18D9 JUMP JUMPDEST JUMPDEST PUSH0 PUSH2 0x2623 DUP5 DUP3 DUP6 ADD PUSH2 0x1927 JUMP JUMPDEST SWAP2 POP POP SWAP3 SWAP2 POP POP JUMP JUMPDEST PUSH0 DUP1 REVERT JUMPDEST PUSH0 DUP1 REVERT JUMPDEST PUSH0 DUP1 REVERT JUMPDEST PUSH0 DUP1 DUP4 CALLDATALOAD PUSH1 0x1 PUSH1 0x20 SUB DUP5 CALLDATASIZE SUB SUB DUP2 SLT PUSH2 0x2654 JUMPI PUSH2 0x2653 PUSH2 0x262C JUMP JUMPDEST JUMPDEST DUP1 DUP5 ADD SWAP3 POP DUP3 CALLDATALOAD SWAP2 POP PUSH8 0xFFFFFFFFFFFFFFFF DUP3 GT ISZERO PUSH2 0x2676 JUMPI PUSH2 0x2675 PUSH2 0x2630 JUMP JUMPDEST JUMPDEST PUSH1 0x20 DUP4 ADD SWAP3 POP PUSH1 0x1 DUP3 MUL CALLDATASIZE SUB DUP4 SGT ISZERO PUSH2 0x2692 JUMPI PUSH2 0x2691 PUSH2 0x2634 JUMP JUMPDEST JUMPDEST POP SWAP3 POP SWAP3 SWAP1 POP JUMP JUMPDEST PUSH0 DUP3 DUP3 MSTORE PUSH1 0x20 DUP3 ADD SWAP1 POP SWAP3 SWAP2 POP POP JUMP JUMPDEST PUSH0 DUP2 SWAP1 POP SWAP2 SWAP1 POP JUMP JUMPDEST PUSH2 0x26BC DUP2 PUSH2 0x1900 JUMP JUMPDEST DUP3 MSTORE POP POP JUMP JUMPDEST PUSH0 PUSH2 0x26CD DUP4 DUP4 PUSH2 0x26B3 JUMP JUMPDEST PUSH1 0x20 DUP4 ADD SWAP1 POP SWAP3 SWAP2 POP POP JUMP JUMPDEST PUSH0 PUSH2 0x26E7 PUSH1 0x20 DUP5 ADD DUP5 PUSH2 0x1927 JUMP JUMPDEST SWAP1 POP SWAP3 SWAP2 POP POP JUMP JUMPDEST PUSH0 PUSH1 0x20 DUP3 ADD SWAP1 POP SWAP2 SWAP1 POP JUMP JUMPDEST PUSH0 PUSH2 0x2706 DUP4 DUP6 PUSH2 0x269A JUMP JUMPDEST SWAP4 POP PUSH2 0x2711 DUP3 PUSH2 0x26AA JUMP JUMPDEST DUP1 PUSH0 JUMPDEST DUP6 DUP2 LT ISZERO PUSH2 0x2749 JUMPI PUSH2 0x2726 DUP3 DUP5 PUSH2 0x26D9 JUMP JUMPDEST PUSH2 0x2730 DUP9 DUP3 PUSH2 0x26C2 JUMP JUMPDEST SWAP8 POP PUSH2 0x273B DUP4 PUSH2 0x26EF JUMP JUMPDEST SWAP3 POP POP PUSH1 0x1 DUP2 ADD SWAP1 POP PUSH2 0x2714 JUMP JUMPDEST POP DUP6 SWAP3 POP POP POP SWAP4 SWAP3 POP POP POP JUMP JUMPDEST PUSH0 DUP3 DUP3 MSTORE PUSH1 0x20 DUP3 ADD SWAP1 POP SWAP3 SWAP2 POP POP JUMP JUMPDEST PUSH0 DUP1 REVERT JUMPDEST DUP3 DUP2 DUP4 CALLDATACOPY POP POP POP JUMP JUMPDEST PUSH0 PUSH2 0x277E DUP4 DUP6 PUSH2 0x2756 JUMP JUMPDEST SWAP4 POP PUSH32 0x7FFFFFFFFFFFFFFFFFFFFFFFFFFFFFFFFFFFFFFFFFFFFFFFFFFFFFFFFFFFFFF DUP4 GT ISZERO PUSH2 0x27B1 JUMPI PUSH2 0x27B0 PUSH2 0x2766 JUMP JUMPDEST JUMPDEST PUSH1 0x20 DUP4 MUL SWAP3 POP PUSH2 0x27C2 DUP4 DUP6 DUP5 PUSH2 0x276A JUMP JUMPDEST DUP3 DUP5 ADD SWAP1 POP SWAP4 SWAP3 POP POP POP JUMP JUMPDEST PUSH0 DUP3 DUP3 MSTORE PUSH1 0x20 DUP3 ADD SWAP1 POP SWAP3 SWAP2 POP POP JUMP JUMPDEST PUSH0 DUP2 SWAP1 POP SWAP2 SWAP1 POP JUMP JUMPDEST PUSH0 DUP3 DUP3 MSTORE PUSH1 0x20 DUP3 ADD SWAP1 POP SWAP3 SWAP2 POP POP JUMP JUMPDEST PUSH0 PUSH2 0x2802 DUP4 DUP6 PUSH2 0x27E7 JUMP JUMPDEST SWAP4 POP PUSH2 0x280F DUP4 DUP6 DUP5 PUSH2 0x1D04 JUMP JUMPDEST PUSH2 0x2818 DUP4 PUSH2 0x1C4C JUMP JUMPDEST DUP5 ADD SWAP1 POP SWAP4 SWAP3 POP POP POP JUMP JUMPDEST PUSH0 PUSH2 0x282F DUP5 DUP5 DUP5 PUSH2 0x27F7 JUMP JUMPDEST SWAP1 POP SWAP4 SWAP3 POP POP POP JUMP JUMPDEST PUSH0 DUP1 REVERT JUMPDEST PUSH0 DUP1 REVERT JUMPDEST PUSH0 DUP1 REVERT JUMPDEST PUSH0 DUP1 DUP4 CALLDATALOAD PUSH1 0x1 PUSH1 0x20 SUB DUP5 CALLDATASIZE SUB SUB DUP2 SLT PUSH2 0x2860 JUMPI PUSH2 0x285F PUSH2 0x2840 JUMP JUMPDEST JUMPDEST DUP4 DUP2 ADD SWAP3 POP DUP3 CALLDATALOAD SWAP2 POP PUSH1 0x20 DUP4 ADD SWAP3 POP PUSH8 0xFFFFFFFFFFFFFFFF DUP3 GT ISZERO PUSH2 0x2888 JUMPI PUSH2 0x2887 PUSH2 0x2838 JUMP JUMPDEST JUMPDEST PUSH1 0x1 DUP3 MUL CALLDATASIZE SUB DUP4 SGT ISZERO PUSH2 0x289E JUMPI PUSH2 0x289D PUSH2 0x283C JUMP JUMPDEST JUMPDEST POP SWAP3 POP SWAP3 SWAP1 POP JUMP JUMPDEST PUSH0 PUSH1 0x20 DUP3 ADD SWAP1 POP SWAP2 SWAP1 POP JUMP JUMPDEST PUSH0 PUSH2 0x28BD DUP4 DUP6 PUSH2 0x27CE JUMP JUMPDEST SWAP4 POP DUP4 PUSH1 0x20 DUP5 MUL DUP6 ADD PUSH2 0x28CF DUP5 PUSH2 0x27DE JUMP JUMPDEST DUP1 PUSH0 JUMPDEST DUP8 DUP2 LT ISZERO PUSH2 0x2914 JUMPI DUP5 DUP5 SUB DUP10 MSTORE PUSH2 0x28E9 DUP3 DUP5 PUSH2 0x2844 JUMP JUMPDEST PUSH2 0x28F4 DUP7 DUP3 DUP5 PUSH2 0x2823 JUMP JUMPDEST SWAP6 POP PUSH2 0x28FF DUP5 PUSH2 0x28A6 JUMP JUMPDEST SWAP4 POP PUSH1 0x20 DUP12 ADD SWAP11 POP POP POP PUSH1 0x1 DUP2 ADD SWAP1 POP PUSH2 0x28D2 JUMP JUMPDEST POP DUP3 SWAP8 POP DUP8 SWAP5 POP POP POP POP POP SWAP4 SWAP3 POP POP POP JUMP JUMPDEST PUSH0 PUSH1 0xA0 DUP3 ADD SWAP1 POP DUP2 DUP2 SUB PUSH0 DUP4 ADD MSTORE PUSH2 0x293F DUP2 DUP11 DUP13 PUSH2 0x26FB JUMP JUMPDEST SWAP1 POP DUP2 DUP2 SUB PUSH1 0x20 DUP4 ADD MSTORE PUSH2 0x2954 DUP2 DUP9 DUP11 PUSH2 0x2773 JUMP JUMPDEST SWAP1 POP DUP2 DUP2 SUB PUSH1 0x40 DUP4 ADD MSTORE PUSH2 0x2969 DUP2 DUP7 DUP9 PUSH2 0x28B2 JUMP JUMPDEST SWAP1 POP PUSH2 0x2978 PUSH1 0x60 DUP4 ADD DUP6 PUSH2 0x1B5F JUMP JUMPDEST PUSH2 0x2985 PUSH1 0x80 DUP4 ADD DUP5 PUSH2 0x1B5F JUMP JUMPDEST SWAP10 SWAP9 POP POP POP POP POP POP POP POP POP JUMP JUMPDEST PUSH0 PUSH1 0x40 DUP3 ADD SWAP1 POP PUSH2 0x29A5 PUSH0 DUP4 ADD DUP6 PUSH2 0x1B5F JUMP JUMPDEST PUSH2 0x29B2 PUSH1 0x20 DUP4 ADD DUP5 PUSH2 0x1B5F JUMP JUMPDEST SWAP4 SWAP3 POP POP POP JUMP JUMPDEST PUSH32 0x4E487B7100000000000000000000000000000000000000000000000000000000 PUSH0 MSTORE PUSH1 0x11 PUSH1 0x4 MSTORE PUSH1 0x24 PUSH0 REVERT JUMPDEST PUSH0 PUSH2 0x29F0 DUP3 PUSH2 0x193B JUMP JUMPDEST SWAP2 POP PUSH2 0x29FB DUP4 PUSH2 0x193B JUMP JUMPDEST SWAP3 POP DUP3 DUP3 ADD SWAP1 POP DUP1 DUP3 GT ISZERO PUSH2 0x2A13 JUMPI PUSH2 0x2A12 PUSH2 0x29B9 JUMP JUMPDEST JUMPDEST SWAP3 SWAP2 POP POP JUMP JUMPDEST PUSH0 PUSH1 0x40 DUP3 ADD SWAP1 POP PUSH2 0x2A2C PUSH0 DUP4 ADD DUP6 PUSH2 0x2422 JUMP JUMPDEST PUSH2 0x2A39 PUSH1 0x20 DUP4 ADD DUP5 PUSH2 0x1B5F JUMP JUMPDEST SWAP4 SWAP3 POP POP POP JUMP JUMPDEST PUSH0 DUP2 SWAP1 POP SWAP3 SWAP2 POP POP JUMP JUMPDEST PUSH0 PUSH2 0x2A55 DUP4 DUP6 PUSH2 0x2A40 JUMP JUMPDEST SWAP4 POP PUSH2 0x2A62 DUP4 DUP6 DUP5 PUSH2 0x1D04 JUMP JUMPDEST DUP3 DUP5 ADD SWAP1 POP SWAP4 SWAP3 POP POP POP JUMP JUMPDEST PUSH0 PUSH2 0x2A7A DUP3 DUP5 DUP7 PUSH2 0x2A4A JUMP JUMPDEST SWAP2 POP DUP2 SWAP1 POP SWAP4 SWAP3 POP POP POP JUMP INVALID LOG2 PUSH5 0x6970667358 0x22 SLT KECCAK256 0xCD DUP9 ORIGIN ORIGIN 0xCD PUSH8 0x8BADCAF7BA870F0D JUMPDEST DUP7 EQ 0xC9 PUSH27 0x58B7202151E7A4B6518989687464736F6C63430008180033000000 "},"methodIdentifiers":{"ADMIN_ROLE()":"75b238fc","CANCELLER_ROLE()":"b08e51c0","DEFAULT_ADMIN_ROLE()":"a217fddf","DELAY()":"69b41170","EXECUTOR_ROLE()":"07bd0265","PROPOSER_ROLE()":"8f61f4f5","cancel(bytes32)":"c4d252f5","execute(address,uint256,bytes,bytes32,bytes32)":"134008d3","executeBatch(address[],uint256[],bytes[],bytes32,bytes32)":"e38335e5","getMinDelay()":"f27a0c92","getOperationState(bytes32)":"7958004c","getRoleAdmin(bytes32)":"248a9ca3","getTimestamp(bytes32)":"d45c4435","grantRole(bytes32,address)":"2f2ff15d","hasRole(bytes32,address)":"91d14854","hashOperation(address,uint256,bytes,bytes32,bytes32)":"8065657f","hashOperationBatch(address[],uint256[],bytes[],bytes32,bytes32)":"b1c5f427","isOperation(bytes32)":"31d50750","isOperationDone(bytes32)":"2ab0f529","isOperationPending(bytes32)":"584b153e","isOperationReady(bytes32)":"13bc9f20","onERC1155BatchReceived(address,address,uint256[],uint256[],bytes)":"bc197c81","onERC1155Received(address,address,uint256,uint256,bytes)":"f23a6e61","onERC721Received(address,address,uint256,bytes)":"150b7a02","renounceRole(bytes32,address)":"36568abe","revokeRole(bytes32,address)":"d547741f","schedule(address,uint256,bytes,bytes32,bytes32,uint256)":"01d5062a","scheduleBatch(address[],uint256[],bytes[],bytes32,bytes32,uint256)":"8f2a0bb0","supportsInterface(bytes4)":"01ffc9a7","updateDelay(uint256)":"64d62353"}}}}}