{
  "_format": "hh3-artifact-1",
  "contractName": "JanusInsuranceFund",
  "sourceName": "contracts/JanusInsuranceFund.sol",
  "abi": [
    {
      "inputs": [
        {
          "internalType": "address",
          "name": "_usdc",
          "type": "address"
        },
        {
          "internalType": "address",
          "name": "_vault",
          "type": "address"
        }
      ],
      "stateMutability": "nonpayable",
      "type": "constructor"
    },
    {
      "inputs": [
        {
          "internalType": "address",
          "name": "target",
          "type": "address"
        }
      ],
      "name": "AddressEmptyCode",
      "type": "error"
    },
    {
      "inputs": [
        {
          "internalType": "address",
          "name": "account",
          "type": "address"
        }
      ],
      "name": "AddressInsufficientBalance",
      "type": "error"
    },
    {
      "inputs": [],
      "name": "FailedInnerCall",
      "type": "error"
    },
    {
      "inputs": [
        {
          "internalType": "address",
          "name": "owner",
          "type": "address"
        }
      ],
      "name": "OwnableInvalidOwner",
      "type": "error"
    },
    {
      "inputs": [
        {
          "internalType": "address",
          "name": "account",
          "type": "address"
        }
      ],
      "name": "OwnableUnauthorizedAccount",
      "type": "error"
    },
    {
      "inputs": [
        {
          "internalType": "address",
          "name": "token",
          "type": "address"
        }
      ],
      "name": "SafeERC20FailedOperation",
      "type": "error"
    },
    {
      "anonymous": false,
      "inputs": [
        {
          "indexed": true,
          "internalType": "uint256",
          "name": "claimId",
          "type": "uint256"
        },
        {
          "indexed": false,
          "internalType": "uint256",
          "name": "amount",
          "type": "uint256"
        }
      ],
      "name": "ClaimApproved",
      "type": "event"
    },
    {
      "anonymous": false,
      "inputs": [
        {
          "indexed": true,
          "internalType": "uint256",
          "name": "claimId",
          "type": "uint256"
        },
        {
          "indexed": true,
          "internalType": "address",
          "name": "claimer",
          "type": "address"
        },
        {
          "indexed": false,
          "internalType": "uint256",
          "name": "amount",
          "type": "uint256"
        }
      ],
      "name": "ClaimPaid",
      "type": "event"
    },
    {
      "anonymous": false,
      "inputs": [
        {
          "indexed": true,
          "internalType": "uint256",
          "name": "claimId",
          "type": "uint256"
        },
        {
          "indexed": true,
          "internalType": "address",
          "name": "claimer",
          "type": "address"
        },
        {
          "indexed": false,
          "internalType": "uint256",
          "name": "amount",
          "type": "uint256"
        }
      ],
      "name": "ClaimSubmitted",
      "type": "event"
    },
    {
      "anonymous": false,
      "inputs": [
        {
          "indexed": false,
          "internalType": "uint256",
          "name": "amount",
          "type": "uint256"
        }
      ],
      "name": "InsuranceFunded",
      "type": "event"
    },
    {
      "anonymous": false,
      "inputs": [
        {
          "indexed": true,
          "internalType": "address",
          "name": "previousOwner",
          "type": "address"
        },
        {
          "indexed": true,
          "internalType": "address",
          "name": "newOwner",
          "type": "address"
        }
      ],
      "name": "OwnershipTransferred",
      "type": "event"
    },
    {
      "inputs": [
        {
          "internalType": "uint256",
          "name": "claimId",
          "type": "uint256"
        }
      ],
      "name": "approveClaim",
      "outputs": [],
      "stateMutability": "nonpayable",
      "type": "function"
    },
    {
      "inputs": [
        {
          "internalType": "uint256",
          "name": "",
          "type": "uint256"
        }
      ],
      "name": "claimApproved",
      "outputs": [
        {
          "internalType": "bool",
          "name": "",
          "type": "bool"
        }
      ],
      "stateMutability": "view",
      "type": "function"
    },
    {
      "inputs": [
        {
          "internalType": "uint256",
          "name": "",
          "type": "uint256"
        }
      ],
      "name": "claims",
      "outputs": [
        {
          "internalType": "uint256",
          "name": "id",
          "type": "uint256"
        },
        {
          "internalType": "address",
          "name": "claimer",
          "type": "address"
        },
        {
          "internalType": "uint256",
          "name": "amount",
          "type": "uint256"
        },
        {
          "internalType": "string",
          "name": "reason",
          "type": "string"
        },
        {
          "internalType": "uint256",
          "name": "timestamp",
          "type": "uint256"
        },
        {
          "internalType": "bool",
          "name": "approved",
          "type": "bool"
        },
        {
          "internalType": "bool",
          "name": "paid",
          "type": "bool"
        }
      ],
      "stateMutability": "view",
      "type": "function"
    },
    {
      "inputs": [
        {
          "internalType": "uint256",
          "name": "amount",
          "type": "uint256"
        }
      ],
      "name": "depositInsurance",
      "outputs": [],
      "stateMutability": "nonpayable",
      "type": "function"
    },
    {
      "inputs": [],
      "name": "getAvailableBalance",
      "outputs": [
        {
          "internalType": "uint256",
          "name": "",
          "type": "uint256"
        }
      ],
      "stateMutability": "view",
      "type": "function"
    },
    {
      "inputs": [
        {
          "internalType": "uint256",
          "name": "claimId",
          "type": "uint256"
        }
      ],
      "name": "getClaim",
      "outputs": [
        {
          "internalType": "address",
          "name": "claimer",
          "type": "address"
        },
        {
          "internalType": "uint256",
          "name": "amount",
          "type": "uint256"
        },
        {
          "internalType": "string",
          "name": "reason",
          "type": "string"
        },
        {
          "internalType": "bool",
          "name": "approved",
          "type": "bool"
        },
        {
          "internalType": "bool",
          "name": "paid",
          "type": "bool"
        }
      ],
      "stateMutability": "view",
      "type": "function"
    },
    {
      "inputs": [],
      "name": "getClaimCount",
      "outputs": [
        {
          "internalType": "uint256",
          "name": "",
          "type": "uint256"
        }
      ],
      "stateMutability": "view",
      "type": "function"
    },
    {
      "inputs": [],
      "name": "owner",
      "outputs": [
        {
          "internalType": "address",
          "name": "",
          "type": "address"
        }
      ],
      "stateMutability": "view",
      "type": "function"
    },
    {
      "inputs": [
        {
          "internalType": "uint256",
          "name": "claimId",
          "type": "uint256"
        }
      ],
      "name": "payClaim",
      "outputs": [],
      "stateMutability": "nonpayable",
      "type": "function"
    },
    {
      "inputs": [],
      "name": "renounceOwnership",
      "outputs": [],
      "stateMutability": "nonpayable",
      "type": "function"
    },
    {
      "inputs": [
        {
          "internalType": "uint256",
          "name": "amount",
          "type": "uint256"
        },
        {
          "internalType": "string",
          "name": "reason",
          "type": "string"
        }
      ],
      "name": "submitClaim",
      "outputs": [
        {
          "internalType": "uint256",
          "name": "claimId",
          "type": "uint256"
        }
      ],
      "stateMutability": "nonpayable",
      "type": "function"
    },
    {
      "inputs": [],
      "name": "totalClaimed",
      "outputs": [
        {
          "internalType": "uint256",
          "name": "",
          "type": "uint256"
        }
      ],
      "stateMutability": "view",
      "type": "function"
    },
    {
      "inputs": [],
      "name": "totalInsured",
      "outputs": [
        {
          "internalType": "uint256",
          "name": "",
          "type": "uint256"
        }
      ],
      "stateMutability": "view",
      "type": "function"
    },
    {
      "inputs": [
        {
          "internalType": "address",
          "name": "newOwner",
          "type": "address"
        }
      ],
      "name": "transferOwnership",
      "outputs": [],
      "stateMutability": "nonpayable",
      "type": "function"
    },
    {
      "inputs": [],
      "name": "usdc",
      "outputs": [
        {
          "internalType": "contract IERC20",
          "name": "",
          "type": "address"
        }
      ],
      "stateMutability": "view",
      "type": "function"
    },
    {
      "inputs": [],
      "name": "vaultAddress",
      "outputs": [
        {
          "internalType": "address",
          "name": "",
          "type": "address"
        }
      ],
      "stateMutability": "view",
      "type": "function"
    }
  ],
  "bytecode": "0x60a060405234801562000010575f80fd5b50604051620022b2380380620022b283398181016040528101906200003691906200025e565b335f73ffffffffffffffffffffffffffffffffffffffff168173ffffffffffffffffffffffffffffffffffffffff1603620000aa575f6040517f1e4fbdf7000000000000000000000000000000000000000000000000000000008152600401620000a19190620002b4565b60405180910390fd5b620000bb816200013860201b60201c565b508173ffffffffffffffffffffffffffffffffffffffff1660808173ffffffffffffffffffffffffffffffffffffffff16815250508060015f6101000a81548173ffffffffffffffffffffffffffffffffffffffff021916908373ffffffffffffffffffffffffffffffffffffffff1602179055505050620002cf565b5f805f9054906101000a900473ffffffffffffffffffffffffffffffffffffffff169050815f806101000a81548173ffffffffffffffffffffffffffffffffffffffff021916908373ffffffffffffffffffffffffffffffffffffffff1602179055508173ffffffffffffffffffffffffffffffffffffffff168173ffffffffffffffffffffffffffffffffffffffff167f8be0079c531659141344cd1fd0a4f28419497f9722a3daafe3b4186f6b6457e060405160405180910390a35050565b5f80fd5b5f73ffffffffffffffffffffffffffffffffffffffff82169050919050565b5f6200022882620001fd565b9050919050565b6200023a816200021c565b811462000245575f80fd5b50565b5f8151905062000258816200022f565b92915050565b5f8060408385031215620002775762000276620001f9565b5b5f620002868582860162000248565b9250506020620002998582860162000248565b9150509250929050565b620002ae816200021c565b82525050565b5f602082019050620002c95f830184620002a3565b92915050565b608051611fbc620002f65f395f818161040e015281816104a70152610d490152611fbc5ff3fe608060405234801561000f575f80fd5b50600436106100fe575f3560e01c8063809dab6a11610095578063ba4611d911610064578063ba4611d9146102a4578063d54ad2a1146102c2578063d70356cc146102e0578063f2fde38b146102fc576100fe565b8063809dab6a146102145780638da5cb5b1461023257806390b495f214610250578063a888c2cd1461026e576100fe565b806345b46525116100d157806345b465251461018a57806346e30135146101ba5780635aef2447146101d6578063715018a61461020a576100fe565b80630817e4db146101025780630ae40be1146101325780633e413bee1461014e578063430bf08a1461016c575b5f80fd5b61011c600480360381019061011791906113a0565b610318565b60405161012991906113e5565b60405180910390f35b61014c600480360381019061014791906113a0565b610335565b005b6101566104a5565b6040516101639190611478565b60405180910390f35b6101746104c9565b60405161018191906114b1565b60405180910390f35b6101a4600480360381019061019f9190611606565b6104ee565b6040516101b1919061166f565b60405180910390f35b6101d460048036038101906101cf91906113a0565b61070e565b005b6101f060048036038101906101eb91906113a0565b610866565b604051610201959493929190611702565b60405180910390f35b6102126109c4565b005b61021c6109d7565b604051610229919061166f565b60405180910390f35b61023a6109ed565b60405161024791906114b1565b60405180910390f35b610258610a14565b604051610265919061166f565b60405180910390f35b610288600480360381019061028391906113a0565b610a1a565b60405161029b979695949392919061175a565b60405180910390f35b6102ac610b25565b6040516102b9919061166f565b60405180910390f35b6102ca610b31565b6040516102d7919061166f565b60405180910390f35b6102fa60048036038101906102f591906113a0565b610b37565b005b610316600480360381019061031191906117f8565b610e44565b005b6005602052805f5260405f205f915054906101000a900460ff1681565b60015f9054906101000a900473ffffffffffffffffffffffffffffffffffffffff1673ffffffffffffffffffffffffffffffffffffffff163373ffffffffffffffffffffffffffffffffffffffff16146103c4576040517f08c379a00000000000000000000000000000000000000000000000000000000081526004016103bb9061186d565b60405180910390fd5b5f8111610406576040517f08c379a00000000000000000000000000000000000000000000000000000000081526004016103fd906118d5565b60405180910390fd5b6104533330837f000000000000000000000000000000000000000000000000000000000000000073ffffffffffffffffffffffffffffffffffffffff16610ec8909392919063ffffffff16565b8060025f8282546104649190611920565b925050819055507f242ce02408255b066ab2bc0fd77dc92226e484af59a4a4a89789ae4e5a3d7ed68160405161049a919061166f565b60405180910390a150565b7f000000000000000000000000000000000000000000000000000000000000000081565b60015f9054906101000a900473ffffffffffffffffffffffffffffffffffffffff1681565b5f808311610531576040517f08c379a0000000000000000000000000000000000000000000000000000000008152600401610528906118d5565b60405180910390fd5b6003546002546105419190611953565b831115610583576040517f08c379a000000000000000000000000000000000000000000000000000000000815260040161057a906119d0565b60405180910390fd5b600480549050905060046040518060e001604052808381526020013373ffffffffffffffffffffffffffffffffffffffff1681526020018581526020018481526020014281526020015f151581526020015f1515815250908060018154018082558091505060019003905f5260205f2090600602015f909190919091505f820151815f01556020820151816001015f6101000a81548173ffffffffffffffffffffffffffffffffffffffff021916908373ffffffffffffffffffffffffffffffffffffffff16021790555060408201518160020155606082015181600301908161066d9190611bdf565b506080820151816004015560a0820151816005015f6101000a81548160ff02191690831515021790555060c08201518160050160016101000a81548160ff02191690831515021790555050503373ffffffffffffffffffffffffffffffffffffffff16817f01bc0f9d4f6b0c66e2bda5f433d9760d7eb48e89b73ffea517a7ba5e4fe0657d85604051610700919061166f565b60405180910390a392915050565b610716610f4a565b600480549050811061075d576040517f08c379a000000000000000000000000000000000000000000000000000000000815260040161075490611cf8565b60405180910390fd5b6004818154811061077157610770611d16565b5b905f5260205f2090600602016005015f9054906101000a900460ff16156107cd576040517f08c379a00000000000000000000000000000000000000000000000000000000081526004016107c490611d8d565b60405180910390fd5b6001600482815481106107e3576107e2611d16565b5b905f5260205f2090600602016005015f6101000a81548160ff021916908315150217905550807f638d892b8630b775fea5d7a52b209e8bfa1d90c32b57cd37208ac84d4bcd6dcb6004838154811061083e5761083d611d16565b5b905f5260205f2090600602016002015460405161085b919061166f565b60405180910390a250565b5f8060605f8060048054905086106108b3576040517f08c379a00000000000000000000000000000000000000000000000000000000081526004016108aa90611cf8565b60405180910390fd5b5f600487815481106108c8576108c7611d16565b5b905f5260205f2090600602019050806001015f9054906101000a900473ffffffffffffffffffffffffffffffffffffffff16816002015482600301836005015f9054906101000a900460ff168460050160019054906101000a900460ff1682805461093290611a1b565b80601f016020809104026020016040519081016040528092919081815260200182805461095e90611a1b565b80156109a95780601f10610980576101008083540402835291602001916109a9565b820191905f5260205f20905b81548152906001019060200180831161098c57829003601f168201915b50505050509250955095509550955095505091939590929450565b6109cc610f4a565b6109d55f610fd1565b565b5f6003546002546109e89190611953565b905090565b5f805f9054906101000a900473ffffffffffffffffffffffffffffffffffffffff16905090565b60025481565b60048181548110610a29575f80fd5b905f5260205f2090600602015f91509050805f015490806001015f9054906101000a900473ffffffffffffffffffffffffffffffffffffffff1690806002015490806003018054610a7990611a1b565b80601f0160208091040260200160405190810160405280929190818152602001828054610aa590611a1b565b8015610af05780601f10610ac757610100808354040283529160200191610af0565b820191905f5260205f20905b815481529060010190602001808311610ad357829003601f168201915b505050505090806004015490806005015f9054906101000a900460ff16908060050160019054906101000a900460ff16905087565b5f600480549050905090565b60035481565b610b3f610f4a565b6004805490508110610b86576040517f08c379a0000000000000000000000000000000000000000000000000000000008152600401610b7d90611cf8565b60405180910390fd5b60048181548110610b9a57610b99611d16565b5b905f5260205f2090600602016005015f9054906101000a900460ff16610bf5576040517f08c379a0000000000000000000000000000000000000000000000000000000008152600401610bec90611df5565b60405180910390fd5b60048181548110610c0957610c08611d16565b5b905f5260205f20906006020160050160019054906101000a900460ff1615610c66576040517f08c379a0000000000000000000000000000000000000000000000000000000008152600401610c5d90611e5d565b60405180910390fd5b600160048281548110610c7c57610c7b611d16565b5b905f5260205f20906006020160050160016101000a81548160ff02191690831515021790555060048181548110610cb657610cb5611d16565b5b905f5260205f2090600602016002015460035f828254610cd69190611920565b92505081905550610d8d60048281548110610cf457610cf3611d16565b5b905f5260205f2090600602016001015f9054906101000a900473ffffffffffffffffffffffffffffffffffffffff1660048381548110610d3757610d36611d16565b5b905f5260205f209060060201600201547f000000000000000000000000000000000000000000000000000000000000000073ffffffffffffffffffffffffffffffffffffffff166110929092919063ffffffff16565b60048181548110610da157610da0611d16565b5b905f5260205f2090600602016001015f9054906101000a900473ffffffffffffffffffffffffffffffffffffffff1673ffffffffffffffffffffffffffffffffffffffff16817faf3c8fdd75d667f71d36d7840b8ef9086c516c9b047ad6a83a5a66151342123a60048481548110610e1c57610e1b611d16565b5b905f5260205f20906006020160020154604051610e39919061166f565b60405180910390a350565b610e4c610f4a565b5f73ffffffffffffffffffffffffffffffffffffffff168173ffffffffffffffffffffffffffffffffffffffff1603610ebc575f6040517f1e4fbdf7000000000000000000000000000000000000000000000000000000008152600401610eb391906114b1565b60405180910390fd5b610ec581610fd1565b50565b610f44848573ffffffffffffffffffffffffffffffffffffffff166323b872dd868686604051602401610efd93929190611e7b565b604051602081830303815290604052915060e01b6020820180517bffffffffffffffffffffffffffffffffffffffffffffffffffffffff8381831617835250505050611111565b50505050565b610f526111a6565b73ffffffffffffffffffffffffffffffffffffffff16610f706109ed565b73ffffffffffffffffffffffffffffffffffffffff1614610fcf57610f936111a6565b6040517f118cdaa7000000000000000000000000000000000000000000000000000000008152600401610fc691906114b1565b60405180910390fd5b565b5f805f9054906101000a900473ffffffffffffffffffffffffffffffffffffffff169050815f806101000a81548173ffffffffffffffffffffffffffffffffffffffff021916908373ffffffffffffffffffffffffffffffffffffffff1602179055508173ffffffffffffffffffffffffffffffffffffffff168173ffffffffffffffffffffffffffffffffffffffff167f8be0079c531659141344cd1fd0a4f28419497f9722a3daafe3b4186f6b6457e060405160405180910390a35050565b61110c838473ffffffffffffffffffffffffffffffffffffffff1663a9059cbb85856040516024016110c5929190611eb0565b604051602081830303815290604052915060e01b6020820180517bffffffffffffffffffffffffffffffffffffffffffffffffffffffff8381831617835250505050611111565b505050565b5f61113b828473ffffffffffffffffffffffffffffffffffffffff166111ad90919063ffffffff16565b90505f81511415801561115f57508080602001905181019061115d9190611f01565b155b156111a157826040517f5274afe700000000000000000000000000000000000000000000000000000000815260040161119891906114b1565b60405180910390fd5b505050565b5f33905090565b60606111ba83835f6111c2565b905092915050565b60608147101561120957306040517fcd78605900000000000000000000000000000000000000000000000000000000815260040161120091906114b1565b60405180910390fd5b5f808573ffffffffffffffffffffffffffffffffffffffff1684866040516112319190611f70565b5f6040518083038185875af1925050503d805f811461126b576040519150601f19603f3d011682016040523d82523d5f602084013e611270565b606091505b509150915061128086838361128b565b925050509392505050565b6060826112a05761129b82611318565b611310565b5f82511480156112c657505f8473ffffffffffffffffffffffffffffffffffffffff163b145b1561130857836040517f9996b3150000000000000000000000000000000000000000000000000000000081526004016112ff91906114b1565b60405180910390fd5b819050611311565b5b9392505050565b5f8151111561132a5780518082602001fd5b6040517f1425ea4200000000000000000000000000000000000000000000000000000000815260040160405180910390fd5b5f604051905090565b5f80fd5b5f80fd5b5f819050919050565b61137f8161136d565b8114611389575f80fd5b50565b5f8135905061139a81611376565b92915050565b5f602082840312156113b5576113b4611365565b5b5f6113c28482850161138c565b91505092915050565b5f8115159050919050565b6113df816113cb565b82525050565b5f6020820190506113f85f8301846113d6565b92915050565b5f73ffffffffffffffffffffffffffffffffffffffff82169050919050565b5f819050919050565b5f61144061143b611436846113fe565b61141d565b6113fe565b9050919050565b5f61145182611426565b9050919050565b5f61146282611447565b9050919050565b61147281611458565b82525050565b5f60208201905061148b5f830184611469565b92915050565b5f61149b826113fe565b9050919050565b6114ab81611491565b82525050565b5f6020820190506114c45f8301846114a2565b92915050565b5f80fd5b5f80fd5b5f601f19601f8301169050919050565b7f4e487b71000000000000000000000000000000000000000000000000000000005f52604160045260245ffd5b611518826114d2565b810181811067ffffffffffffffff82111715611537576115366114e2565b5b80604052505050565b5f61154961135c565b9050611555828261150f565b919050565b5f67ffffffffffffffff821115611574576115736114e2565b5b61157d826114d2565b9050602081019050919050565b828183375f83830152505050565b5f6115aa6115a58461155a565b611540565b9050828152602081018484840111156115c6576115c56114ce565b5b6115d184828561158a565b509392505050565b5f82601f8301126115ed576115ec6114ca565b5b81356115fd848260208601611598565b91505092915050565b5f806040838503121561161c5761161b611365565b5b5f6116298582860161138c565b925050602083013567ffffffffffffffff81111561164a57611649611369565b5b611656858286016115d9565b9150509250929050565b6116698161136d565b82525050565b5f6020820190506116825f830184611660565b92915050565b5f81519050919050565b5f82825260208201905092915050565b5f5b838110156116bf5780820151818401526020810190506116a4565b5f8484015250505050565b5f6116d482611688565b6116de8185611692565b93506116ee8185602086016116a2565b6116f7816114d2565b840191505092915050565b5f60a0820190506117155f8301886114a2565b6117226020830187611660565b818103604083015261173481866116ca565b905061174360608301856113d6565b61175060808301846113d6565b9695505050505050565b5f60e08201905061176d5f83018a611660565b61177a60208301896114a2565b6117876040830188611660565b818103606083015261179981876116ca565b90506117a86080830186611660565b6117b560a08301856113d6565b6117c260c08301846113d6565b98975050505050505050565b6117d781611491565b81146117e1575f80fd5b50565b5f813590506117f2816117ce565b92915050565b5f6020828403121561180d5761180c611365565b5b5f61181a848285016117e4565b91505092915050565b7f4f6e6c79207661756c74000000000000000000000000000000000000000000005f82015250565b5f611857600a83611692565b915061186282611823565b602082019050919050565b5f6020820190508181035f8301526118848161184b565b9050919050565b7f416d6f756e74206d757374206265203e203000000000000000000000000000005f82015250565b5f6118bf601283611692565b91506118ca8261188b565b602082019050919050565b5f6020820190508181035f8301526118ec816118b3565b9050919050565b7f4e487b71000000000000000000000000000000000000000000000000000000005f52601160045260245ffd5b5f61192a8261136d565b91506119358361136d565b925082820190508082111561194d5761194c6118f3565b5b92915050565b5f61195d8261136d565b91506119688361136d565b92508282039050818111156119805761197f6118f3565b5b92915050565b7f496e73756666696369656e7420696e737572616e63652066756e6400000000005f82015250565b5f6119ba601b83611692565b91506119c582611986565b602082019050919050565b5f6020820190508181035f8301526119e7816119ae565b9050919050565b7f4e487b71000000000000000000000000000000000000000000000000000000005f52602260045260245ffd5b5f6002820490506001821680611a3257607f821691505b602082108103611a4557611a446119ee565b5b50919050565b5f819050815f5260205f209050919050565b5f6020601f8301049050919050565b5f82821b905092915050565b5f60088302611aa77fffffffffffffffffffffffffffffffffffffffffffffffffffffffffffffffff82611a6c565b611ab18683611a6c565b95508019841693508086168417925050509392505050565b5f611ae3611ade611ad98461136d565b61141d565b61136d565b9050919050565b5f819050919050565b611afc83611ac9565b611b10611b0882611aea565b848454611a78565b825550505050565b5f90565b611b24611b18565b611b2f818484611af3565b505050565b5b81811015611b5257611b475f82611b1c565b600181019050611b35565b5050565b601f821115611b9757611b6881611a4b565b611b7184611a5d565b81016020851015611b80578190505b611b94611b8c85611a5d565b830182611b34565b50505b505050565b5f82821c905092915050565b5f611bb75f1984600802611b9c565b1980831691505092915050565b5f611bcf8383611ba8565b9150826002028217905092915050565b611be882611688565b67ffffffffffffffff811115611c0157611c006114e2565b5b611c0b8254611a1b565b611c16828285611b56565b5f60209050601f831160018114611c47575f8415611c35578287015190505b611c3f8582611bc4565b865550611ca6565b601f198416611c5586611a4b565b5f5b82811015611c7c57848901518255600182019150602085019450602081019050611c57565b86831015611c995784890151611c95601f891682611ba8565b8355505b6001600288020188555050505b505050505050565b7f496e76616c696420636c61696d000000000000000000000000000000000000005f82015250565b5f611ce2600d83611692565b9150611ced82611cae565b602082019050919050565b5f6020820190508181035f830152611d0f81611cd6565b9050919050565b7f4e487b71000000000000000000000000000000000000000000000000000000005f52603260045260245ffd5b7f416c726561647920617070726f766564000000000000000000000000000000005f82015250565b5f611d77601083611692565b9150611d8282611d43565b602082019050919050565b5f6020820190508181035f830152611da481611d6b565b9050919050565b7f4e6f7420617070726f76656400000000000000000000000000000000000000005f82015250565b5f611ddf600c83611692565b9150611dea82611dab565b602082019050919050565b5f6020820190508181035f830152611e0c81611dd3565b9050919050565b7f416c7265616479207061696400000000000000000000000000000000000000005f82015250565b5f611e47600c83611692565b9150611e5282611e13565b602082019050919050565b5f6020820190508181035f830152611e7481611e3b565b9050919050565b5f606082019050611e8e5f8301866114a2565b611e9b60208301856114a2565b611ea86040830184611660565b949350505050565b5f604082019050611ec35f8301856114a2565b611ed06020830184611660565b9392505050565b611ee0816113cb565b8114611eea575f80fd5b50565b5f81519050611efb81611ed7565b92915050565b5f60208284031215611f1657611f15611365565b5b5f611f2384828501611eed565b91505092915050565b5f81519050919050565b5f81905092915050565b5f611f4a82611f2c565b611f548185611f36565b9350611f648185602086016116a2565b80840191505092915050565b5f611f7b8284611f40565b91508190509291505056fea2646970667358221220d691fec0d4272db96fd669b602a82e24b886aeefb2f20a34facb8533e8d50c5e64736f6c63430008180033",
  "linkReferences": {},
  "deployedLinkReferences": {},
  "immutableReferences": {
    "5039": [
      {
        "length": 32,
        "start": 1038
      },
      {
        "length": 32,
        "start": 1191
      },
      {
        "length": 32,
        "start": 3401
      }
    ]
  },
  "inputSourceName": "project/contracts/JanusInsuranceFund.sol",
  "buildInfoId": "solc-0_8_24-b710205da9f6caafd556aaa9ce405792d82bb789"
}