{
  "_format": "hh3-artifact-1",
  "contractName": "JanusMultiSig",
  "sourceName": "contracts/JanusMultiSig.sol",
  "abi": [
    {
      "inputs": [
        {
          "internalType": "address[9]",
          "name": "_signers",
          "type": "address[9]"
        }
      ],
      "stateMutability": "nonpayable",
      "type": "constructor"
    },
    {
      "inputs": [
        {
          "internalType": "address",
          "name": "owner",
          "type": "address"
        }
      ],
      "name": "OwnableInvalidOwner",
      "type": "error"
    },
    {
      "inputs": [
        {
          "internalType": "address",
          "name": "account",
          "type": "address"
        }
      ],
      "name": "OwnableUnauthorizedAccount",
      "type": "error"
    },
    {
      "anonymous": false,
      "inputs": [
        {
          "indexed": true,
          "internalType": "address",
          "name": "previousOwner",
          "type": "address"
        },
        {
          "indexed": true,
          "internalType": "address",
          "name": "newOwner",
          "type": "address"
        }
      ],
      "name": "OwnershipTransferred",
      "type": "event"
    },
    {
      "anonymous": false,
      "inputs": [
        {
          "indexed": true,
          "internalType": "bytes32",
          "name": "proposalId",
          "type": "bytes32"
        },
        {
          "indexed": true,
          "internalType": "address",
          "name": "signer",
          "type": "address"
        },
        {
          "indexed": false,
          "internalType": "uint256",
          "name": "approvalsCount",
          "type": "uint256"
        }
      ],
      "name": "ProposalApproved",
      "type": "event"
    },
    {
      "anonymous": false,
      "inputs": [
        {
          "indexed": true,
          "internalType": "bytes32",
          "name": "proposalId",
          "type": "bytes32"
        }
      ],
      "name": "ProposalCancelled",
      "type": "event"
    },
    {
      "anonymous": false,
      "inputs": [
        {
          "indexed": true,
          "internalType": "bytes32",
          "name": "proposalId",
          "type": "bytes32"
        },
        {
          "indexed": false,
          "internalType": "string",
          "name": "description",
          "type": "string"
        }
      ],
      "name": "ProposalCreated",
      "type": "event"
    },
    {
      "anonymous": false,
      "inputs": [
        {
          "indexed": true,
          "internalType": "bytes32",
          "name": "proposalId",
          "type": "bytes32"
        }
      ],
      "name": "ProposalExecuted",
      "type": "event"
    },
    {
      "anonymous": false,
      "inputs": [
        {
          "indexed": true,
          "internalType": "address",
          "name": "newSigner",
          "type": "address"
        }
      ],
      "name": "SignerAdded",
      "type": "event"
    },
    {
      "anonymous": false,
      "inputs": [
        {
          "indexed": true,
          "internalType": "address",
          "name": "removedSigner",
          "type": "address"
        }
      ],
      "name": "SignerRemoved",
      "type": "event"
    },
    {
      "anonymous": false,
      "inputs": [
        {
          "indexed": false,
          "internalType": "string",
          "name": "reason",
          "type": "string"
        }
      ],
      "name": "VaultPaused",
      "type": "event"
    },
    {
      "anonymous": false,
      "inputs": [],
      "name": "VaultUnpaused",
      "type": "event"
    },
    {
      "inputs": [],
      "name": "REQUIRED_SIGNATURES",
      "outputs": [
        {
          "internalType": "uint256",
          "name": "",
          "type": "uint256"
        }
      ],
      "stateMutability": "view",
      "type": "function"
    },
    {
      "inputs": [],
      "name": "TOTAL_SIGNERS",
      "outputs": [
        {
          "internalType": "uint256",
          "name": "",
          "type": "uint256"
        }
      ],
      "stateMutability": "view",
      "type": "function"
    },
    {
      "inputs": [
        {
          "internalType": "bytes32",
          "name": "proposalId",
          "type": "bytes32"
        }
      ],
      "name": "approveProposal",
      "outputs": [],
      "stateMutability": "nonpayable",
      "type": "function"
    },
    {
      "inputs": [
        {
          "internalType": "string",
          "name": "description",
          "type": "string"
        },
        {
          "internalType": "address",
          "name": "target",
          "type": "address"
        },
        {
          "internalType": "uint256",
          "name": "value",
          "type": "uint256"
        },
        {
          "internalType": "bytes",
          "name": "data",
          "type": "bytes"
        }
      ],
      "name": "createProposal",
      "outputs": [
        {
          "internalType": "bytes32",
          "name": "",
          "type": "bytes32"
        }
      ],
      "stateMutability": "nonpayable",
      "type": "function"
    },
    {
      "inputs": [
        {
          "internalType": "string",
          "name": "reason",
          "type": "string"
        }
      ],
      "name": "emergencyPauseVault",
      "outputs": [],
      "stateMutability": "nonpayable",
      "type": "function"
    },
    {
      "inputs": [
        {
          "internalType": "bytes32",
          "name": "proposalId",
          "type": "bytes32"
        }
      ],
      "name": "executeProposal",
      "outputs": [],
      "stateMutability": "nonpayable",
      "type": "function"
    },
    {
      "inputs": [
        {
          "internalType": "bytes32",
          "name": "proposalId",
          "type": "bytes32"
        }
      ],
      "name": "getProposal",
      "outputs": [
        {
          "internalType": "string",
          "name": "description",
          "type": "string"
        },
        {
          "internalType": "address",
          "name": "target",
          "type": "address"
        },
        {
          "internalType": "uint256",
          "name": "approvals",
          "type": "uint256"
        },
        {
          "internalType": "bool",
          "name": "executed",
          "type": "bool"
        },
        {
          "internalType": "bool",
          "name": "cancelled",
          "type": "bool"
        },
        {
          "internalType": "uint256",
          "name": "createdAt",
          "type": "uint256"
        }
      ],
      "stateMutability": "view",
      "type": "function"
    },
    {
      "inputs": [],
      "name": "getProposalCount",
      "outputs": [
        {
          "internalType": "uint256",
          "name": "",
          "type": "uint256"
        }
      ],
      "stateMutability": "view",
      "type": "function"
    },
    {
      "inputs": [
        {
          "internalType": "address",
          "name": "",
          "type": "address"
        }
      ],
      "name": "isSigner",
      "outputs": [
        {
          "internalType": "bool",
          "name": "",
          "type": "bool"
        }
      ],
      "stateMutability": "view",
      "type": "function"
    },
    {
      "inputs": [],
      "name": "owner",
      "outputs": [
        {
          "internalType": "address",
          "name": "",
          "type": "address"
        }
      ],
      "stateMutability": "view",
      "type": "function"
    },
    {
      "inputs": [
        {
          "internalType": "uint256",
          "name": "",
          "type": "uint256"
        }
      ],
      "name": "proposalIds",
      "outputs": [
        {
          "internalType": "bytes32",
          "name": "",
          "type": "bytes32"
        }
      ],
      "stateMutability": "view",
      "type": "function"
    },
    {
      "inputs": [
        {
          "internalType": "bytes32",
          "name": "",
          "type": "bytes32"
        }
      ],
      "name": "proposals",
      "outputs": [
        {
          "internalType": "bytes32",
          "name": "id",
          "type": "bytes32"
        },
        {
          "internalType": "string",
          "name": "description",
          "type": "string"
        },
        {
          "internalType": "address",
          "name": "target",
          "type": "address"
        },
        {
          "internalType": "uint256",
          "name": "value",
          "type": "uint256"
        },
        {
          "internalType": "bytes",
          "name": "data",
          "type": "bytes"
        },
        {
          "internalType": "uint256",
          "name": "approvals",
          "type": "uint256"
        },
        {
          "internalType": "bool",
          "name": "executed",
          "type": "bool"
        },
        {
          "internalType": "bool",
          "name": "cancelled",
          "type": "bool"
        },
        {
          "internalType": "uint256",
          "name": "createdAt",
          "type": "uint256"
        }
      ],
      "stateMutability": "view",
      "type": "function"
    },
    {
      "inputs": [],
      "name": "renounceOwnership",
      "outputs": [],
      "stateMutability": "nonpayable",
      "type": "function"
    },
    {
      "inputs": [
        {
          "internalType": "uint256",
          "name": "",
          "type": "uint256"
        }
      ],
      "name": "signers",
      "outputs": [
        {
          "internalType": "address",
          "name": "",
          "type": "address"
        }
      ],
      "stateMutability": "view",
      "type": "function"
    },
    {
      "inputs": [
        {
          "internalType": "address",
          "name": "newOwner",
          "type": "address"
        }
      ],
      "name": "transferOwnership",
      "outputs": [],
      "stateMutability": "nonpayable",
      "type": "function"
    },
    {
      "inputs": [],
      "name": "unpauseVault",
      "outputs": [],
      "stateMutability": "nonpayable",
      "type": "function"
    },
    {
      "inputs": [
        {
          "internalType": "address",
          "name": "account",
          "type": "address"
        }
      ],
      "name": "validateSigner",
      "outputs": [
        {
          "internalType": "bool",
          "name": "",
          "type": "bool"
        }
      ],
      "stateMutability": "view",
      "type": "function"
    },
    {
      "inputs": [],
      "name": "vaultPaused",
      "outputs": [
        {
          "internalType": "bool",
          "name": "",
          "type": "bool"
        }
      ],
      "stateMutability": "view",
      "type": "function"
    }
  ],
  "bytecode": "0x60806040525f600d5f6101000a81548160ff02191690831515021790555034801562000029575f80fd5b50604051620028d6380380620028d683398181016040528101906200004f9190620004ea565b335f73ffffffffffffffffffffffffffffffffffffffff168173ffffffffffffffffffffffffffffffffffffffff1603620000c3575f6040517f1e4fbdf7000000000000000000000000000000000000000000000000000000008152600401620000ba91906200052c565b60405180910390fd5b620000d4816200026160201b60201c565b505f5b600981101562000259575f73ffffffffffffffffffffffffffffffffffffffff168282600981106200010e576200010d62000547565b5b602002015173ffffffffffffffffffffffffffffffffffffffff16036200016c576040517f08c379a00000000000000000000000000000000000000000000000000000000081526004016200016390620005d2565b60405180910390fd5b81816009811062000182576200018162000547565b5b6020020151600182600981106200019e576200019d62000547565b5b015f6101000a81548173ffffffffffffffffffffffffffffffffffffffff021916908373ffffffffffffffffffffffffffffffffffffffff1602179055506001600a5f848460098110620001f757620001f662000547565b5b602002015173ffffffffffffffffffffffffffffffffffffffff1673ffffffffffffffffffffffffffffffffffffffff1681526020019081526020015f205f6101000a81548160ff0219169083151502179055508080600101915050620000d7565b5050620005f2565b5f805f9054906101000a900473ffffffffffffffffffffffffffffffffffffffff169050815f806101000a81548173ffffffffffffffffffffffffffffffffffffffff021916908373ffffffffffffffffffffffffffffffffffffffff1602179055508173ffffffffffffffffffffffffffffffffffffffff168173ffffffffffffffffffffffffffffffffffffffff167f8be0079c531659141344cd1fd0a4f28419497f9722a3daafe3b4186f6b6457e060405160405180910390a35050565b5f604051905090565b5f80fd5b5f80fd5b5f601f19601f8301169050919050565b7f4e487b71000000000000000000000000000000000000000000000000000000005f52604160045260245ffd5b6200037b8262000333565b810181811067ffffffffffffffff821117156200039d576200039c62000343565b5b80604052505050565b5f620003b162000322565b9050620003bf828262000370565b919050565b5f67ffffffffffffffff821115620003e157620003e062000343565b5b602082029050919050565b5f80fd5b5f73ffffffffffffffffffffffffffffffffffffffff82169050919050565b5f6200041b82620003f0565b9050919050565b6200042d816200040f565b811462000438575f80fd5b50565b5f815190506200044b8162000422565b92915050565b5f620004676200046184620003c4565b620003a6565b90508060208402830185811115620004845762000483620003ec565b5b835b81811015620004b157806200049c88826200043b565b84526020840193505060208101905062000486565b5050509392505050565b5f82601f830112620004d257620004d16200032f565b5b6009620004e184828562000451565b91505092915050565b5f61012082840312156200050357620005026200032b565b5b5f6200051284828501620004bb565b91505092915050565b62000526816200040f565b82525050565b5f602082019050620005415f8301846200051b565b92915050565b7f4e487b71000000000000000000000000000000000000000000000000000000005f52603260045260245ffd5b5f82825260208201905092915050565b7f496e76616c6964207369676e65720000000000000000000000000000000000005f82015250565b5f620005ba600e8362000574565b9150620005c78262000584565b602082019050919050565b5f6020820190508181035f830152620005eb81620005ac565b9050919050565b6122d680620006005f395ff3fe608060405234801561000f575f80fd5b5060043610610114575f3560e01c80638da5cb5b116100a0578063c08cc02d1161006f578063c08cc02d146102eb578063cb43cfa414610309578063d2bac2f114610327578063f20b5b2c14610357578063f2fde38b1461037357610114565b80638da5cb5b14610263578063980ff6c6146102815780639ac18b191461029d5780639b644a23146102bb57610114565b8063430694cf116100e7578063430694cf146101ba5780636f0c9b46146101ef578063715018a61461020b57806373d025d6146102155780637df73e271461023357610114565b80630b7562be146101185780630f00d73e146101225780632079fb9a1461015257806332ed5b1214610182575b5f80fd5b61012061038f565b005b61013c6004803603810190610137919061147b565b6103de565b604051610149919061152f565b60405180910390f35b61016c60048036038101906101679190611548565b6105af565b6040516101799190611582565b60405180910390f35b61019c600480360381019061019791906115c5565b6105e3565b6040516101b1999897969594939291906116e5565b60405180910390f35b6101d460048036038101906101cf91906115c5565b610771565b6040516101e69695949392919061177e565b60405180910390f35b610209600480360381019061020491906117e4565b610881565b005b6102136109e5565b005b61021d6109f8565b60405161022a919061182b565b60405180910390f35b61024d60048036038101906102489190611844565b610a0a565b60405161025a919061182b565b60405180910390f35b61026b610a27565b6040516102789190611582565b60405180910390f35b61029b600480360381019061029691906115c5565b610a4e565b005b6102a5610cca565b6040516102b2919061186f565b60405180910390f35b6102d560048036038101906102d09190611548565b610ccf565b6040516102e2919061152f565b60405180910390f35b6102f3610cef565b604051610300919061186f565b60405180910390f35b610311610cfb565b60405161031e919061186f565b60405180910390f35b610341600480360381019061033c9190611844565b610d00565b60405161034e919061182b565b60405180910390f35b610371600480360381019061036c91906115c5565b610d52565b005b61038d60048036038101906103889190611844565b611030565b005b6103976110b4565b5f600d5f6101000a81548160ff0219169083151502179055507f54f8256a798d6433f87dc33561cd1a7df30bd1d70ec09edb2c7d3bb6c0de159e60405160405180910390a1565b5f80423386856040516020016103f79493929190611927565b6040516020818303038152906040528051906020012090505f600c5f8381526020019081526020015f206007015414610465576040517f08c379a000000000000000000000000000000000000000000000000000000000815260040161045c906119ba565b60405180910390fd5b80600c5f8381526020019081526020015f205f018190555085600c5f8381526020019081526020015f20600101908161049e9190611bd2565b5084600c5f8381526020019081526020015f206002015f6101000a81548173ffffffffffffffffffffffffffffffffffffffff021916908373ffffffffffffffffffffffffffffffffffffffff16021790555083600c5f8381526020019081526020015f206003018190555082600c5f8381526020019081526020015f20600401908161052b9190611cf9565b5042600c5f8381526020019081526020015f2060070181905550600b81908060018154018082558091505060019003905f5260205f20015f9091909190915055807f513ce06ee1eb0010bd9c7642e9e39cbded2d8147b81543fba031de0e669710ba8760405161059b9190611dc8565b60405180910390a280915050949350505050565b600181600981106105be575f80fd5b015f915054906101000a900473ffffffffffffffffffffffffffffffffffffffff1681565b600c602052805f5260405f205f91509050805f01549080600101805461060890611a05565b80601f016020809104026020016040519081016040528092919081815260200182805461063490611a05565b801561067f5780601f106106565761010080835404028352916020019161067f565b820191905f5260205f20905b81548152906001019060200180831161066257829003601f168201915b505050505090806002015f9054906101000a900473ffffffffffffffffffffffffffffffffffffffff16908060030154908060040180546106bf90611a05565b80601f01602080910402602001604051908101604052809291908181526020018280546106eb90611a05565b80156107365780601f1061070d57610100808354040283529160200191610736565b820191905f5260205f20905b81548152906001019060200180831161071957829003601f168201915b505050505090806005015490806006015f9054906101000a900460ff16908060060160019054906101000a900460ff16908060070154905089565b60605f805f805f80600c5f8981526020019081526020015f20905080600101816002015f9054906101000a900473ffffffffffffffffffffffffffffffffffffffff168260050154836006015f9054906101000a900460ff168460060160019054906101000a900460ff1685600701548580546107ed90611a05565b80601f016020809104026020016040519081016040528092919081815260200182805461081990611a05565b80156108645780601f1061083b57610100808354040283529160200191610864565b820191905f5260205f20905b81548152906001019060200180831161084757829003601f168201915b505050505095509650965096509650965096505091939550919395565b600a5f3373ffffffffffffffffffffffffffffffffffffffff1673ffffffffffffffffffffffffffffffffffffffff1681526020019081526020015f205f9054906101000a900460ff1661090a576040517f08c379a000000000000000000000000000000000000000000000000000000000815260040161090190611e32565b60405180910390fd5b5f610e10426109199190611eaa565b6040516020016109299190611f2e565b604051602081830303815290604052805190602001209050600d5f9054906101000a900460ff1615610990576040517f08c379a000000000000000000000000000000000000000000000000000000000815260040161098790611f9d565b60405180910390fd5b6001600d5f6101000a81548160ff0219169083151502179055507fbafce63feb4f6b84b40d9dcbcbf67d38bf385fe0ed6dc6eb2c7a79cc90d4de9f826040516109d99190611dc8565b60405180910390a15050565b6109ed6110b4565b6109f65f61113b565b565b600d5f9054906101000a900460ff1681565b600a602052805f5260405f205f915054906101000a900460ff1681565b5f805f9054906101000a900473ffffffffffffffffffffffffffffffffffffffff16905090565b6005600c5f8381526020019081526020015f20600501541015610aa6576040517f08c379a0000000000000000000000000000000000000000000000000000000008152600401610a9d90612005565b60405180910390fd5b600c5f8281526020019081526020015f206006015f9054906101000a900460ff1615610b07576040517f08c379a0000000000000000000000000000000000000000000000000000000008152600401610afe9061206d565b60405180910390fd5b600c5f8281526020019081526020015f2060060160019054906101000a900460ff1615610b69576040517f08c379a0000000000000000000000000000000000000000000000000000000008152600401610b60906120d5565b60405180910390fd5b6001600c5f8381526020019081526020015f206006015f6101000a81548160ff0219169083151502179055505f600c5f8381526020019081526020015f206002015f9054906101000a900473ffffffffffffffffffffffffffffffffffffffff1673ffffffffffffffffffffffffffffffffffffffff16600c5f8481526020019081526020015f2060030154600c5f8581526020019081526020015f20600401604051610c169190612173565b5f6040518083038185875af1925050503d805f8114610c50576040519150601f19603f3d011682016040523d82523d5f602084013e610c55565b606091505b5050905080610c99576040517f08c379a0000000000000000000000000000000000000000000000000000000008152600401610c90906121d3565b60405180910390fd5b817f7b1bcf1ccf901a11589afff5504d59fd0a53780eed2a952adade0348985139e060405160405180910390a25050565b600581565b600b8181548110610cde575f80fd5b905f5260205f20015f915090505481565b5f600b80549050905090565b600981565b5f600a5f8373ffffffffffffffffffffffffffffffffffffffff1673ffffffffffffffffffffffffffffffffffffffff1681526020019081526020015f205f9054906101000a900460ff169050919050565b600a5f3373ffffffffffffffffffffffffffffffffffffffff1673ffffffffffffffffffffffffffffffffffffffff1681526020019081526020015f205f9054906101000a900460ff16610ddb576040517f08c379a0000000000000000000000000000000000000000000000000000000008152600401610dd290611e32565b60405180910390fd5b600c5f8281526020019081526020015f206006015f9054906101000a900460ff1615610e3c576040517f08c379a0000000000000000000000000000000000000000000000000000000008152600401610e339061206d565b60405180910390fd5b600c5f8281526020019081526020015f2060060160019054906101000a900460ff1615610e9e576040517f08c379a0000000000000000000000000000000000000000000000000000000008152600401610e95906120d5565b60405180910390fd5b600c5f8281526020019081526020015f206008015f3373ffffffffffffffffffffffffffffffffffffffff1673ffffffffffffffffffffffffffffffffffffffff1681526020019081526020015f205f9054906101000a900460ff1615610f3a576040517f08c379a0000000000000000000000000000000000000000000000000000000008152600401610f319061223b565b60405180910390fd5b6001600c5f8381526020019081526020015f206008015f3373ffffffffffffffffffffffffffffffffffffffff1673ffffffffffffffffffffffffffffffffffffffff1681526020019081526020015f205f6101000a81548160ff021916908315150217905550600c5f8281526020019081526020015f206005015f815480929190610fc590612259565b91905055503373ffffffffffffffffffffffffffffffffffffffff16817f10297faee11712adae652a62361fee2a6409a3c59181f207315794f7e63a25d8600c5f8581526020019081526020015f2060050154604051611025919061186f565b60405180910390a350565b6110386110b4565b5f73ffffffffffffffffffffffffffffffffffffffff168173ffffffffffffffffffffffffffffffffffffffff16036110a8575f6040517f1e4fbdf700000000000000000000000000000000000000000000000000000000815260040161109f9190611582565b60405180910390fd5b6110b18161113b565b50565b6110bc6111fc565b73ffffffffffffffffffffffffffffffffffffffff166110da610a27565b73ffffffffffffffffffffffffffffffffffffffff1614611139576110fd6111fc565b6040517f118cdaa70000000000000000000000000000000000000000000000000000000081526004016111309190611582565b60405180910390fd5b565b5f805f9054906101000a900473ffffffffffffffffffffffffffffffffffffffff169050815f806101000a81548173ffffffffffffffffffffffffffffffffffffffff021916908373ffffffffffffffffffffffffffffffffffffffff1602179055508173ffffffffffffffffffffffffffffffffffffffff168173ffffffffffffffffffffffffffffffffffffffff167f8be0079c531659141344cd1fd0a4f28419497f9722a3daafe3b4186f6b6457e060405160405180910390a35050565b5f33905090565b5f604051905090565b5f80fd5b5f80fd5b5f80fd5b5f80fd5b5f601f19601f8301169050919050565b7f4e487b71000000000000000000000000000000000000000000000000000000005f52604160045260245ffd5b6112628261121c565b810181811067ffffffffffffffff821117156112815761128061122c565b5b80604052505050565b5f611293611203565b905061129f8282611259565b919050565b5f67ffffffffffffffff8211156112be576112bd61122c565b5b6112c78261121c565b9050602081019050919050565b828183375f83830152505050565b5f6112f46112ef846112a4565b61128a565b9050828152602081018484840111156113105761130f611218565b5b61131b8482856112d4565b509392505050565b5f82601f83011261133757611336611214565b5b81356113478482602086016112e2565b91505092915050565b5f73ffffffffffffffffffffffffffffffffffffffff82169050919050565b5f61137982611350565b9050919050565b6113898161136f565b8114611393575f80fd5b50565b5f813590506113a481611380565b92915050565b5f819050919050565b6113bc816113aa565b81146113c6575f80fd5b50565b5f813590506113d7816113b3565b92915050565b5f67ffffffffffffffff8211156113f7576113f661122c565b5b6114008261121c565b9050602081019050919050565b5f61141f61141a846113dd565b61128a565b90508281526020810184848401111561143b5761143a611218565b5b6114468482856112d4565b509392505050565b5f82601f83011261146257611461611214565b5b813561147284826020860161140d565b91505092915050565b5f805f80608085870312156114935761149261120c565b5b5f85013567ffffffffffffffff8111156114b0576114af611210565b5b6114bc87828801611323565b94505060206114cd87828801611396565b93505060406114de878288016113c9565b925050606085013567ffffffffffffffff8111156114ff576114fe611210565b5b61150b8782880161144e565b91505092959194509250565b5f819050919050565b61152981611517565b82525050565b5f6020820190506115425f830184611520565b92915050565b5f6020828403121561155d5761155c61120c565b5b5f61156a848285016113c9565b91505092915050565b61157c8161136f565b82525050565b5f6020820190506115955f830184611573565b92915050565b6115a481611517565b81146115ae575f80fd5b50565b5f813590506115bf8161159b565b92915050565b5f602082840312156115da576115d961120c565b5b5f6115e7848285016115b1565b91505092915050565b5f81519050919050565b5f82825260208201905092915050565b5f5b8381101561162757808201518184015260208101905061160c565b5f8484015250505050565b5f61163c826115f0565b61164681856115fa565b935061165681856020860161160a565b61165f8161121c565b840191505092915050565b611673816113aa565b82525050565b5f81519050919050565b5f82825260208201905092915050565b5f61169d82611679565b6116a78185611683565b93506116b781856020860161160a565b6116c08161121c565b840191505092915050565b5f8115159050919050565b6116df816116cb565b82525050565b5f610120820190506116f95f83018c611520565b818103602083015261170b818b611632565b905061171a604083018a611573565b611727606083018961166a565b81810360808301526117398188611693565b905061174860a083018761166a565b61175560c08301866116d6565b61176260e08301856116d6565b61177061010083018461166a565b9a9950505050505050505050565b5f60c0820190508181035f8301526117968189611632565b90506117a56020830188611573565b6117b2604083018761166a565b6117bf60608301866116d6565b6117cc60808301856116d6565b6117d960a083018461166a565b979650505050505050565b5f602082840312156117f9576117f861120c565b5b5f82013567ffffffffffffffff81111561181657611815611210565b5b61182284828501611323565b91505092915050565b5f60208201905061183e5f8301846116d6565b92915050565b5f602082840312156118595761185861120c565b5b5f61186684828501611396565b91505092915050565b5f6020820190506118825f83018461166a565b92915050565b5f819050919050565b6118a261189d826113aa565b611888565b82525050565b5f8160601b9050919050565b5f6118be826118a8565b9050919050565b5f6118cf826118b4565b9050919050565b6118e76118e28261136f565b6118c5565b82525050565b5f81905092915050565b5f61190182611679565b61190b81856118ed565b935061191b81856020860161160a565b80840191505092915050565b5f6119328287611891565b60208201915061194282866118d6565b60148201915061195282856118d6565b60148201915061196282846118f7565b915081905095945050505050565b7f50726f706f73616c20616c7265616479206578697374730000000000000000005f82015250565b5f6119a46017836115fa565b91506119af82611970565b602082019050919050565b5f6020820190508181035f8301526119d181611998565b9050919050565b7f4e487b71000000000000000000000000000000000000000000000000000000005f52602260045260245ffd5b5f6002820490506001821680611a1c57607f821691505b602082108103611a2f57611a2e6119d8565b5b50919050565b5f819050815f5260205f209050919050565b5f6020601f8301049050919050565b5f82821b905092915050565b5f60088302611a917fffffffffffffffffffffffffffffffffffffffffffffffffffffffffffffffff82611a56565b611a9b8683611a56565b95508019841693508086168417925050509392505050565b5f819050919050565b5f611ad6611ad1611acc846113aa565b611ab3565b6113aa565b9050919050565b5f819050919050565b611aef83611abc565b611b03611afb82611add565b848454611a62565b825550505050565b5f90565b611b17611b0b565b611b22818484611ae6565b505050565b5b81811015611b4557611b3a5f82611b0f565b600181019050611b28565b5050565b601f821115611b8a57611b5b81611a35565b611b6484611a47565b81016020851015611b73578190505b611b87611b7f85611a47565b830182611b27565b50505b505050565b5f82821c905092915050565b5f611baa5f1984600802611b8f565b1980831691505092915050565b5f611bc28383611b9b565b9150826002028217905092915050565b611bdb826115f0565b67ffffffffffffffff811115611bf457611bf361122c565b5b611bfe8254611a05565b611c09828285611b49565b5f60209050601f831160018114611c3a575f8415611c28578287015190505b611c328582611bb7565b865550611c99565b601f198416611c4886611a35565b5f5b82811015611c6f57848901518255600182019150602085019450602081019050611c4a565b86831015611c8c5784890151611c88601f891682611b9b565b8355505b6001600288020188555050505b505050505050565b5f819050815f5260205f209050919050565b601f821115611cf457611cc581611ca1565b611cce84611a47565b81016020851015611cdd578190505b611cf1611ce985611a47565b830182611b27565b50505b505050565b611d0282611679565b67ffffffffffffffff811115611d1b57611d1a61122c565b5b611d258254611a05565b611d30828285611cb3565b5f60209050601f831160018114611d61575f8415611d4f578287015190505b611d598582611bb7565b865550611dc0565b601f198416611d6f86611ca1565b5f5b82811015611d9657848901518255600182019150602085019450602081019050611d71565b86831015611db35784890151611daf601f891682611b9b565b8355505b6001600288020188555050505b505050505050565b5f6020820190508181035f830152611de08184611632565b905092915050565b7f4e6f742061207369676e657200000000000000000000000000000000000000005f82015250565b5f611e1c600c836115fa565b9150611e2782611de8565b602082019050919050565b5f6020820190508181035f830152611e4981611e10565b9050919050565b7f4e487b71000000000000000000000000000000000000000000000000000000005f52601260045260245ffd5b7f4e487b71000000000000000000000000000000000000000000000000000000005f52601160045260245ffd5b5f611eb4826113aa565b9150611ebf836113aa565b925082611ecf57611ece611e50565b5b828204905092915050565b5f81905092915050565b7f50415553450000000000000000000000000000000000000000000000000000005f82015250565b5f611f18600583611eda565b9150611f2382611ee4565b600582019050919050565b5f611f3882611f0c565b9150611f448284611891565b60208201915081905092915050565b7f416c7265616479207061757365640000000000000000000000000000000000005f82015250565b5f611f87600e836115fa565b9150611f9282611f53565b602082019050919050565b5f6020820190508181035f830152611fb481611f7b565b9050919050565b7f496e73756666696369656e7420617070726f76616c73000000000000000000005f82015250565b5f611fef6016836115fa565b9150611ffa82611fbb565b602082019050919050565b5f6020820190508181035f83015261201c81611fe3565b9050919050565b7f416c7265616479206578656375746564000000000000000000000000000000005f82015250565b5f6120576010836115fa565b915061206282612023565b602082019050919050565b5f6020820190508181035f8301526120848161204b565b9050919050565b7f416c72656164792063616e63656c6c65640000000000000000000000000000005f82015250565b5f6120bf6011836115fa565b91506120ca8261208b565b602082019050919050565b5f6020820190508181035f8301526120ec816120b3565b9050919050565b5f81546120ff81611a05565b61210981866118ed565b9450600182165f811461212357600181146121385761216a565b60ff198316865281151582028601935061216a565b61214185611ca1565b5f5b8381101561216257815481890152600182019150602081019050612143565b838801955050505b50505092915050565b5f61217e82846120f3565b915081905092915050565b7f457865637574696f6e206661696c6564000000000000000000000000000000005f82015250565b5f6121bd6010836115fa565b91506121c882612189565b602082019050919050565b5f6020820190508181035f8301526121ea816121b1565b9050919050565b7f416c726561647920617070726f766564000000000000000000000000000000005f82015250565b5f6122256010836115fa565b9150612230826121f1565b602082019050919050565b5f6020820190508181035f83015261225281612219565b9050919050565b5f612263826113aa565b91507fffffffffffffffffffffffffffffffffffffffffffffffffffffffffffffffff820361229557612294611e7d565b5b60018201905091905056fea2646970667358221220a51890252a7cf9ee8234654d403957364c9a5cf520f470037b73add46db7fabb64736f6c63430008180033",
  "linkReferences": {},
  "deployedLinkReferences": {},
  "immutableReferences": {},
  "inputSourceName": "project/contracts/JanusMultiSig.sol",
  "buildInfoId": "solc-0_8_24-b710205da9f6caafd556aaa9ce405792d82bb789"
}